:100000000C945D000C9485000C9485000C94850084
:100010000C9485000C9485000C9485000C9485004C
:100020000C9485000C9485000C9485000C9485003C
:100030000C9485000C9485000C9485000C9485002C
:100040000C9443020C9485000C94B3020C948D0222
:100050000C9485000C9485000C9485000C9485000C
:100060000C9485000C94850000000008000201003B
:100070000003040700000000000000000000000072
:10008000250028002B0000000000240027002A0083
:10009000040404040404040402020202020203032E
:1000A0000303030301020408102040800102040836
:1000B0001020010204081020960411241FBECFEF67
:1000C000D8E0DEBFCDBF11E0A0E0B1E0E8E1FAE0AA
:1000D00002C005900D92A033B107D9F721E0A0E34B
:1000E000B1E001C01D92A63DB207E1F710E0CDE5F9
:1000F000D0E004C02197FE010E94E504CC35D10771
:10010000C9F70E94E5020C940A050C9400002FB771
:10011000F8948091350190913601A0913701B0910A
:1001200038012FBF8093410190934201A093430176
:10013000B0934401E0913901F0913A010084F185D6
:10014000E02D89E391E0099597FF26C02FB7F89439
:100150008091350190913601A0913701B09138011D
:100160002FBF409141015091420160914301709134
:100170004401841B950BA60BB70B40913D01509198
:100180003E0160913F017091400184179507A607D9
:10019000B70780F28FEF9FEF089590E0FC01EC55D8
:1001A000FF4F2491FC01E057FF4F8491882399F081
:1001B00090E0880F991FFC01EA57FF4FA591B49179
:1001C000FC01E458FF4F859194918FB7F894EC911E
:1001D000E22BEC938FBF0895CF92DF92EF92FF92C4
:1001E0000F931F93CF93DF936C017A018B01C0E0D3
:1001F000D0E0CE15DF0589F0D8016D918D01D601D3
:10020000ED91FC910190F081E02DC6010995892BBB
:1002100011F47E0102C02196ECCFC701DF91CF918E
:100220001F910F91FF90EF90DF90CF900895FC0108
:10023000918D828D981761F0828DDF01A80FB11D1D
:100240005D968C91928D9F5F9F73928F90E0089541
:100250008FEF9FEF0895FC01918D828D981731F0FB
:10026000828DE80FF11D858D90E008958FEF9FEF4F
:100270000895FC01918D228D892F90E0805C9F4F25
:10028000821B91098F739927089589E391E00E9459
:10029000390121E0892B09F420E0822F0895FC0127
:1002A000848DDF01A80FB11DA35ABF4F2C91848DFF
:1002B00090E001968F739927848FA689B7892C9334
:1002C000A089B1898C9180648C93938D848D9813CF
:1002D00006C00288F389E02D80818F7D8083089598
:1002E000EF92FF920F931F93CF93DF93EC0181E086
:1002F000888F9B8D8C8D981305C0E889F989808142
:1003000085FD24C0F62E0B8D10E00F5F1F4F0F737D
:100310001127E02E8C8DE8120CC00FB607FCFACF27
:10032000E889F989808185FFF5CFCE010E944F01D0
:10033000F1CF8B8DFE01E80FF11DE35AFF4FF082E4
:100340000B8FEA89FB898081806207C0EE89FF8973
:100350006083E889F98980818064808381E090E00E
:10036000DF91CF911F910F91FF90EF900895CF9360
:10037000DF93EC01888D8823C9F0EA89FB898081AD
:1003800085FD05C0A889B9898C9186FD0FC00FB67F
:1003900007FCF5CF808185FFF2CFA889B9898C91C0
:1003A00085FFEDCFCE010E944F01E7CFDF91CF91C6
:1003B000089580E090E0892B29F00E944501811189
:1003C0000C940000089590E0FC01E859FF4F34912F
:1003D000FC01EC55FF4F2491FC01E057FF4FE491E5
:1003E000EE2309F43BC0332339F1333091F038F474
:1003F0003130A9F0323001F584B58F7D12C037302D
:1004000091F03830A1F03430B9F4809180008F7DC4
:1004100003C0809180008F77809380000DC084B5E9
:100420008F7784BD09C08091B0008F7703C0809121
:10043000B0008F7D8093B000F0E0EE0FFF1FE45816
:10044000FF4FA591B4918FB7F894EC91611103C05F
:1004500020952E2301C02E2B2C938FBF089500973B
:1004600069F0FC0101900020E9F73197AF01481BCA
:10047000590BBC0189E391E00C94EC0080E090E022
:1004800008950E94EB041F920F920FB60F92112451
:100490002F933F938F939F93AF93BF938091350199
:1004A00090913601A0913701B0913801309134011B
:1004B00023E0230F2D3720F40196A11DB11D05C0A7
:1004C00026E8230F0296A11DB11D209334018093CD
:1004D000350190933601A0933701B0933801809194
:1004E000300190913101A0913201B0913301019618
:1004F000A11DB11D8093300190933101A093320171
:10050000B0933301BF91AF919F918F913F912F9104
:100510000F900FBE0F901F9018951F920F920FB65D
:100520000F9211242F933F934F935F936F937F9379
:100530008F939F93AF93BF93EF93FF9389E391E0E2
:100540000E944F01FF91EF91BF91AF919F918F91C9
:100550007F916F915F914F913F912F910F900FBEBF
:100560000F901F9018951F920F920FB60F921124A3
:100570002F938F939F93EF93FF93E0914901F09115
:100580004A018081E0914F01F091500182FD12C03B
:100590009081809152018F5F8F7320915301821758
:1005A00051F0E0915201F0E0E75CFE4F958F8093AF
:1005B000520101C08081FF91EF919F918F912F9106
:1005C0000F900FBE0F901F901895CF93DF93CDB76C
:1005D000DEB7A5970FB6F894DEBF0FBECDBF7894F7
:1005E00084B5826084BD84B5816084BD85B5826038
:1005F00085BD85B5816085BD80916E0081608093E9
:100600006E00109281008091810082608093810051
:100610008091810081608093810080918000816061
:10062000809380008091B10084608093B1008091BC
:10063000B00081608093B00080917A0084608093E4
:100640007A0080917A00826080937A0080917A00AB
:10065000816080937A0080917A00806880937A002C
:100660001092C10083E00E94CD00E0914901F09119
:100670004A0182E08083E0914501F09146011082B9
:10068000E0914701F09148018FEC80831092510175
:10069000E0914D01F0914E0186E08083E0914B01A5
:1006A000F0914C01808180618083E0914B01F09159
:1006B0004C01808188608083E0914B01F0914C0176
:1006C000808180688083E0914B01F0914C018081B2
:1006D0008F7D808380E191E00E942F028CE291E087
:1006E0000E942F028BE6282E80E0382E9AE0492EB9
:1006F000512C612C712C89E391E00E943901892BE6
:1007000009F4EFC00E948700FC0197FD11C08D32F3
:10071000910589F0C0970A9770F0E0913901F09146
:100720003A010680F781E02D89E391E00995EACF4F
:1007300010E000E02FC020E030E0A90110E0E1303F
:10074000F10509F0D1C0E0913901F0913A0106803C
:10075000F781E02D89E391E02AA33BA34CA35DA39D
:1007600009950E948700FC01C0972AA13BA14CA1DA
:100770005DA10A9720F3E130F10509F3112309F493
:10078000D2C088279927DC01821B930BA40BB50BE1
:10079000182F092FE12EF02E47010F2C000CAA086C
:1007A000BB08B7FE26C0E0913901F0913A010190F3
:1007B000F081E02D6DE289E391E00995222733274E
:1007C000A901281939094A095B0919A2CE018196A4
:1007D0006C01CA01B901A30192010E94C304605DCA
:1007E000F60162936F01211531054105510589F725
:1007F00015C0A501940119A2CE0181966C01CA0110
:10080000B901A30192010E94C304605DF6016293E5
:100810006F01211531054105510589F7C6010E9477
:100820002F028CE291E00E942F02C12ED02EFFEF0A
:10083000CF16D10411F008F054C083E00E94CD001F
:10084000E114F10411F460E005C08FEFE816F10443
:1008500029F461E083E00E94E30143C0F101849147
:100860008330F9F048F48130B9F08230A1F584B5D5
:10087000806284BD18BD35C08730E9F0883019F139
:10088000843049F580918000806280938000D0920E
:100890008B00C0928A0025C084B5806884BD17BDD6
:1008A00020C080918000806880938000D092890071
:1008B000C092880016C08091B00080688093B0001C
:1008C0001093B3000EC08091B00080628093B0009E
:1008D0001093B40006C0F0E8EF16F1040CF0B9CFA5
:1008E000B2CF0E94D90107CFED32F105D1F0CF018F
:1008F000C0970A9708F027CFAAE0B0E00E94F00462
:100900006F01FF0FEE08FF08DC01CB018C0D9D1D70
:10091000AE1DBF1D9C01AD01205331094109510994
:1009200012CF11E010CF122F032F34CFE9E3F1E003
:100930001382128288EE93E0A0E0B0E08483958376
:10094000A683B78384E091E09183808385EC90E077
:100950009587848784EC90E09787868780EC90E089
:10096000918B808B81EC90E0938B828B82EC90E07A
:10097000958B848B86EC90E0978B868B118E128EF4
:10098000138E148E0895A1E21A2EAA1BBB1BFD0123
:100990000DC0AA1FBB1FEE1FFF1FA217B307E4075E
:1009A000F50720F0A21BB30BE40BF50B661F771FB6
:1009B000881F991F1A9469F7609570958095909596
:1009C0009B01AC01BD01CF010895EE0FFF1F059003
:1009D000F491E02D099481E090E0F8940C940A05DC
:1009E0000E94FB04A59F900DB49F900DA49F800DC5
:1009F000911D11240895A29FB001B39FC001A39F30
:100A0000700D811D1124911DB29F700D811D112447
:080A1000911D0895F894FFCF39
:100A1800000000007001EC00390117012B01B7013B
:100A28003020696C65203235352061726173692028
:100A380068697A20676972696E697A000D0A000030
:00000001FF
