:100000000C9435000C945D000C945D000C945D0024
:100010000C945D000C945D000C945D000C945D00EC
:100020000C945D000C945D000C945D000C945D00DC
:100030000C945D000C945D000C945D000C945D00CC
:100040000C9423020C945D000C9473040C94A5048E
:100050000C945D000C945D000C945D000C945D00AC
:100060000C945D000C945D00D50411241FBECFEFED
:10007000D8E0DEBFCDBF11E0A0E0B1E0EEEAF2E1F2
:1000800002C005900D92AE3AB107D9F722E0AEEA70
:10009000B1E001C01D92A939B207E1F710E0CAE64C
:1000A000D0E004C02297FE010E945109C836D10752
:1000B000C9F70E9419050C9455090C94000040EDF5
:1000C00057E060E070E08CEB91E00E948A0120E84C
:1000D00035E240E050E06CEF71E08CEB91E00E9483
:1000E0009D018CEB91E00E94870161E071E08091BD
:1000F000ED019091EE010E9466056AE070E080E0FB
:1001000090E00E949C0241E060E08CEB91E00E9454
:10011000080226E040E855E260E070E08CEF91E0F4
:100120000C941104CF92DF92EF92FF920F931F93E2
:100130000E946D02672B682B692B41F40E946D02AF
:10014000623071058105910508F476C00E946D0248
:100150006093B4017093B5018093B6019093B70199
:100160000091B8011091B9012091BA013091BB0101
:10017000601771078207930740F46093B80170938A
:10018000B9018093BA019093BB010091B80110911D
:10019000B9012091BA013091BB016B017C01C01AF9
:1001A000D10AE20AF30A970186010A3F11052105E7
:1001B000310508F441C06093B8017093B901809390
:1001C000BA019093BB018CEB91E00E94870163E13F
:1001D00071E08091ED019091EE010E9466056BE166
:1001E00071E08091ED019091EE010E9466050E9400
:1001F0006D02AB01BC012AE030E08091ED019091ED
:10020000EE010E940C066DE171E08091ED0190918C
:10021000EE010E94660562E070E080E090E00E94DE
:100220009C026AE070E080E090E00E949C0261E045
:100230008CEB91E00E94CA018091AE010E941103F3
:10024000BC01882777FD8095982F0E94120820E036
:1002500030E04AEF5EE30E94C6086093B0017093FD
:10026000B1018093B2019093B30166E271E08CEF2B
:1002700091E00E9466054091B0015091B1016091FA
:10028000B2017091B30122E030E08CEF91E00E9466
:100290000B0764E371E08CEF91E00E9466058CEF40
:1002A00091E00E946F0568EE73E080E090E01F919E
:1002B0000F91FF90EF90DF90CF900C949C020F93E2
:1002C0001F93CF93DF93EC01662359F00E946D02D8
:1002D00069837A838B839C83DF91CF911F910F91E8
:1002E00008950E946D0209811A812B813C81601B57
:1002F000710B820B930B693171058105910530F704
:1003000063E070E080E090E00E949C02EACF60E051
:100310000C945F01FC0113AA14AA15AA16AA118253
:10032000128213821482411551056105710521F075
:10033000CB01BA010C949C020895FB01BA01A901FA
:10034000DC01D296FC93EE93D19726E0CF010C947A
:1003500011041F93CF93DF93EC01162F67E371E035
:1003600089A99AA90E9466054AE050E0612F89A9EF
:100370009AA90E9419066EE371E089A99AA90E94C0
:10038000660562E370E080E090E0DF91CF911F911D
:100390000C949C021F93CF93DF93EC01162F8D8159
:1003A000882389F189A99AA9DC01ED91FC91048047
:1003B000F581E02D0995892BA9F307C02637310572
:1003C00019F12835310509F41D8289A99AA9DC01A2
:1003D000ED91FC910480F581E02D09951816190620
:1003E00094F489A99AA9DC01ED91FC910680F7812A
:1003F000E02D09959C01332723363105F9F6612F4D
:10040000CE010E94A90183E6DF91CF911F9108954B
:100410000F931F93CF93DF931F92CDB7DEB78C015D
:10042000662349F081E0F801858360E0C8014983D3
:100430000E94CA014981F80145830F90DF91CF9155
:100440001F910F9108951F920F920FB60F921124D2
:100450002F933F938F939F93AF93BF938091F4011A
:100460009091F501A091F601B091F7013091F3015F
:1004700023E0230F2D3720F40196A11DB11D05C0E7
:1004800026E8230F0296A11DB11D2093F30180934E
:10049000F4019093F501A093F601B093F7018091D8
:1004A000F8019091F901A091FA01B091FB01019638
:1004B000A11DB11D8093F8019093F901A093FA0159
:1004C000B093FB01BF91AF919F918F913F912F917D
:1004D0000F900FBE0F901F9018952FB7F894609152
:1004E000F4017091F5018091F6019091F7012FBF11
:1004F00008953FB7F8948091F8019091F901A09187
:10050000FA01B091FB0126B5A89B05C02F3F19F059
:100510000196A11DB11D3FBF6627782F892F9A2F05
:10052000620F711D811D911D42E0660F771F881FAC
:10053000991F4A95D1F708958F929F92AF92BF92DB
:10054000CF92DF92EF92FF926B017C010E947902C1
:100550004B015C01C114D104E104F104F1F00E94EB
:100560000D070E947902681979098A099B09683E7A
:1005700073408105910570F321E0C21AD108E108AA
:10058000F10888EE880E83E0981EA11CB11CC114EE
:10059000D104E104F10429F7DDCFFF90EF90DF9063
:1005A000CF90BF90AF909F908F900895789484B52E
:1005B000826084BD84B5816084BD85B5826085BD5F
:1005C00085B5816085BDEEE6F0E080818160808345
:1005D000E1E8F0E010828081826080838081816028
:1005E0008083E0E8F0E0808181608083E1EBF0E0EF
:1005F000808184608083E0EBF0E080818160808393
:10060000EAE7F0E08081846080838081826080837B
:100610008081816080838081806880831092C100A6
:1006200008958E3008F08E5087702091000190E47C
:10063000299F90011124822B80937C0080917A0065
:10064000806480937A0080917A0086FDFCCF80914F
:1006500078002091790090E0922B0895FC01818D23
:10066000228D90E0805C9F4F821B91098F739927A8
:100670000895FC01918D828D981731F0828DE80FDD
:10068000F11D858D90E008958FEF9FEF0895FC0197
:10069000918D828D981761F0828DDF01A80FB11DB9
:1006A0005D968C91928D9F5F9F73928F90E00895DD
:1006B0008FEF9FEF08958BEC94E0892B49F080E059
:1006C00090E0892B29F00E94CB0481110C9400004A
:1006D0000895FC01848DDF01A80FB11DA35ABF4FFF
:1006E0002C91848D90E001968F739927848FA68931
:1006F000B7892C93A089B1898C9180648C93938D58
:10070000848D981306C00288F389E02D80818F7D47
:1007100080830895CF93DF93EC01888D8823C9F0FF
:10072000EA89FB89808185FD05C0A889B9898C91FA
:1007300086FD0FC00FB607FCF5CF808185FFF2CF95
:10074000A889B9898C9185FFEDCFCE010E946903FC
:10075000E7CFDF91CF910895CF92DF92FF920F9371
:100760001F93CF93DF931F92CDB7DEB76C0181E06B
:10077000D60158968C9358975B969C915B975C96A4
:100780008C915C97981307C05096ED91FC9151970E
:10079000808185FD2EC0F601038D10E00F5F1F4F95
:1007A0000F731127F02EF601848DF81211C00FB6C9
:1007B00007FCF9CFD6015096ED91FC9151978081BD
:1007C00085FFF1CFC60169830E9469036981EBCF80
:1007D000838DE80FF11DE35AFF4F6083D6015B96CE
:1007E0000C935B975296ED91FC91539780818062B8
:1007F0000CC0D6015696ED91FC91579760835096A8
:10080000ED91FC91519780818064808381E090E03C
:100810000F90DF91CF911F910F91FF90DF90CF90BC
:100820000895BF92CF92DF92EF92FF92CF93DF9322
:10083000EC016A017B01B22EE889F98982E08083AC
:10084000411581EE580761057105A1F060E079E07E
:100850008DE390E0A70196010E942D0921503109F6
:10086000410951095695479537952795211580E1FE
:10087000380798F0E889F989108260E874E88EE119
:1008800090E0A70196010E942D09215031094109EC
:1008900051095695479537952795EC85FD85308309
:1008A000EE85FF852083188EEC89FD89B082EA8968
:1008B000FB89808180618083EA89FB8980818860EF
:1008C0008083EA89FB89808180688083EA89FB894B
:1008D00080818F7D8083DF91CF91FF90EF90DF90BB
:1008E000CF90BF9008951F920F920FB60F921124D0
:1008F0002F938F939F93EF93FF93E0910C02F091CE
:100900000D028081E0911202F091130282FD12C06B
:100910009081809115028F5F8F732091160282174C
:1009200051F0E0911502F0E0E450FE4F958F809376
:10093000150201C08081FF91EF919F918F912F91BE
:100940000F900FBE0F901F9018951F920F920FB629
:100950000F9211242F933F934F935F936F937F9345
:100960008F939F93AF93BF93EF93FF938CEF91E09F
:100970000E946903FF91EF91BF91AF919F918F9179
:100980007F916F915F914F913F912F910F900FBE8B
:100990000F901F9018958CEF91E00E942E0321E09C
:1009A000892B09F420E0822F08951092FF01109204
:1009B000FE0188EE93E0A0E0B0E080930002909307
:1009C0000102A0930202B093030283E991E09093A5
:1009D000FD018093FC0185EC90E0909309028093E7
:1009E000080284EC90E090930B0280930A0280EC62
:1009F00090E090930D0280930C0281EC90E0909334
:100A00000F0280930E0282EC90E09093110280938B
:100A1000100286EC90E090931302809312021092E1
:100A200015021092160210921702109218020895E1
:100A300008950E94D6020E9418050E945F00CBE52F
:100A4000D3E00E9492002097E1F30E945B03F9CF6C
:100A5000CF92DF92EF92FF920F931F93CF93DF938A
:100A60007C016A01EB0100E010E00C151D0571F03E
:100A70006991D701ED91FC910190F081E02DC701C2
:100A80000995892B19F00F5F1F4FEFCFC801DF9138
:100A9000CF911F910F91FF90EF90DF90CF9008952D
:100AA0006115710581F0DB010D900020E9F7AD01C2
:100AB00041505109461B570BDC01ED91FC9102801E
:100AC000F381E02D099480E090E008950C945005A6
:100AD000DC01ED91FC910190F081E02D099464E43A
:100AE00071E00C9450058F929F92AF92BF92DF926B
:100AF000EF92FF920F931F93CF93DF93CDB7DEB7A3
:100B0000A1970FB6F894DEBF0FBECDBF7C01F42FC6
:100B1000D52ECB0119A2223008F42AE08E010F5DF8
:100B20001F4F822E912CA12CB12C6F2F7D2DA50152
:100B300094010E942D09F22FD32ECA0101501109F0
:100B40006A3014F4E0E301C0E7E3E60FD801EC9368
:100B5000232B242B252B49F7B801C7010E945005F0
:100B6000A1960FB6F894DEBF0FBECDBFDF91CF9137
:100B70001F910F91FF90EF90DF90BF90AF909F90EB
:100B80008F900895CF92DF92EF92FF920F931F9371
:100B9000CF93DF93EC016A017B012115310579F4D4
:100BA000E881F9810190F081E02D642FDF91CF91F0
:100BB0001F910F91FF90EF90DF90CF9009942A3012
:100BC0003105E9F477FF1AC06DE20E9468058C01D7
:100BD00044275527BA014C195D096E097F092AE09F
:100BE000CE010E947305800F911FDF91CF911F915D
:100BF0000F91FF90EF90DF90CF9008952AE0B7011A
:100C0000A601CE01DF91CF911F910F91FF90EF9040
:100C1000DF90CF900C9473052115310541F4DC0170
:100C2000ED91FC910190F081E02D642F09940C94DA
:100C300073059A01462F50E060E070E00C940C06BA
:100C40004F925F926F927F928F929F92AF92BF92DC
:100C5000CF92DF92EF92FF920F931F93CF93DF9388
:100C6000EC016A017B01B22E9A01AB01C701B6010A
:100C70000E942909882319F06FE971E027C0260135
:100C80003701E89477F82FEF3FEF4FE75FE7C301B5
:100C9000B2010E94290981110DC02FEF3FEF4FE7EC
:100CA0005FE7C301B2010E94730718161CF463EAE0
:100CB00071E00CC02FEF3FEF4FE75FE4C701B601D3
:100CC0000E94C2081816ACF467EA71E0CE01DF9109
:100CD000CF911F910F91FF90EF90DF90CF90BF9039
:100CE000AF909F908F907F906F905F904F900C94FB
:100CF00050052FEF3FEF4FE75FECC701B6010E94B1
:100D0000730787FDE1CF20E030E0A901C701B601FC
:100D10000E94730787FF0AC06DE2CE010E9468053A
:100D20008C01F7FAF094F7F8F09402C000E010E0BC
:100D3000A12C60E070E080E09FE3AB1441F020E084
:100D400030E040E251E40E947707A394F6CF9B0184
:100D5000AC01C701B6010E940F076B017C010E9424
:100D6000E4072B013C010E9410089B01AC01C70164
:100D7000B6010E940E076B017C012AE0B301A201BB
:100D8000CE010E947305080F191FBB2039F06BEAD2
:100D900071E0CE010E945005080F191F7B2C7720AF
:100DA00041F120E030E040E251E4C701B6010E9489
:100DB000C6086B017C010E94DF074B01AA2497FC47
:100DC000A094BA2C2AE030E0B501A401CE010E9423
:100DD000C205080F191FC501B4010E9412089B012A
:100DE000AC01C701B6010E940E076B017C017A9429
:100DF000D6CFC801DF91CF911F910F91FF90EF9057
:100E0000DF90CF90BF90AF909F908F907F906F902A
:100E10005F904F9008950C94200608955058BB277A
:100E2000AA270ED075C166D130F06BD120F031F415
:100E30009F3F11F41EF45BC10EF4E095E7FB51C136
:100E4000E92F77D180F3BA176207730784079507F4
:100E500018F071F49EF58FC10EF4E0950B2EBA2FA9
:100E6000A02D0B01B90190010C01CA01A0011124B0
:100E7000FF27591B99F0593F50F4503E68F11A165C
:100E8000F040A22F232F342F4427585FF3CF4695ED
:100E900037952795A795F0405395C9F77EF41F160F
:100EA000BA0B620B730B840BBAF09150A1F0FF0FD9
:100EB000BB1F661F771F881FC2F70EC0BA0F621FC5
:100EC000731F841F48F4879577956795B795F795B5
:100ED0009E3F08F0B3CF9395880F08F09927EE0F47
:100EE000979587950895D9D008F481E008950CD09E
:100EF0000FC107D140F0FED030F021F45F3F19F070
:100F0000F0C0511139C1F3C014D198F39923C9F33A
:100F10005523B1F3951B550BBB27AA2762177307FF
:100F2000840738F09F5F5F4F220F331F441FAA1FB3
:100F3000A9F333D00E2E3AF0E0E830D09150504073
:100F4000E695001CCAF729D0FE2F27D0660F771F21
:100F5000881FBB1F261737074807AB07B0E809F003
:100F6000BB0B802DBF01FF2793585F4F2AF09E3F98
:100F7000510568F0B6C000C15F3FECF3983EDCF36A
:100F8000869577956795B795F7959F5FC9F7880F11
:100F9000911D9695879597F90895E1E0660F771F63
:100FA000881FBB1F621773078407BA0720F0621BF4
:100FB000730B840BBA0BEE1F88F7E095089504D0ED
:100FC0006894B111D9C00895BCD088F09F5790F0B3
:100FD000B92F9927B751A0F0D1F0660F771F881F5E
:100FE000991F1AF0BA95C9F712C0B13081F0C3D079
:100FF000B1E00895C0C0672F782F8827B85F39F017
:10100000B93FCCF3869577956795B395D9F73EF4BC
:1010100090958095709561957F4F8F4F9F4F089564
:10102000E89409C097FB3EF4909580957095619582
:101030007F4F8F4F9F4F9923A9F0F92F96E9BB2738
:101040009395F695879577956795B795F111F8CFB4
:10105000FAF4BB0F11F460FF1BC06F5F7F4F8F4F1F
:101060009F4F16C0882311F096E911C0772321F015
:101070009EE8872F762F05C0662371F096E8862FAD
:1010800070E060E02AF09A95660F771F881FDAF704
:10109000880F9695879597F90895990F0008550F31
:1010A000AA0BE0E8FEEF16161706E807F907C0F0EE
:1010B00012161306E407F50798F0621B730B840BF6
:1010C000950B39F40A2661F0232B242B252B21F4D0
:1010D00008950A2609F4A140A6958FEF811D811D70
:1010E000089597F99F6780E870E060E008959FEFAA
:1010F00080EC089500240A941616170618060906AF
:10110000089500240A94121613061406050608957D
:10111000092E0394000C11F4882352F0BB0F40F405
:10112000BF2B11F460FF04C06F5F7F4F8F4F9F4F45
:10113000089557FD9058440F551F59F05F3F71F0C7
:101140004795880F97FB991F61F09F3F79F087952E
:101150000895121613061406551FF2CF4695F1DFB7
:1011600008C0161617061806991FF1CF8695710547
:10117000610508940895E894BB2766277727CB017B
:1011800097F908958ADF08F48FEF08950BD0C0CF48
:10119000B1DF28F0B6DF18F0952309F0A2CFA7CF72
:1011A0001124EACFC6DFA0F3959FD1F3950F50E04D
:1011B000551F629FF001729FBB27F00DB11D639F09
:1011C000AA27F00DB11DAA1F649F6627B00DA11DAF
:1011D000661F829F2227B00DA11D621F739FB00D55
:1011E000A11D621F839FA00D611D221F749F3327C5
:1011F000A00D611D231F849F600D211D822F762F5E
:101200006A2F11249F5750408AF0E1F088234AF05A
:10121000EE0FFF1FBB1F661F771F881F91505040A6
:10122000A9F79E3F510570F05CCFA6CF5F3FECF36E
:10123000983EDCF3869577956795B795F795E79592
:101240009F5FC1F7FE2B880F911D9695879597F9A3
:10125000089523DF880B990B0895A1E21A2EAA1B8B
:10126000BB1BFD010DC0AA1FBB1FEE1FFF1FA21756
:10127000B307E407F50720F0A21BB30BE40BF50B53
:10128000661F771F881F991F1A9469F760957095DC
:10129000809590959B01AC01BD01CF010895EE0FA3
:0E12A000FF1F0590F491E02D0994F894FFCF04
:1012AE0001564D4450565F317C315F564D44505679
:1012BE000D0A00564D4450455F31007C005F564D7F
:1012CE004450450D0A0054656D70657261747572F7
:1012DE00653D2000204300564D4450435F005F564D
:1012EE004D4450430D0A004572726F723A2041749C
:1012FE0074656D707420746F207365742061207234
:10130E006561642D6F6E6C79207661726961626CB5
:10131E0065206F7220646174612074797065206E2F
:10132E006F7420737570706F727465640D0A0000AF
:10133E00000000AC0328052E03470339038A036E11
:0E134E00616E00696E66006F7666002E00000C
:00000001FF
