:100000000C9464000C948C000C948C000C948C0068
:100010000C948C000C948C000C948C000C948C0030
:100020000C948C000C948C000C948C000C948C0020
:100030000C948C000C948C000C948C000C948C0010
:100040000C942F0B0C948C000C94330E0C94650EB6
:100050000C948C000C948C000C948C000C948C00F0
:100060000C9422040C948C00000000080002010093
:100070000003040700000000000000000102040863
:100080001020408001020408102001020408102002
:10009000040404040404040402020202020203032E
:1000A00003030303000000002300260029000000D2
:1000B0000000250028002B0000000000240027007D
:1000C0002A0019028003950E11241FBECFEFD8E03D
:1000D000DEBFCDBF11E0A0E0B1E0E8EAF2E202C08D
:1000E00005900D92AE3CB107D9F723E0AEECB1E03C
:1000F00001C01D92AB36B207E1F710E0C8ECD0E0CA
:1001000004C02297FE010E944911C23CD107C9F7E1
:100110000E94D90E0C9452110C940000CF92DF92E1
:10012000EF92FF920F931F93E82FF92F05C0015014
:1001300011092109310961F1908196239417B9F3CE
:1001400005C0015011092109310911F1908196234F
:100150009413F7CFC12CD12CE12CF12C0AC08FEFD6
:10016000C81AD80AE80AF80A0C151D052E053F051D
:1001700079F080818623841791F36C2D7D2D8E2D4F
:100180009F2D1F910F91FF90EF90DF90CF900895DA
:1001900060E070E080E090E01F910F91FF90EF90A1
:1001A000DF90CF900895FF920F931F93CF93DF932B
:1001B0008C01C2E3D0E041E0B80180EF91E00E9401
:1001C000DB09F82E219749F4811109C060E071E044
:1001D0008EEC92E00E94330F02C0882361F38F2DD2
:1001E000DF91CF911F910F91FF900895CF92DF92F1
:1001F000EF92FF920E94790BC090D201D090D30170
:10020000E090D401F090D5019B01AC012C193D097F
:100210004E095F0969017A013AE0C316D104E1048D
:10022000F10408F401C16093D2017093D30180936B
:10023000D4019093D501109201021092000281E046
:1002400090E0909303028093020260E084E00E94B9
:100250008A0C82E090E00E94E20B61E084E00E9460
:100260008A0C8AE090E00E94E20B60E084E00E9449
:100270008A0C20E432E44FE050E061E083E00E9429
:10028000C00C22E030E040E050E00E942811CA019A
:10029000B9010E947A102DEC3CEC48EE51E40E942A
:1002A000DF0F0E9447106B017C01DC01CB0101973D
:1002B000A109B1098F389140A105B105E0F041E0F5
:1002C00060E087ED91E00E94170663E371E087ED3F
:1002D00091E00E94260F41E06AE087ED91E00E94E4
:1002E00017066DE371E087ED91E0FF90EF90DF90EE
:1002F000CF900C94260F41E060E087ED91E00E94E2
:10030000170663E371E087ED91E00E94260F41E05C
:100310006BE087ED91E00E94170664E471E087EDE1
:1003200091E00E94260F41E06AE087ED91E00E9493
:1003300017062AE030E0B701A60187ED91E00E94A0
:10034000940F41E06EE087ED91E00E94170668E4AB
:1003500071E087ED91E00E94260F51E4C516D104AB
:10036000E104F1040CF060C08091D60181112FC02E
:100370006AE070E080E090E00E94A80B0E94790B98
:10038000C090CE01D090CF01E090D001F090D1018B
:100390009B01AC012C193D094E095F0969017A01E5
:1003A00030EDC31637E0D306E104F104E8F16093C1
:1003B000CE017093CF018093D0019093D10182E060
:1003C00092E00E94D30081E08093D6012DC06AE0C4
:1003D00070E080E090E00E94A80B0E94790BC09032
:1003E000CE01D090CF01E090D001F090D1019B01DF
:1003F000AC012C193D094E095F0969017A0130ED04
:10040000C31637E0D306E104F10470F06093CE0127
:100410007093CF018093D0019093D10180E092E05E
:100420000E94D3001092D601FF90EF90DF90CF9002
:1004300008958F92AF92CF92EF920F934AE069E0C6
:1004400080EF91E00E944A091F921F9283E08F93F0
:1004500037E0832E46E0A42E55E0C52E64E0E62E5C
:1004600000E021E042E067E287ED91E00E9465074D
:100470000F900F900F900F91EF90CF90AF908F90C3
:1004800008950F931F93CF93DF9326E040E855E242
:1004900060E070E08EEC92E00E94D10D20E042E03E
:1004A00060E187ED91E00E94F30740E060E087EDB6
:1004B00091E00E9417066BE471E087ED91E00E94E5
:1004C000260F41E060E087ED91E00E94170667E5A6
:1004D00071E087ED91E00E94260F80EF91E00E948D
:1004E000DF0A01EE10EF20EF38EE48EE50E060E05A
:1004F00070E080EF91E00E942C0AC3E0D0E087ED2D
:1005000091E00E94F8056AEF70E080E090E00E94C0
:10051000A80B87ED91E00E9400066AEF70E080E092
:1005200090E00E94A80B219751F787ED91E00E947F
:10053000F80580E092E00E94D30064E671E08EEC62
:1005400092E00E94330F61E084E00E94510C60E071
:1005500083E00E94510C40E061E087ED91E00E9451
:10056000170687ED91E00E94100668EE73E080E0C8
:1005700090E0DF91CF911F910F910C94A80B809187
:10058000340290E020913502821B91090895209158
:10059000350280913402281750F4E22FF0E0EA5C33
:1005A000FD4F808190E02F5F2093350208958FEFFB
:1005B0009FEF0895E091350280913402E81730F4FE
:1005C000F0E0EA5CFD4F808190E008958FEF9FEFAF
:1005D00008950895CF92DF92EF92FF920F931F93A9
:1005E000CF93DF937C01CB018A012091100222235B
:1005F00089F0EB016B01C40ED51ECC15DD0569F049
:100600006991D701ED91FC910190F081E02DC70136
:100610000995F3CF642F0E94F903C801DF91CF91B0
:100620001F910F91FF90EF90DF90CF900895CF939F
:10063000DF931F92CDB7DEB769832091100222238A
:10064000D1F020911102203240F021E030E0FC0195
:100650003383228380E090E015C080911202E82F5E
:10066000F0E0ED5EFD4F998190838F5F80931202E1
:100670008093110205C061E0CE0101960E94F9034A
:1006800081E090E00F90DF91CF910895FC011382FB
:10069000128248EE53E060E070E044835583668345
:1006A000778383E891E091838083089510923502E7
:1006B0001092340210921202109211020C948403D0
:1006C00081E0809310026093330210921202109224
:1006D000110208950F93062F21E04091110263E16A
:1006E00072E0809133020E94A203109212021092D3
:1006F0001102109210020F91089561E00C946A03A8
:1007000084E092E00C9446031092C30281E080934F
:10071000C1021092C00261E082E10E948A0C61E095
:1007200083E10E948A0CE9EBF0E080818E7F808378
:1007300080818D7F808388E48093B80085E48093F6
:10074000BC0008950F93413208F04AC09091C30253
:100750009111FCCF92E09093C3020093C1029FEFEE
:100760009093560210929B0240939A02FB016CE90F
:1007700072E0DB019A2F961B941718F491919D93C8
:10078000F9CF1092C2029091C202880F892B8093F8
:10079000C2028091C002813061F41092C002809147
:1007A000C2028093BB008091BC0083FDF8CF85EC32
:1007B00001C085EE8093BC00222321F08091C3020A
:1007C0008230E1F3809156028F3F61F080915602B2
:1007D000803251F080915602803341F483E007C0AB
:1007E00081E005C080E003C082E001C084E00F9199
:1007F0000895613298F42091C302243089F4609303
:100800007802FC018AE792E0DC012A2F281B2617D8
:1008100018F421912D93F9CF80E0089581E0089597
:1008200082E0089585ED8093BC008091BC0084FD3A
:10083000FCCF1092C302089585EC8093BC00109207
:10084000C30208951F920F920FB60F9211242F9397
:100850003F934F935F936F937F938F939F93AF9348
:10086000BF93EF93FF938091B900887F803609F49E
:100870009EC078F5883209F45DC090F4803109F4A7
:1008800056C038F4882309F4F5C0883009F44FC005
:10089000F5C0883109F44EC0803209F45FC0EEC063
:1008A000803409F46AC058F4803309F457C088339F
:1008B00009F0E4C0809356020E941C04DFC080351A
:1008C00009F44FC0883509F45DC0883409F0D6C0FA
:1008D000D3C0883909F4C4C0A8F4883709F467C0C4
:1008E00038F4883609F463C0803709F460C0C6C0A4
:1008F000883809F4B5C0803909F45FC0803809F040
:10090000BDC05BC0803B09F483C038F4803A09F471
:1009100066C0883A09F47CC0B1C0803C09F4A4C028
:10092000883C09F4A1C0883B09F487C0A7C0809126
:10093000C20210C090919B0280919A02981770F5A4
:10094000E0919B0281E08E0F80939B02F0E0E456E1
:10095000FD4F80818093BB0085EC83C0809356025D
:100960008BC0E0919B0281E08E0F80939B0280916F
:10097000BB00F0E0E456FD4F808390919B02809194
:100980009A026BC0E0919B0281E08E0F80939B02E4
:100990008091BB00F0E0E456FD4F80838091C1025E
:1009A00081116AC081E08093C00284EA5EC083E066
:1009B0008093C30210925702CFCF809157028032AA
:1009C00008F04EC0E091570281E08E0F80935702ED
:1009D0008091BB00F0E0E85AFD4F8083BDCF0E94BC
:1009E0001C0480915702803230F4E0915702F0E00D
:1009F000E85AFD4F10826091570270E0E091BC020E
:100A0000F091BD0288E592E009951092570236C038
:100A100084E08093C3021092790210927802E091F0
:100A2000BE02F091BF02099580917802811105C044
:100A300081E08093780210927A02E091790281E05D
:100A40008E0F80937902F0E0E658FD4F808180930D
:100A5000BB009091790280917802981708F47CCFBE
:100A600085E88093BC000AC085EC8093BC0010929E
:100A7000C30204C0109256020E941204FF91EF912B
:100A8000BF91AF919F918F917F916F915F914F91A6
:100A90003F912F910F900FBE0F901F901895CF93FD
:100AA000CFB7F8948091C402811127C0EAE9F0E041
:100AB0008491E6E8F0E09491E82FF0E0EE0FFF1F5C
:100AC000E854FF4FA591B4918C91892321F461E002
:100AD0008AE00E948A0C61E08AE00E94510C8CB589
:100AE00080618CBD8CB580648CBD61E08DE00E941E
:100AF000510C61E08BE00E94510C8091C4028F5F29
:100B00008093C402CFBFCF910895FC0112828FEF72
:100B10008183108213820895FC018381882331F040
:100B2000611103C08FEF818308951182089584E0DD
:100B300092E00E94600384E092E00E947D0391E0D5
:100B4000811190E0892F0895CF93DF93EC016A83A0
:100B500084E092E00E9456036A81CE010E949705CC
:100B60008B83882329F084E092E00E94C702888367
:100B70008B8190E0DF91CF910895CF93DF93EC01CB
:100B80008B818823A9F089818095862388836A8157
:100B900084E092E00E946003688184E092E00E9419
:100BA000170384E092E00E947D03282F30E002C00A
:100BB00020E030E081E090E0232B11F080E090E035
:100BC000DF91CF91089508950895DC01ED91FC9196
:100BD0000284F385E02D41E0099581E090E00895DD
:100BE000FC011382128223E931E0318320830895CE
:100BF000DC01ED91FC910084F185E02D6FEF09940B
:100C0000DC01ED91FC910084F185E02D60E0099418
:100C1000DC01ED91FC910284F385E02D40E0099424
:100C200061E00E94080680ED97E00C94E20BCF9300
:100C3000DF93CDB7DEB728970FB6F894DEBF0FBEAF
:100C4000CDBF1D8220E42E8334E13F8334E5388715
:100C500019822A8320E12B8320E52C83FC01278144
:100C6000421710F04FEF420FFC01308550E0FE01BB
:100C7000E40FF51F303121F4243011F4218101C03B
:100C80002581260F2068622F28960FB6F894DEBFC4
:100C90000FBECDBFDF91CF910C940806FC0165819A
:100CA000262F246025836C600C940806CF93DF9375
:100CB000EC01423018F08C8188608C834F83688708
:100CC000222329F0413019F48C8184608C8364E6FE
:100CD00070E080E090E00E94A80B6C8164FD31C060
:100CE000E881F9810284F385E02D42E063E0CE01E2
:100CF000099584E991E10E94E20BE881F98102847F
:100D0000F385E02D42E063E0CE01099586E990E0AD
:100D10000E94E20BE881F9810284F385E02D42E034
:100D200063E0CE01099586E990E00E94E20BE8813C
:100D3000F9810284F385E02D42E062E0CE0109955D
:100D400016C06062CE010E94080684E991E10E940B
:100D5000E20B6C816062CE010E94080686E990E099
:100D60000E94E20B6C816062CE010E94080686E957
:100D700090E00E94E20B6C816062CE010E94080646
:100D80008CE390E00E94E20B84E08D83CE010E9410
:100D90004E06CE010E94100682E08E8366E0CE01F0
:100DA0000E940806CE01DF91CF910C94F80521E056
:100DB00001C0220F6A95EAF7DC011C962C931C9760
:100DC0001A965C934E931997ED91FC910084F185EE
:100DD000E02D60E00994FC012485222399F08185AF
:100DE0009285009719F4611105C006C0019721F49E
:100DF000611102C0258701C015866585CF010E9659
:100E00000C94BD0508950F931F93CF93DF93EC01CE
:100E10008C01025F1F4F6B85C8010E94A4050197DA
:100E200061F461E0C8010E948C051C8260E0C80189
:100E30000E94BD0581E090E002C080E090E0DF917B
:100E4000CF911F910F9108958F92AF92CF92EF9211
:100E50000F93CF93DF93CDB7DEB7FC016387148682
:100E600015861286118681E0982F01C0990F4A9548
:100E7000EAF7928B982F01C0990F2A95EAF7938B86
:100E8000982F01C0990F0A95EAF7948B982F01C00B
:100E9000990FEA94EAF7958B982F01C0990FCA949D
:100EA000EAF7968B982F01C0990FAA94EAF7978BCF
:100EB00001C0880F8A94EAF7808FDF91CF910F915C
:100EC000EF90CF90AF908F9008954F925F926F9276
:100ED0007F928F92AF92CF92EF920F931F93CF9307
:100EE000DF9300D01F92CDB7DEB73C011A894B8843
:100EF0005C882B834A8369830E94F00583EA91E032
:100F0000F30191838083C3010E960E9485052B8196
:100F10004A816981C3010E942407A201612FC30194
:100F20000F900F900F90DF91CF911F910F91EF9045
:100F3000CF90AF908F907F906F905F904F900C9478
:100F4000D706FF920F931F93CF93DF93EC01F62EFA
:100F50008C01025F1F4F6A896F29C8010E94BD057D
:100F60006A8960956F21C801DF91CF911F910F9120
:100F7000FF900C94BD0520E030E050E060FF05C01C
:100F8000FC01E20FF31F7589572B66952F5F3F4FCA
:100F90002430310599F7413011F4FC014489FC01FA
:100FA0006585652B642B0C94A1070F931F93CF933A
:100FB000DF93EC01142F062F0F70423011F440E044
:100FC0000AC070E084E0759567958A95E1F7CE01D7
:100FD0000E94BB07412F602FCE01DF91CF911F915F
:100FE0000F910C94BB070F931F93CF93DF9300D007
:100FF0001F92CDB7DEB78C012B834A8369830E9491
:1010000003072B814A816981C8010F900F900F90CF
:10101000DF91CF911F910F910C9456068EBD000069
:101020000DB407FEFDCF8EB508952CB52F7D2CBDD8
:101030002CB5237F2CBD2CB52C7F2CBD2DB52E7F40
:101040002DBDFC0181810C948A0CFC0180810C94E3
:101050008A0CCF92DF92EF92FF920F931F93CF9360
:10106000DF9300D0CDB7DEB78C01E62EF22E60E024
:1010700070E049835A830E9415088E2D8F710E945B
:101080000E08E82E4981C42E5A81D52EF40EFC1488
:1010900039F08FEF0E940E08F60181936F01F7CFB0
:1010A00061E070E0C8010E9415088E2D0F900F902E
:1010B000DF91CF911F910F91FF90EF90DF90CF9034
:1010C00008951F93CF93DF93EC01162F60E070E03B
:1010D0000E941508812F8F710E940E088FEF0E94C9
:1010E0000E08182F61E070E0CE010E941508812FD4
:1010F000DF91CF911F910895CF92DF92EF92FF92EF
:101100000F931F93CF93DF9300D0CDB7DEB78C0141
:10111000E62EF22E60E070E049835A830E941508A3
:101120008E2D8F7180620E940E08E82E4981C42E98
:101130005A81D52EF40EFC1431F0F60181916F0125
:101140000E940E08F8CF61E070E0C8010E94150807
:101150008E2D0F900F90DF91CF911F910F91FF90E7
:10116000EF90DF90CF900895EF92FF921F93CF936F
:10117000DF931F92CDB7DEB77C01162F60E070E0E1
:1011800049830E941508812F8F7180620E940E088A
:10119000182F4981842F0E940E0861E070E0C7017A
:1011A0000E941508812F0F90DF91CF911F91FF9022
:1011B000EF900895BF92CF92DF92EF92FF920F933C
:1011C0001F93CF93DF938C01D62EB72EFC01C481E1
:1011D000F42EC41708F4FC2EF8018681811103C097
:1011E000EC2EEF1801C0E12C60E070E0C8010E9415
:1011F000150880EA0E940E08C82ECD2DDB2DFD0CAF
:10120000FC1621F089910E940E08FACFCE2DCC2336
:1012100029F080E00E940E08C150F9CF61E070E033
:10122000C8010E9415088C2DDF91CF911F910F915D
:10123000FF90EF90DF90CF90BF9008951F93CF93D2
:10124000DF93EC0160E070E00E94150882EE0E94DE
:101250000E08182F61E070E0CE010E941508812F62
:10126000DF91CF911F9108951F93CF93DF93EC01EE
:1012700060E070E00E94150881EE0E940E08182FB1
:1012800061E070E0CE010E941508812FDF91CF91BF
:101290001F910895FC016083418381E08283138262
:1012A00080E2848315821682108611861286138648
:1012B00014861586168617860895462F603808F01E
:1012C0004FE765E00C94B408CF93DF93EC0160E046
:1012D0000E946108482F4D7F60E0CE01DF91CF91E1
:1012E0000C94B408FF920F931F93CF93DF93EC01FC
:1012F0008B01F42E60E00E946108482F4C7F426011
:1013000060E0CE010E94B40886E990E00E94E20B02
:101310004F2DB801CE010E94DA0861E070E0CE01E5
:101320000E9425088FE090E00E94E20B60E070E0F0
:10133000CE01DF91CF911F910F91FF900C94250862
:101340001F93CF93DF93EC0160E070E00E941508DB
:1013500080E60E940E088FEF0E940E08182F61E0B1
:1013600070E0CE010E941508812FDF91CF911F916F
:101370000895EF92FF920F931F93CF93DF93EB01AA
:101380008A01790140E767E00E94B40885FB99274C
:1013900090F9988384FB992790F9F801908386FB54
:1013A000882780F9F7018083DF91CF911F910F91FA
:1013B000FF90EF900895CF92DF92EF92FF920F93FC
:1013C0001F93CF93DF9300D01F92CDB7DEB78C0170
:1013D0000E9472090E94790B6B017C0121E0AE0131
:1013E0004D5F5F4F68E0C8010E942908807359F47F
:1013F0000E94790B6C197D098E099F09643F714029
:101400008105910558F398012B5F3F4FAE014F5F67
:101410005F4FBE016E5F7F4FC8010E94B909FA801D
:10142000F8018581882329F0C8010E94A009F801EC
:101430008783C8010E946409C8010E9434098F2D66
:101440000F900F900F90DF91CF911F910F91FF9010
:10145000EF90DF90CF900895EF92FF920F931F933C
:10146000CF93DF93CDB7DEB728970FB6F894DEBFE2
:101470000FBECDBF7C0109831A832B833C834D8330
:101480005E836F83788725E0AE014F5F5F4F6AE030
:101490000E947C0825E0AE014F5F5F4F60E1C7010D
:1014A0000E947C08F7014481413208F040E261E18A
:1014B000C7010E94B40828960FB6F894DEBF0FBE8D
:1014C000CDBFDF91CF911F910F91FF90EF900895C5
:1014D0000F931F93CF93DF938C01EB0166E00E9483
:1014E0006108482F497FC330D10561F0C230D10572
:1014F00011F4446008C0C130D10511F4426003C04A
:10150000249709F4466066E0C801DF91CF911F91EE
:101510000F910C94B408EF92FF920F931F93CF9307
:10152000DF931F92CDB7DEB77C018B0166E00E948E
:101530006108F7011282282F277D0230110511F46E
:10154000206207C00130110521F481E0F701828398
:101550002860422F66E0C70129830E94B40866E034
:10156000C7010E9461082981821721F0F7011282C8
:1015700080E001C081E00F90DF91CF911F910F912A
:10158000FF90EF9008950F931F93CF93DF93EC019B
:101590008B0160E00E946108482F437F011511050F
:1015A00031F00130110511F4486001C04C6060E079
:1015B000CE01DF91CF911F910F910C94B408CF937E
:1015C000DF93EC0161E088810E94510C61E0898128
:1015D0000E94510C0E944F0560E070E0CE010E9415
:1015E000250861E070E0CE010E94150865E070E01A
:1015F00080E090E00E94A80B4FE464E0CE010E94DE
:10160000B40863E070E0CE010E94680A62E070E016
:10161000CE010E948B0A882311F081E08B8360E069
:1016200070E0CE010E948B0A62E070E0CE010E9461
:10163000C30A40E06CE1CE010E94B40840E767E0D5
:10164000CE010E94B4086CE4CE010E945D09CE0177
:101650000E941E09CE01DF91CF910C9434091F9294
:101660000F920FB60F9211242F933F938F939F9356
:10167000AF93BF938091C6029091C702A091C80218
:10168000B091C9023091C50223E0230F2D3720F419
:101690000196A11DB11D05C026E8230F0296A11DCC
:1016A000B11D2093C5028093C6029093C702A093F8
:1016B000C802B093C9028091CA029091CB02A09156
:1016C000CC02B091CD020196A11DB11D8093CA023A
:1016D0009093CB02A093CC02B093CD02BF91AF9177
:1016E0009F918F913F912F910F900FBE0F901F9060
:1016F00018952FB7F8946091C6027091C702809137
:10170000C8029091C9022FBF08953FB7F894809105
:10171000CA029091CB02A091CC02B091CD0226B525
:10172000A89B05C02F3F19F00196A11DB11D3FBF19
:101730006627782F892F9A2F620F711D811D911DA9
:1017400042E0660F771F881F991F4A95D1F70895C9
:101750008F929F92AF92BF92CF92DF92EF92FF92C1
:101760006B017C010E94850B4B015C01C114D1040B
:10177000E104F104F1F00E94DE0F0E94850B68196C
:1017800079098A099B09683E73408105910570F3C8
:1017900021E0C21AD108E108F10888EE880E83E042
:1017A000981EA11CB11CC114D104E104F10429F755
:1017B000DDCFFF90EF90DF90CF90BF90AF909F90E4
:1017C0008F9008958230910538F0880F991F880F07
:1017D000991F05970197F1F70895789484B5826071
:1017E00084BD84B5816084BD85B5826085BD85B5C5
:1017F000816085BDEEE6F0E0808181608083E1E874
:10180000F0E01082808182608083808181608083AB
:10181000E0E8F0E0808181608083E1EBF0E08081AE
:1018200084608083E0EBF0E0808181608083EAE780
:10183000F0E0808184608083808182608083808109
:10184000816080838081806880831092C1000895C8
:10185000833081F028F4813099F08230A1F008952E
:101860008730A9F08830B9F08430D1F480918000BD
:101870008F7D03C0809180008F77809380000895D2
:1018800084B58F7702C084B58F7D84BD0895809123
:10189000B0008F7703C08091B0008F7D8093B0003F
:1018A0000895CF93DF9390E0FC01E458FF4F24911B
:1018B000FC01E057FF4F8491882349F190E0880FA5
:1018C000991FFC01E854FF4FA591B49182559F4F99
:1018D000FC01C591D4919FB7611108C0F8948C9117
:1018E000209582238C93888182230AC0623051F430
:1018F000F8948C91322F309583238C938881822B9E
:10190000888304C0F8948C91822B8C939FBFDF91C5
:10191000CF9108950F931F93CF93DF931F92CDB76D
:10192000DEB7282F30E0F901E859FF4F8491F90123
:10193000E458FF4F1491F901E057FF4F0491002341
:10194000C9F0882321F069830E94280C6981E02F67
:10195000F0E0EE0FFF1FE255FF4FA591B4919FB746
:10196000F8948C91611103C01095812301C0812BE3
:101970008C939FBF0F90DF91CF911F910F9108958E
:101980000F931F93762F90E0FC01E458FF4F649172
:10199000FC01E057FF4FE4917111762FF0E0EE0F5C
:1019A000FF1FEC55FF4F8591949189019A013F707B
:1019B000472F0E948E00611571058105910531F058
:1019C0006F5F7F4F8F4F9F4F9F7003C060E070E04D
:1019D000CB011F910F9108950E944D11FC01818D43
:1019E000228D90E0805C9F4F821B91098F73992715
:1019F0000895FC01918D828D981731F0828DE80F4A
:101A0000F11D858D90E008958FEF9FEF0895FC0103
:101A1000918D828D981761F0828DDF01A80FB11D25
:101A20005D968C91928D9F5F9F73928F90E0089549
:101A30008FEF9FEF08958BE89EE0892B49F080E0BF
:101A400090E0892B29F00E948B0E81110C940000EC
:101A50000895FC01848DDF01A80FB11DA35ABF4F6B
:101A60002C91848D90E001968F739927848FA6899D
:101A7000B7892C93A089B1898C9180648C93938DC4
:101A8000848D981306C00288F389E02D80818F7DB4
:101A900080830895CF93DF93EC01888D8823C9F06C
:101AA000EA89FB89808185FD05C0A889B9898C9167
:101AB00086FD0FC00FB607FCF5CF808185FFF2CF02
:101AC000A889B9898C9185FFEDCFCE010E94290D9F
:101AD000E7CFDF91CF910895CF92DF92FF920F93DE
:101AE0001F93CF93DF931F92CDB7DEB76C0181E0D8
:101AF000D60158968C9358975B969C915B975C9611
:101B00008C915C97981307C05096ED91FC9151977A
:101B1000808185FD2EC0F601038D10E00F5F1F4F01
:101B20000F731127F02EF601848DF81211C00FB635
:101B300007FCF9CFD6015096ED91FC915197808129
:101B400085FFF1CFC60169830E94290D6981EBCF22
:101B5000838DE80FF11DE35AFF4F6083D6015B963A
:101B60000C935B975296ED91FC9153978081806224
:101B70000CC0D6015696ED91FC9157976083509614
:101B8000ED91FC91519780818064808381E090E0A9
:101B90000F90DF91CF911F910F91FF90DF90CF9029
:101BA0000895BF92CF92DF92EF92FF92CF93DF938F
:101BB000EC016A017B01B22EE889F98982E0808319
:101BC000411581EE580761057105A1F060E079E0EB
:101BD0008DE390E0A70196010E9406112150310982
:101BE000410951095695479537952795211580E16B
:101BF000380798F0E889F989108260E874E88EE186
:101C000090E0A70196010E94061121503109410977
:101C100051095695479537952795EC85FD85308375
:101C2000EE85FF852083188EEC89FD89B082EA89D4
:101C3000FB89808180618083EA89FB89808188605B
:101C40008083EA89FB89808180688083EA89FB89B7
:101C500080818F7D8083DF91CF91FF90EF90DF9027
:101C6000CF90BF9008951F920F920FB60F9211243C
:101C70002F938F939F93EF93FF93E091DE02F09168
:101C8000DF028081E091E402F091E50282FD12C062
:101C900090818091E7028F5F8F732091E802821715
:101CA00051F0E091E702F0E0E253FD4F958F809311
:101CB000E70201C08081FF91EF919F918F912F9159
:101CC0000F900FBE0F901F9018951F920F920FB696
:101CD0000F9211242F933F934F935F936F937F93B2
:101CE0008F939F93AF93BF93EF93FF938EEC92E00C
:101CF0000E94290DFF91EF91BF91AF919F918F911C
:101D00007F916F915F914F913F912F910F900FBEF7
:101D10000F901F9018958EEC92E00E94EE0C21E03F
:101D2000892B09F420E0822F08951092D10210929D
:101D3000D00288EE93E0A0E0B0E08093D2029093CE
:101D4000D302A093D402B093D50283EB91E0909399
:101D5000CF028093CE0285EC90E09093DB028093DB
:101D6000DA0284EC90E09093DD028093DC0280EC58
:101D700090E09093DF028093DE0281EC90E09093FC
:101D8000E1028093E00282EC90E09093E302809382
:101D9000E20286EC90E09093E5028093E4021092D8
:101DA000E7021092E8021092E9021092EA02089506
:101DB00008950E94ED0B0E94D80E0E944102CBE1D3
:101DC000DDE00E94F6002097E1F30E941B0DF9CFA1
:101DD000CF92DF92EF92FF920F931F93CF93DF93F7
:101DE0007C016A01EB0100E010E00C151D0571F0AB
:101DF0006991D701ED91FC910190F081E02DC7012F
:101E00000995892B19F00F5F1F4FEFCFC801DF91A4
:101E1000CF911F910F91FF90EF90DF90CF90089599
:101E20006115710581F0DB010D900020E9F7AD012E
:101E300041505109461B570BDC01ED91FC9102808A
:101E4000F381E02D099480E090E008950C94100F48
:101E5000DC01ED91FC910190F081E02D09946FEB94
:101E600071E00C94100F0F931F93CF93DF93EC014D
:101E70000E94100F8C01CE010E942F0F800F911F26
:101E8000DF91CF911F910F9108958F929F92AF9202
:101E9000BF92DF92EF92FF920F931F93CF93DF9346
:101EA000CDB7DEB7A1970FB6F894DEBF0FBECDBF9A
:101EB0007C01F42FD52ECB0119A2223008F42AE0A0
:101EC0008E010F5D1F4F822E912CA12CB12C6F2FF4
:101ED0007D2DA50194010E940611F22FD32ECA0177
:101EE000015011096A3014F4E0E301C0E7E3E60FA2
:101EF000D801EC93232B242B252B49F7B801C701DC
:101F00000E94100FA1960FB6F894DEBF0FBECDBF92
:101F1000DF91CF911F910F91FF90EF90DF90BF90D5
:101F2000AF909F908F900895CF92DF92EF92FF92A3
:101F30000F931F93CF93DF93EC016A017B0121156F
:101F4000310579F4E881F9810190F081E02D642F69
:101F5000DF91CF911F910F91FF90EF90DF90CF9085
:101F600009942A303105E9F477FF1AC06DE20E9426
:101F7000280F8C0144275527BA014C195D096E09B9
:101F80007F092AE0CE010E94450F800F911FDF914B
:101F9000CF911F910F91FF90EF90DF90CF90089518
:101FA0002AE0B701A601CE01DF91CF911F910F91D9
:101FB000FF90EF90DF90CF900C94450F08950CD0D8
:101FC000EBC0E3D040F0DAD030F021F45F3F19F0FD
:101FD000CCC0511115C1CFC0F0D098F39923C9F3EB
:101FE0005523B1F3951B550BBB27AA27621773071F
:101FF000840738F09F5F5F4F220F331F441FAA1FD3
:10200000A9F333D00E2E3AF0E0E830D09150504092
:10201000E695001CCAF729D0FE2F27D0660F771F40
:10202000881FBB1F261737074807AB07B0E809F022
:10203000BB0B802DBF01FF2793585F4F2AF09E3FB7
:10204000510568F092C0DCC05F3FECF3983EDCF3D2
:10205000869577956795B795F7959F5FC9F7880F30
:10206000911D9695879597F90895E1E0660F771F82
:10207000881FBB1F621773078407BA0720F0621B13
:10208000730B840BBA0BEE1F88F7E095089504D00C
:102090006894B111B5C0089598D088F09F5790F01A
:1020A000B92F9927B751A0F0D1F0660F771F881F7D
:1020B000991F1AF0BA95C9F712C0B13081F09FD0BC
:1020C000B1E008959CC0672F782F8827B85F39F05A
:1020D000B93FCCF3869577956795B395D9F73EF4DC
:1020E00090958095709561957F4F8F4F9F4F089584
:1020F000E89409C097FB3EF49095809570956195A2
:102100007F4F8F4F9F4F9923A9F0F92F96E9BB2757
:102110009395F695879577956795B795F111F8CFD3
:10212000FAF4BB0F11F460FF1BC06F5F7F4F8F4F3E
:102130009F4F16C0882311F096E911C0772321F034
:102140009EE8872F762F05C0662371F096E8862FCC
:1021500070E060E02AF09A95660F771F881FDAF723
:10216000880F9695879597F9089597F99F6780E866
:1021700070E060E008959FEF80EC089500240A94D9
:102180001616170618060906089500240A94121652
:102190001306140605060895092E0394000C11F485
:1021A000882352F0BB0F40F4BF2B11F460FF04C032
:1021B0006F5F7F4F8F4F9F4F089557FD9058440F8B
:1021C000551F59F05F3F71F04795880F97FB991F96
:1021D00061F09F3F79F08795089512161306140653
:1021E000551FF2CF4695F1DF08C0161617061806E0
:1021F000991FF1CF86957105610508940895E894BB
:10220000BB2766277727CB0197F90895A1E21A2EFD
:10221000AA1BBB1BFD010DC0AA1FBB1FEE1FFF1F8A
:10222000A217B307E407F50720F0A21BB30BE40BDA
:10223000F50B661F771F881F991F1A9469F7609521
:102240007095809590959B01AC01BD01CF010895DB
:10225000052E97FB1EF400940E943F1157FD07D0F6
:102260000E94061107FC03D04EF40C943F115095C8
:102270004095309521953F4F4F4F5F4F0895909572
:102280008095709561957F4F8F4F9F4F0895EE0F0A
:10229000FF1F0590F491E02D099481E090E0F894FF
:0822A0000C945211F894FFCFD9
:1022A8002A2A2A2A2A2A2A2A2A2A2A2A2A2A2A436D
:1022B8006F6E6E656374696F6E204661696C6564E4
:1022C8002A2A2A2A2A2A2A2A2A2A2A2A2A2A2A2A66
:1022D8002A2A004D657361666520203A004F75749F
:1022E8002021210020202000636D00417961726C5B
:1022F800616D616C617200596170696C69796F72A6
:102308002E2E2E00557967756C616D6120426173C0
:102318006C6174EFBFBD6C64EFBFBD2E2E2E000044
:102328000000001703EA02BF02C702DA02E902004E
:10233800000000E505E80E5606E305E405EC0C0090
:10234800000000E505E80EF307D706EB06D5070001
:102358000000006C0DE80EEE0C070DF90C4A0D0D8F
:0E2368000A006E616E00696E66006F76660098
:00000001FF
