:100000000C945D000C9485000C9485000C94850084
:100010000C9485000C9485000C9485000C9485004C
:100020000C9485000C9485000C9485000C94770347
:100030000C9485000C9485000C9485000C9485002C
:100040000C942D030C9485000C94FB020C94D502A7
:100050000C9485000C9485000C9485000C9485000C
:100060000C9485000C94850000000008000201003B
:100070000003040700000000000000000000000072
:10008000250028002B0000000000240027002A0083
:10009000040404040404040402020202020203032E
:1000A0000303030301020408102040800102040836
:1000B0001020010204081020380411241FBECFEFC5
:1000C000D8E0DEBFCDBF21E0ACE1B1E001C01D92C0
:1000D000AD3EB207E1F711E0A0E0B1E0E4E2FEE0FE
:1000E00002C005900D92AC31B107D9F710E0CDE513
:1000F000D0E004C02197FE010E94A206CC35D107B2
:10010000C9F70E9496040C9410070C9400008F927B
:100110009F92AF92BF92CF92DF92EF92FF92809127
:10012000EC0128E532E06901C81AD10887FDD394B3
:10013000CC0CDD1CCC0CDD1C0D2C000CEE08FF08DB
:100140008091EB0128E830E04901881A910887FD89
:100150009394880C991C880C991C092C000CAA08F3
:10016000BB088091EA018F3FC1F090E0FC01EE0FE7
:10017000FF1F8E0F9F1FFC01EB53FE4F2181328129
:1001800043E0220F331F4A95E1F754E03695279557
:100190005A95E1F72E5F3F4F02C020E030E02F5F1D
:1001A0003F4FC901330FAA0BBB0B9C01AD012819AE
:1001B00039094A095B09A4EBB0E00E94CC06A7010B
:1001C0009601281939094A095B090E94AD06C9013F
:1001D000FF90EF90DF90CF90BF90AF909F908F9067
:1001E0000895CF92DF92EF92FF920F931F93CF93D8
:1001F000DF936C017A018B01C0E0D0E0CE15DF0502
:1002000089F0D8016D918D01D601ED91FC9101909D
:10021000F081E02DC6010995892B11F47E0102C001
:100220002196ECCFC701DF91CF911F910F91FF90E5
:10023000EF90DF90CF900895FC01918D828D9817FB
:1002400061F0828DDF01A80FB11D5D968C91928DBA
:100250009F5F9F73928F90E008958FEF9FEF0895B7
:10026000FC01918D828D981731F0828DE80FF11D80
:10027000858D90E008958FEF9FEF0895FC01918D9B
:10028000228D892F90E0805C9F4F821B91098F7394
:100290009927089588E291E00E943E0121E0892B90
:1002A00009F420E0822F0895FC01848DDF01A80F5E
:1002B000B11DA35ABF4F2C91848D90E001968F738E
:1002C0009927848FA689B7892C93A089B1898C91AD
:1002D00080648C93938D848D981306C00288F38973
:1002E000E02D80818F7D80830895EF92FF920F93A0
:1002F0001F93CF93DF93EC0181E0888F9B8D8C8DD2
:10030000981305C0E889F989808185FD24C0F62EFF
:100310000B8D10E00F5F1F4F0F731127E02E8C8D98
:10032000E8120CC00FB607FCFACFE889F989808182
:1003300085FFF5CFCE010E945401F1CF8B8DFE01D8
:10034000E80FF11DE35AFF4FF0820B8FEA89FB891A
:100350008081806207C0EE89FF896083E889F9891E
:1003600080818064808381E090E0DF91CF911F9154
:100370000F91FF90EF900895CF93DF93EC01888D5C
:100380008823C9F0EA89FB89808185FD05C0A88999
:10039000B9898C9186FD0FC00FB607FCF5CF80811F
:1003A00085FFF2CFA889B9898C9185FFEDCFCE0169
:1003B0000E945401E7CFDF91CF91089580E090E053
:1003C000892B29F00E944A0181110C9400000895A4
:1003D00090E0FC01E859FF4F3491FC01EC55FF4FD0
:1003E0002491FC01E057FF4FE491EE2309F43BC058
:1003F000332339F1333091F038F43130A9F0323011
:1004000001F584B58F7D12C0373091F03830A1F0FE
:100410003430B9F4809180008F7D03C080918000DA
:100420008F77809380000DC084B58F7784BD09C01D
:100430008091B0008F7703C08091B0008F7D809352
:10044000B000F0E0EE0FFF1FE458FF4FA591B4910C
:100450008FB7F894EC91611103C020952E2301C051
:100460002E2B2C938FBF08953FB7F89480912201D3
:1004700090912301A0912401B091250126B5A89B5C
:1004800005C02F3F19F00196A11DB11D3FBFBA2F26
:10049000A92F982F8827820F911DA11DB11DBC0186
:1004A000CD0142E0660F771F881F991F4A95D1F74B
:1004B0000895009769F0FC0101900020E9F7319759
:1004C000AF01481B590BBC0188E291E00C94F1008C
:1004D00080E090E008958F929F92AF92BF920F9329
:1004E0001F93CF93DF93CDB7DEB7A1970FB6F894E4
:1004F000DEBF0FBECDBF19A2423008F44AE08E0124
:100500000F5D1F4F842E912CA12CB12CA5019401BD
:100510000E94DF06E62FB901CA0101501109EA3035
:1005200014F4E05D01C0E95CD801EC93232B242B8B
:10053000252B61F7C8010E945902A1960FB6F894C5
:10054000DEBF0FBECDBFDF91CF911F910F91BF9046
:10055000AF909F908F900895CF92DF92EF92FF928D
:10056000CF93DF936B017C01E0912801F091290189
:100570000190F081E02D6DE288E291E00995EC01B7
:1005800066277727CB016C197D098E099F094AE000
:100590000E946B028C0F9D1FDF91CF91FF90EF9017
:1005A000DF90CF9008950E94A8061F920F920FB679
:1005B0000F9211242F933F934F935F936F937F93E9
:1005C0008F939F93AF93BF93EF93FF9388E291E054
:1005D0000E945401FF91EF91BF91AF919F918F9134
:1005E0007F916F915F914F913F912F910F900FBE2F
:1005F0000F901F9018951F920F920FB60F92112413
:100600002F938F939F93EF93FF93E0913801F09195
:1006100039018081E0913E01F0913F0182FD12C0DD
:100620009081809141018F5F8F73209142018217E9
:1006300051F0E0914101F0E0E85DFE4F958F80932D
:10064000410101C08081FF91EF919F918F912F9186
:100650000F900FBE0F901F9018951F920F920FB61C
:100660000F9211242F933F938F939F93AF93BF9338
:1006700080911E0190911F01A0912001B091210154
:1006800030911D0123E0230F2D3720F40196A11D89
:10069000B11D05C026E8230F0296A11DB11D2093B0
:1006A0001D0180931E0190931F01A0932001B09320
:1006B00021018091220190912301A0912401B09108
:1006C00025010196A11DB11D809322019093230164
:1006D000A0932401B0932501BF91AF919F918F9179
:1006E0003F912F910F900FBE0F901F9018951F9262
:1006F0000F920FB60F9211242F933F934F935F9356
:100700006F937F938F939F93AF93BF93EF93FF93D9
:1007100080911C0187FF05C0109285001092840013
:100720001BC020911C01022E000C330B8091E901AB
:1007300090E02817390784F480911C01082E000CE2
:10074000990BFC01EE0FFF1F8E0F9F1FFC01EB5357
:10075000FE4F808186FD15C080911C018F5F8093C4
:100760001C0120911C01022E000C330B8091E90129
:1007700090E028173907C4F480911C018C3064F193
:1007800013C080911C01082E000C990BFC01EE0F88
:10079000FF1F8E0F9F1FFC01EB53FE4F808160E017
:1007A0008F730E94E801D8CF8091840090918500DA
:1007B000049680349C4918F480E49CE905C080913B
:1007C000840090918500049690938900809388001E
:1007D0008FEF80931C013BC02091840030918500F5
:1007E00080911C01082E000C990BFC01EE0FFF1FDD
:1007F0008E0F9F1FFC01EB53FE4F81819281820F70
:10080000931F909389008093880080911C01082E8B
:10081000000C990BFC01EE0FFF1F8E0F9F1FFC01B8
:10082000EB53FE4F808186FF12C080911C01082E81
:10083000000C990BFC01EE0FFF1F8E0F9F1FFC0198
:10084000EB53FE4F808161E08F730E94E801FF91BE
:10085000EF91BF91AF919F918F917F916F915F9138
:100860004F913F912F910F900FBE0F901F901895B1
:1008700010922B0110922A0188EE93E0A0E0B0E0E4
:1008800080932C0190932D01A0932E01B0932F0102
:1008900088E091E0909329018093280185EC90E015
:1008A000909335018093340184EC90E0909337016C
:1008B0008093360180EC90E0909339018093380169
:1008C00081EC90E090933B0180933A0182EC90E0C0
:1008D00090933D0180933C0186EC90E090933F0122
:1008E00080933E0110924101109242011092430107
:1008F000109244018091E9018C30A0F491E0980FAE
:100900009093E9018093EA0190E0FC01EE0FFF1F54
:100910008E0F9F1FFC01EB53FE4F88EB9BE09283F1
:10092000818308958FEF8093EA010895789484B5C8
:10093000826084BD84B5816084BD85B5826085BDDB
:1009400085B5816085BD80916E00816080936E0069
:10095000109281008091810082608093810080915B
:10096000810081608093810080918000816080930C
:1009700080008091B10084608093B1008091B000CC
:1009800081608093B00080917A00846080937A00C7
:1009900080917A00826080937A0080917A008160F1
:1009A00080937A0080917A00806880937A00109218
:1009B000C100E0913801F091390182E08083E0913B
:1009C0003401F09135011082E0913601F091370148
:1009D0008FEC808310924001E0913C01F0913D0149
:1009E00086E08083E0913A01F0913B018081806153
:1009F0008083E0913A01F0913B018081886080839F
:100A0000E0913A01F0913B01808180688083E09120
:100A10003A01F0913B0180818F7D80838091EA01D2
:100A20008C3008F068C0EDEAF0E02491E9E9F0E0EC
:100A30008491882399F090E0880F991FFC01EA5770
:100A4000FF4FA591B491FC01E458FF4F859194911B
:100A50008FB7F894EC91E22BEC938FBF8091EA0171
:100A6000E82FF0E09F01220F331FE20FF31FEB533B
:100A7000FE4F9081907C996090831092EB011092D0
:100A8000EC016CE00E948F062CE0829FB0011124E3
:100A900040E050E09A01260F371FF901EE0FFF1FCB
:100AA0002E0F3F1FF901EB53FE4F908196FD16C0AC
:100AB0004F5F5F4F4C30510569F781110FC01092A5
:100AC000800082E080938100109285001092840063
:100AD000B19A80916F00826080936F00E091EA018B
:100AE000F0E0CF01880F991FE80FF91FEB53FE4F7D
:100AF000808180648083E2EBF0E02491EEE9F0E015
:100B000084918823C1F090E0880F991FFC01EA5777
:100B1000FF4FC591D491FC01E458FF4FA591B491CA
:100B20009FB7F8948881E22FE0958E2388838C917B
:100B3000E823EC939FBF20E4322E08E810E0C8E5DC
:100B4000D2E034EB832E912CA12CB12C30927C007E
:100B500080917A00806480937A0080917A0086FD8B
:100B6000FCCFA091780080917900B0E0B82B22EB07
:100B700030E00E949B062FEF33E040E050E00E94FF
:100B8000AD06CA01B9016F5F7F4F8F4F9F4F7093C2
:100B900027016093260197FF03C00E94AC0203C0A7
:100BA0004AE00E946B0284E191E00E9459020E9497
:100BB0008700BC01990F880B990B97FF03C00E9417
:100BC000AC0203C04AE00E946B0288E191E00E94FF
:100BD00059020E948700E0912601F09127018E17AB
:100BE0009F0709F473C0E03242E0F407DCF5F7FD3B
:100BF00006C0E53BF1052CF0E4EBF0E002C0E0E0DC
:100C0000F0E08091EB012801481A510887FD5394C8
:100C1000D201AA0FBB1FAA0FBB1F2D01BB0F660875
:100C200077088091EC019E01281B310987FD3395DF
:100C3000220F331F220F331FC901330FAA0BBB0B27
:100C40009C01AD012419350946095709DF010E94AD
:100C5000D706A50194010E94AD06420E531E641EE4
:100C6000751EF2012091EA012C3080F58091EB0194
:100C7000A801481B510987FD5395CA01880F991F88
:100C8000880F991FE817F90784F08091EC01BE01E5
:100C9000681B710987FD7395660F771F660F771FB5
:100CA000CF016E177F070CF4CB010297880F991FB5
:100CB0006FB7F89430E0A901440F551F240F351F7A
:100CC000F901EB53FE4F928381836FBF0E94340280
:100CD0006B017C0182E3482E512C612C712C0E9407
:100CE0003402DC01CB018C199D09AE09BF09883E95
:100CF0009340A105B10558F051E0451A510861082B
:100D0000710888EEC80E83E0D81EE11CF11C411466
:100D100051046104710419F70E94DE0117CF991B79
:100D200079E004C0991F961708F0961B881F7A95E2
:100D3000C9F7809508950E940107B7FF0895821BA7
:100D4000930B0895EE0FFF1F0590F491E02D099489
:100D500081E090E0F8940C941007052E97FB1EF4A8
:100D600000940E94C40657FD07D00E94DF0607FCCE
:100D700003D04EF40C94C4065095409530952195BF
:100D80003F4F4F4F5F4F08959095809570956195B7
:100D90007F4F8F4F9F4F08950E940107A59F900D91
:100DA000B49F900DA49F800D911D11240895B7FF4D
:100DB0000C94CC060E94CC06821B930B0895A1E2F2
:100DC0001A2EAA1BBB1BFD010DC0AA1FBB1FEE1FC5
:100DD000FF1FA217B307E407F50720F0A21BB30B10
:100DE000E40BF50B661F771F881F991F1A9469F78C
:100DF00060957095809590959B01AC01BD01CF01E8
:100E00000895A29FB001B39FC001A39F700D811DE3
:100E10001124911DB29F700D811D1124911D089503
:040E2000F894FFCF74
:100E240001000000000000007501F1003E011C01FA
:0C0E34003001BC01202D20000D0A000040
:00000001FF
