:100000000C9463000C948B000C948B000C943302C2
:100010000C9433020C9433020C948B000C948B00E0
:100020000C948B000C948B000C948B000C948B0024
:100030000C948B000C948B000C948B000C948B0014
:100040000C94E5060C948B000C948B000C948B00A4
:100050000C948B000C948B000C948B000C948B00F4
:100060000C948B000C948B0000000008000201002F
:100070000003040700000000000000000102040863
:100080001020408001020408102001020408102002
:10009000040404040404040402020202020203032E
:1000A00003030303000000002300260029000000D2
:1000B0000000250028002B0000000000240027007D
:1000C0002A00E100EE0011241FBECFEFD8E0DEBF12
:1000D000CDBF11E0A0E0B1E0EEEAF2E102C0059090
:1000E0000D92A035B107D9F721E0A0E5B1E001C03C
:1000F0001D92A13DB207E1F710E0C4ECD0E004C0CE
:100100002297FE010E944609C23CD107C9F70E940E
:1001100077080C944A090C9400000F931F93CF9317
:10012000DF93C0E0D1E060E088810E94070860E0D2
:1001300088810E94400840E05BE460E070E080E578
:1001400091E00E94360362E071E080E591E00E9458
:10015000C8088FE691E00E94950601EE10EF20EFAF
:1001600038EE48EE50E060E070E08FE691E00E94EB
:10017000E205DF91CF911F910F910895FF920F93A8
:100180001F93CF93DF938C01C4E1D0E041E0B8012D
:100190008FE691E00E949105F82E219749F4811194
:1001A00009C066E171E080E591E00E94C80802C0E4
:1001B000882361F38F2DDF91CF911F910F91FF90D5
:1001C00008954AE069E08FE691E00E94000520E092
:1001D00047E066E080E591E00C94060380E591E05D
:1001E0000C94AD021092800110927F0181E090E0AA
:1001F000909382018093810180E591E00E945001FB
:10020000803349F48FE791E00E94BE00882389F093
:1002100068E271E00AC0813361F481E891E00E94F4
:10022000BE00882331F06CE271E080E591E00C942F
:10023000C8080895CF93CFB7F894809183018111B6
:1002400027C0EAE9F0E08491E6E8F0E09491E82F35
:10025000F0E0EE0FFF1FE854FF4FA591B4918C9191
:10026000892321F461E08AE00E94400861E08AE08D
:100270000E9407088CB580618CBD8CB580648CBDF4
:1002800061E08DE00E94070861E08BE00E940708B2
:10029000809183018F5F80938301CFBFCF910895B9
:1002A0002091C6013091C70128173907B9F4909100
:1002B000840180918501981789F0E0918401F0E034
:1002C000EA57FE4F80812091840130E02F5F3F4F3D
:1002D0002F7333272093840190E008958FEF9FEFD1
:1002E00008951F93CF93DF93DC015C968D919C91D1
:1002F0005D97009749F481E090E013969C938E936C
:10030000129780E090E03BC05196ED91FC9152979E
:1003100050962C915097322F30951FB75E964C9186
:100320005E9741FB772770F941FD6095F894408115
:10033000772311F0422B01C043234083EC01219726
:10034000F1F748E0508160FF02C0522B01C05323F7
:100350005083EC012197F1F76695415099F7808120
:10036000772311F0832301C0822B80831FBF5C960B
:100370008D919C915D970197F1F781E090E0DF917D
:10038000CF911F91089508952091C6013091C70122
:100390002817390771F4909184018091850198178D
:1003A00041F0E0918401F0E0EA57FE4F808190E057
:1003B00008958FEF9FEF08952091C6013091C701F6
:1003C0002817390771F4809185012091840190E00C
:1003D000805C9F4F821B910960E470E00E94DB0803
:1003E000089580E090E00895E091C601F091C70182
:1003F000E817F90769F4A389B4899C9185898095E8
:1004000089238C931092C7011092C60181E0089550
:1004100080E00895CF93DF93EC018A8D9B8D892B2B
:10042000F1F08091C6019091C7018C179D07B9F03A
:10043000009711F00E94F4018E8D8E7F8E8F1092A6
:10044000850110928401D093C701C093C601EB8946
:10045000FC8980819D89892B808381E001C080E0B7
:10046000DF91CF9108951F920F920FB60F92112432
:100470002F933F934F935F936F937F938F939F93AC
:10048000AF93BF93EF93FF93E091C601F091C70143
:10049000309709F451C0868DA685B785958581FF73
:1004A00004C08C91892329F447C08C91892309F0D9
:1004B00043C0A389B4899C918589809589238C93B5
:1004C000868997890197F1F7208D318DA685B785AB
:1004D000758558E040E0C9010197F1F7842F90E05D
:1004E00095958795482F6C91672309F04068515086
:1004F00091F7868D81FD40958091850190E0019670
:100500008F73992720918401281749F0A0918501C4
:10051000B0E0AA57BE4F4C938093850103C0868DEF
:100520008160868F828D938D0197F1F7A389B489BD
:100530008C919589892B8C93FF91EF91BF91AF910D
:100540009F918F917F916F915F914F913F912F91EB
:100550000F900FBE0F901F90189523E331E0FC0120
:10056000318320830C94F4011F93CF93DF93EC012C
:10057000162F6E8D6695617081E06827812F0E942D
:10058000400861E0812F0E940708812F90E0FC0164
:10059000E458FF4FE491E88BFC01E057FF4FE491F2
:1005A000F0E0EE0FFF1FE255FF4F859194919A8B7B
:1005B000898BDF91CF911F9108951F93CF93DF9384
:1005C000EC01162F60E0812F0E9407088E8D81FDBF
:1005D00004C061E0812F0E9440081C87812F90E0B9
:1005E000FC01E458FF4FE491ED87FC01E057FF4F19
:1005F000E491F0E0EE0FFF1FEC55FF4F85919491D1
:100600009F878E87DF91CF911F910895FF920F935F
:100610001F93CF93DF93EC01F62E522F1B821A8289
:1006200008EE13E020E030E00C831D832E833F832F
:1006300083E391E0998388831F8A1E8A198E188E1E
:100640001B8E1A8E1D8E1C8E8E8D8E7F50FB81F917
:100650008E8F642FCE010E94B4026F2DCE01DF91E8
:10066000CF911F910F91FF900C94DD02CF93DF93F8
:10067000EC019A01AB011B8E1A8E198E188E1F8AFF
:100680001E8A60E079E08DE390E00E941109C901C3
:100690002430310520F0B9016350710902C061E0D6
:1006A00070E07D8F6C8FEC85E63108F068C0B90191
:1006B000769567956431710518F06351710902C030
:1006C00061E070E07F8B6E8B069718F0C90105978B
:1006D00002C081E090E0998F888FC901880F991F2F
:1006E000820F931F96958795969587958D309105E6
:1006F00010F00C9702C081E090E09B8F8A8F2091D0
:100700006800E83050F091E0EE3008F490E081E0CD
:1007100001C0880F9A95EAF701C084E0822B80938C
:1007200068002C85283038F02E3040F0263148F40F
:100730008CE690E008C08DE690E005C08BE690E086
:1007400002C080E090E09C8B8B8B283030F481E0FD
:1007500001C0880F2A95EAF70DC0822F90E02E3055
:1007600010F4089701C00E9791E001C0990F8A9587
:10077000EAF7892F8D8B8C8D9D8D0197F1F7CE0136
:10078000DF91CF910C940A028EBD00000DB407FEDC
:10079000FDCF8EB508952CB52F7D2CBD2CB5237FB4
:1007A0002CBD2CB52C7F2CBD2DB52E7F2DBDFC0175
:1007B00081810C944008FC0180810C944008CF9208
:1007C000DF92EF92FF920F931F93CF93DF9300D0AE
:1007D000CDB7DEB78C01E62EF22E60E070E04983E3
:1007E0005A830E94CB038E2D8F710E94C403E82E82
:1007F0004981C42E5A81D52EF40EFC1439F08FEFA6
:100800000E94C403F60181936F01F7CF61E070E0AD
:10081000C8010E94CB038E2D0F900F90DF91CF91D6
:100820001F910F91FF90EF90DF90CF9008951F934D
:10083000CF93DF93EC01162F60E070E00E94CB03B2
:10084000812F8F710E94C4038FEF0E94C403182F61
:1008500061E070E0CE010E94CB03812FDF91CF9148
:100860001F910895CF92DF92EF92FF920F931F9303
:10087000CF93DF9300D0CDB7DEB78C01E62EF22EFA
:1008800060E070E049835A830E94CB038E2D8F7104
:1008900080620E94C403E82E4981C42E5A81D52E5D
:1008A000F40EFC1431F0F60181916F010E94C40333
:1008B000F8CF61E070E0C8010E94CB038E2D0F904D
:1008C0000F90DF91CF911F910F91FF90EF90DF90EC
:1008D000CF900895EF92FF921F93CF93DF931F92D3
:1008E000CDB7DEB77C01162F60E070E049830E942F
:1008F000CB03812F8F7180620E94C403182F49811E
:10090000842F0E94C40361E070E0C7010E94CB0302
:10091000812F0F90DF91CF911F91FF90EF9008955D
:10092000BF92CF92DF92EF92FF920F931F93CF93DC
:10093000DF938C01D62EB72EFC01C481F42EC41790
:1009400008F4FC2EF8018681811103C0EC2EEF180B
:1009500001C0E12C60E070E0C8010E94CB0380EA96
:100960000E94C403C82ECD2DDB2DFD0CFC1621F0FA
:1009700089910E94C403FACFCE2DCC2329F080E0C8
:100980000E94C403C150F9CF61E070E0C8010E9429
:10099000CB038C2DDF91CF911F910F91FF90EF90A2
:1009A000DF90CF90BF9008951F93CF93DF93EC011A
:1009B00060E070E00E94CB0382EE0E94C403182F17
:1009C00061E070E0CE010E94CB03812FDF91CF91D7
:1009D0001F9108951F93CF93DF93EC0160E070E0C7
:1009E0000E94CB0381EE0E94C403182F61E070E0E7
:1009F000CE010E94CB03812FDF91CF911F910895EB
:100A0000FC016083418381E08283138280E28483DE
:100A10001582168210861186128613861486158614
:100A2000168617860895462F603808F04FE765E070
:100A30000C946A04CF93DF93EC0160E00E941704EA
:100A4000482F4D7F60E0CE01DF91CF910C946A0476
:100A5000FF920F931F93CF93DF93EC018B01F42E42
:100A600060E00E941704482F4C7F426060E0CE0196
:100A70000E946A0486E990E00E9498074F2DB80111
:100A8000CE010E94900461E070E0CE010E94DB0381
:100A90008FE090E00E94980760E070E0CE01DF9167
:100AA000CF911F910F91FF900C94DB031F93CF9375
:100AB000DF93EC0160E070E00E94CB0380E60E94CF
:100AC000C4038FEF0E94C403182F61E070E0CE01D1
:100AD0000E94CB03812FDF91CF911F910895EF9258
:100AE000FF920F931F93CF93DF93EB018A0179015C
:100AF00040E767E00E946A0485FB992790F9988394
:100B000084FB992790F9F801908386FB882780F968
:100B1000F7018083DF91CF911F910F91FF90EF90AC
:100B20000895CF92DF92EF92FF920F931F93CF938E
:100B3000DF9300D01F92CDB7DEB78C010E9428054D
:100B40000E942F076B017C0121E0AE014D5F5F4FDA
:100B500068E0C8010E94DF03807359F40E942F07E8
:100B60006C197D098E099F09643F714081059105CB
:100B700058F398012B5F3F4FAE014F5F5F4FBE01AF
:100B80006E5F7F4FC8010E946F05FA80F801858172
:100B9000882329F0C8010E945605F8018783C801FF
:100BA0000E941A05C8010E94EA048F2D0F900F9031
:100BB0000F90DF91CF911F910F91FF90EF90DF90F9
:100BC000CF900895EF92FF920F931F93CF93DF93EF
:100BD000CDB7DEB728970FB6F894DEBF0FBECDBFF6
:100BE0007C0109831A832B833C834D835E836F834F
:100BF000788725E0AE014F5F5F4F6AE00E943204C4
:100C000025E0AE014F5F5F4F60E1C7010E943204F3
:100C1000F7014481413208F040E261E1C7010E94DE
:100C20006A0428960FB6F894DEBF0FBECDBFDF91E1
:100C3000CF911F910F91FF90EF9008950F931F9305
:100C4000CF93DF938C01EB0166E00E941704482FDD
:100C5000497FC330D10561F0C230D10511F4446041
:100C600008C0C130D10511F4426003C0249709F4D3
:100C7000466066E0C801DF91CF911F910F910C94FF
:100C80006A04EF92FF920F931F93CF93DF931F920B
:100C9000CDB7DEB77C018B0166E00E941704F70137
:100CA0001282282F277D0230110511F4206207C01F
:100CB0000130110521F481E0F70182832860422F81
:100CC00066E0C70129830E946A0466E0C7010E94AA
:100CD00017042981821721F0F701128280E001C0F8
:100CE00081E00F90DF91CF911F910F91FF90EF90D6
:100CF00008950F931F93CF93DF93EC018B0160E076
:100D00000E941704482F437F0115110531F001306F
:100D1000110511F4486001C04C6060E0CE01DF9124
:100D2000CF911F910F910C946A04CF93DF93EC0144
:100D300061E088810E94070861E089810E940708BC
:100D40000E941A0160E070E0CE010E94DB0361E0C6
:100D500070E0CE010E94CB0365E070E080E090E09F
:100D60000E945E074FE464E0CE010E946A0463E0E3
:100D700070E0CE010E941E0662E070E0CE010E948B
:100D80004106882311F081E08B8360E070E0CE01A2
:100D90000E94410662E070E0CE010E94790640E0C8
:100DA0006CE1CE010E946A0440E767E0CE010E9438
:100DB0006A046CE4CE010E941305CE010E94D404A3
:100DC000CE01DF91CF910C94EA041F920F920FB6DF
:100DD0000F9211242F933F938F939F93AF93BF93C1
:100DE0008091C9019091CA01A091CB01B091CC0131
:100DF0003091C80123E0230F2D3720F40196A11D67
:100E0000B11D05C026E8230F0296A11DB11D209338
:100E1000C8018093C9019093CA01A093CB01B093FC
:100E2000CC018091CD019091CE01A091CF01B091E4
:100E3000D0010196A11DB11D8093CD019093CE01EB
:100E4000A093CF01B093D001BF91AF919F918F91AB
:100E50003F912F910F900FBE0F901F9018952FB7B5
:100E6000F8946091C9017091CA018091CB01909171
:100E7000CC012FBF08953FB7F8948091CD01909198
:100E8000CE01A091CF01B091D00126B5A89B05C09D
:100E90002F3F19F00196A11DB11D3FBF6627782F86
:100EA000892F9A2F620F711D811D911D42E0660FDF
:100EB000771F881F991F4A95D1F708958F929F92A7
:100EC000AF92BF92CF92DF92EF92FF926B017C01C3
:100ED0000E943B074B015C01C114D104E104F10401
:100EE000F1F00E94DA080E943B07681979098A0923
:100EF0009B09683E73408105910570F321E0C21A99
:100F0000D108E108F10888EE880E83E0981EA11C44
:100F1000B11CC114D104E104F10429F7DDCFFF9025
:100F2000EF90DF90CF90BF90AF909F908F900895FB
:100F30008230910538F0880F991F880F991F059707
:100F40000197F1F70895789484B5826084BD84B5E3
:100F5000816084BD85B5826085BD85B5816085BDB4
:100F6000EEE6F0E0808181608083E1E8F0E01082CD
:100F7000808182608083808181608083E0E8F0E00E
:100F8000808181608083E1EBF0E0808184608083F8
:100F9000E0EBF0E0808181608083EAE7F0E080812F
:100FA000846080838081826080838081816080838F
:100FB0008081806880831092C1000895833081F021
:100FC00028F4813099F08230A1F008958730A9F09B
:100FD0008830B9F08430D1F4809180008F7D03C0D7
:100FE000809180008F7780938000089584B58F77FB
:100FF00002C084B58F7D84BD08958091B0008F7745
:1010000003C08091B0008F7D8093B0000895CF938E
:10101000DF9390E0FC01E458FF4F2491FC01E0577E
:10102000FF4F8491882349F190E0880F991FFC01BC
:10103000E854FF4FA591B49182559F4FFC01C59193
:10104000D4919FB7611108C0F8948C9120958223A8
:101050008C93888182230AC0623051F4F8948C9179
:10106000322F309583238C938881822B888304C010
:10107000F8948C91822B8C939FBFDF91CF91089530
:101080000F931F93CF93DF931F92CDB7DEB7282F17
:1010900030E0F901E859FF4F8491F901E458FF4F1E
:1010A0001491F901E057FF4F04910023C9F0882300
:1010B00021F069830E94DE076981E02FF0E0EE0FE6
:1010C000FF1FE255FF4FA591B4919FB7F8948C9103
:1010D000611103C01095812301C0812B8C939FBFA8
:1010E0000F90DF91CF911F910F91089508950E9465
:1010F000A3070E9476080E948D00C0E0D0E00E9405
:10110000F2002097E1F30E940000F9CFCF92DF9226
:10111000EF92FF920F931F93CF93DF937C016A01AD
:10112000EB0100E010E00C151D0571F06991D7018D
:10113000ED91FC910190F081E02DC7010995892B7B
:1011400019F00F5F1F4FEFCFC801DF91CF911F91B3
:101150000F91FF90EF90DF90CF900895611571058A
:1011600081F0DB010D900020E9F7AD0141505109FC
:10117000461B570BDC01ED91FC910280F381E02DC1
:10118000099480E090E008956FE371E00C94AE085C
:101190000F931F93CF93DF93EC010E94AE088C0155
:1011A000CE010E94C408800F911FDF91CF911F9143
:1011B0000F910895089597FB072E16F4009407D019
:1011C00077FD09D00E94300907FC05D03EF49095C8
:1011D00081959F4F0895709561957F4F0895A1E285
:1011E0001A2EAA1BBB1BFD010DC0AA1FBB1FEE1FA1
:1011F000FF1FA217B307E407F50720F0A21BB30BEC
:10120000E40BF50B661F771F881F991F1A9469F767
:1012100060957095809590959B01AC01BD01CF01C3
:101220000895052E97FB1EF400940E94280957FD8F
:1012300007D00E94EF0807FC03D04EF40C94280955
:1012400050954095309521953F4F4F4F5F4F0895F2
:1012500090958095709561957F4F8F4F9F4F089522
:10126000AA1BBB1B51E107C0AA1FBB1FA617B707CC
:1012700010F0A61BB70B881F991F5A95A9F78095E8
:101280009095BC01CD010895EE0FFF1F0590F491DC
:10129000E02D099410E0C4ECD0E004C0FE010E94EF
:0E12A00046092296C63CD107C9F7F894FFCF45
:1012AE000300557967756C616D61204261736C61E5
:1012BE0074696C646900436F6E6E656374696F6EFA
:1012CE00204661696C6564004F4646004F4E000033
:1012DE0000000071018608DC015001C401C3010D3C
:1012EE000A006E616E00696E66006F7666002E00F3
:00000001FF
