:100000000C9440010C9468010C9468010C946801F4
:100010000C9468010C9468010C9468010C946801BC
:100020000C9468010C9468010C9468010C946801AC
:100030000C9468010C9468010C9468010C9468019C
:100040000C94EC040C9468010C94B6070C94E8072B
:100050000C9468010C9468010C9468010C9468017C
:100060000C9468010C946801504120506F776572C0
:1000700009203D2025530D0A00435243204C656E54
:1000800067746809203D2025530D0A004D6F646593
:100090006C0909203D2025530D0A0044617461203C
:1000A0005261746509203D2025530D0A0044594EC4
:1000B00050442F4645415455524500434F4E464902
:1000C000470052465F53455455500052465F4348DF
:1000D00000454E5F52584144445200454E5F4141F5
:1000E0000052585F50575F50302D360054585F41D2
:1000F0004444520052585F414444525F50322D35BF
:100100000052585F414444525F50302D31000D0A77
:1001100000253032780020307800255309256320EF
:100120003D000D0A00203078253032780025530933
:100130002563203D004F4253455256455F54583D7C
:10014000253032783A20504F4C535F434E543D2572
:1001500078204152435F434E543D25780D0A0053A9
:1001600054415455530909203D20307825303278C8
:100170002052585F44523D25782054585F44533DE7
:100180002578204D41585F52543D25782052585FC4
:10019000505F4E4F3D25782054585F46554C4C3D9E
:1001A00025780D0A0000010203040511121314152D
:1001B000160A0B0C0D0E0FD501CE01C701BF015061
:1001C000415F48494748004C415F4D45440050411C
:1001D0005F4C4F570050415F4D494E00F101EA011D
:1001E000E2013136206269747300382062697473E9
:1001F0000044697361626C6564000802FE016E521E
:100200004632344C30312B006E524632344C303151
:100210000025021F0217023235304B425053003284
:100220004D42505300314D42505300000000080031
:1002300002010000030407000000000000000001AC
:10024000020408102040800102040810200102046A
:10025000081020040404040404040402020202023C
:100260000203030303030300000000250028002B02
:100270000000000000240027002A0000CF01180819
:1002800011241FBECFEFD8E0DEBFCDBF11E0A0E04C
:10029000B1E0E4E9F1E102C005900D92A231B107AD
:1002A000D9F721E0A2E1B1E001C01D92AB3CB20759
:1002B000E1F712E0C0E8D2E004C02297FE010E94FC
:1002C000C408CC37D107C9F70E945C080C94C80851
:1002D0000C940000EF92FF920F931F93CF93DF9344
:1002E000C0E0D1E061E088810E943B0626E040E862
:1002F00055E260E070E08EE291E00E94540782E1F6
:1003000091E00E949C0481EEE82E90EFF92E00EF20
:1003100018EE28EE30E040E050E061E082E191E04C
:100320000E94B50382E191E00E94400361E0888170
:10033000DF91CF911F910F91FF90EF900C940206E7
:10034000CF9382E191E00E94A403882331F141E040
:1003500062E271E082E191E00E94A803C82F20913F
:100360002201309123012130310541F46AE070E02F
:1003700080E090E00E94590561E003C0232B29F43E
:1003800060E0809100010E943B066AE070E080E03E
:1003900090E00E945905CC23D1F2CF9108954AE014
:1003A00069E082E191E00C942603CF93CFB7F894F3
:1003B00080912401811127C0EDE5F2E08491E9E408
:1003C000F2E09491E82FF0E0EE0FFF1FEF58FD4FA1
:1003D000A591B4918C91892321F461E08AE00E9477
:1003E0003B0661E08AE00E9402068CB580618CBD0C
:1003F0008CB580648CBD61E08DE00E94020661E0F6
:100400008BE00E940206809124018F5F809324017B
:10041000CFBFCF9108958EBD00000DB407FEFDCF74
:100420008EB508952CB52F7D2CBD2CB5237F2CBD0A
:100430002CB52C7F2CBD2DB52E7F2DBDFC018181CF
:100440000C943B06FC0180810C943B061F93CF93D8
:10045000DF93EC01162F60E070E00E941202812F02
:100460008F710E940B028FEF0E940B02182F61E028
:1004700070E0CE010E941202812FDF91CF911F9177
:100480000895CF92DF92EF92FF920F931F93CF9335
:10049000DF9300D0CDB7DEB78C01E62EF22E60E000
:1004A00070E049835A830E9412028E2D8F71806200
:1004B0000E940B02E82E4981C42E5A81D52EF40EDB
:1004C000FC1431F0F60181916F010E940B02F8CF0C
:1004D00061E070E0C8010E9412028E2D0F900F9013
:1004E000DF91CF911F910F91FF90EF90DF90CF9010
:1004F0000895EF92FF921F93CF93DF931F92CDB792
:10050000DEB77C01162F60E070E049830E94120282
:10051000812F8F7180620E940B02182F4981842FD6
:100520000E940B0261E070E0C7010E941202812F5D
:100530000F90DF91CF911F91FF90EF900895BF92A0
:10054000CF92DF92EF92FF920F931F93CF93DF939F
:100550008C01D62EB72EFC01C481F42EC41708F4EA
:10056000FC2EF8018681811103C0EC2EEF1801C02A
:10057000E12C60E070E0C8010E94120281E60E9456
:100580000B02C82ECD2DDB2DFD0CFC1629F08FEFB4
:100590000E940B028993F9CFCE2DCC2329F08FEF47
:1005A0000E940B02C150F9CF61E070E0C8010E94C7
:1005B00012028C2DDF91CF911F910F91FF90EF9040
:1005C000DF90CF90BF9008951F93CF93DF93EC01FE
:1005D00060E070E00E94120282EE0E940B02182F6F
:1005E00061E070E0CE010E941202812FDF91CF9175
:1005F0001F9108951F93CF93DF93EC0160E070E0AB
:100600000E94120281EE0E940B02182F61E070E03E
:10061000CE010E941202812FDF91CF911F91089588
:100620001F93CF93DF93EC0160E070E00E94120211
:100630008FEF0E940B02182F61E070E0CE010E9444
:100640001202812FDF91CF911F910895FC016083E9
:10065000418381E08283138280E284831582168243
:1006600010861186128613861486158616861786BE
:100670000895462F603808F04FE765E00C94790242
:10068000CF93DF93EC0160E00E942602482F436085
:1006900060E0CE010E94790240E767E0CE010E944F
:1006A0007902288539854A855B856C857D858E85AF
:1006B0009F85A0E00E94B60841F025E0AE01485FAA
:1006C0005F4F6AE0CE010E944102CE010E94E40227
:1006D000CE010E94FA0261E070E0CE010E94220287
:1006E00082E890E0DF91CF910C949305EF92FF9216
:1006F0000F931F93CF93DF93EC018B010E941003A4
:10070000F82E86FBEE24E0F886FF16C001151105D1
:1007100039F0282F30E0359527952770F801208390
:1007200040E467E0CE010E947902F5FE05C040E298
:1007300067E0CE010E9479028E2DDF91CF911F914B
:100740000F91FF90EF90089560E070E00C947603B5
:10075000CF93DF93EC010E949F0267E1CE010E94DC
:1007600026028170DF91CF910895BF92CF92DF92E0
:10077000EF92FF920F931F93CF93DF93CDB7DEB726
:1007800028970FB6F894DEBF0FBECDBF6C01B62E12
:10079000E982FA820B831C832D833E834F83588723
:1007A00061110AC0F601E086F1860287138724876B
:1007B00035874687578707C0F6E0F61708F435C037
:1007C00081E0681307C0EB2DF0E0EF54FE4F649119
:1007D00025E006C0E62FF0E0EF54FE4F649121E0E3
:1007E000AE014F5F5F4FC6010E9441020B2D10E02A
:1007F000F801E555FE4F6491F6014481C6010E945F
:10080000790262E0C6010E942602F801EB55FE4F14
:10081000049121E030E001C0220F0A95EAF7822B13
:10082000482F62E0C6010E94790228960FB6F8941C
:10083000DEBF0FBECDBFDF91CF911F910F91FF9013
:10084000EF90DF90CF90BF9008950F931F93CF93B9
:10085000DF938C01EB0166E00E942602482F497F5E
:10086000C330D10561F0C230D10511F4446008C035
:10087000C130D10511F4426003C0249709F44660E9
:1008800066E0C801DF91CF911F910F910C9479021E
:10089000EF92FF920F931F93CF93DF931F92CDB7E9
:1008A000DEB77C018B0166E00E942602F70112820E
:1008B000282F277D0230110511F4206207C0013076
:1008C000110521F481E0F70182832860422F66E060
:1008D000C70129830E94790266E0C7010E942602AF
:1008E0002981821721F0F701128280E001C081E0A6
:1008F0000F90DF91CF911F910F91FF90EF9008958E
:100900000F931F93CF93DF93EC018B0160E00E9464
:100910002602482F437F0115110531F001301105E2
:1009200011F4486001C04C6060E0CE01DF91CF91CE
:100930001F910F910C947902CF93DF93EC0161E04A
:1009400088810E94020661E089810E9402060E945D
:10095000D50160E070E0CE010E94220261E070E00B
:10096000CE010E94120265E070E080E090E00E94FB
:1009700059054FE464E0CE010E94790263E070E023
:10098000CE010E94250462E070E0CE010E9448047E
:10099000882311F081E08B8360E070E0CE010E943B
:1009A000480462E070E0CE010E94800440E06CE107
:1009B000CE010E94790240E767E0CE010E947902F1
:1009C0006CE4CE010E943903CE010E94E402CE0104
:1009D000DF91CF910C94FA021F920F920FB60F92F3
:1009E00011242F933F938F939F93AF93BF93809145
:1009F000260190912701A0912801B0912901309101
:100A0000250123E0230F2D3720F40196A11DB11DF0
:100A100005C026E8230F0296A11DB11D20932501D4
:100A20008093260190932701A0932801B093290178
:100A300080912A0190912B01A0912C01B0912D0160
:100A40000196A11DB11D80932A0190932B01A093C3
:100A50002C01B0932D01BF91AF919F918F913F9148
:100A60002F910F900FBE0F901F9018953FB7F894DD
:100A700080912A0190912B01A0912C01B0912D0120
:100A800026B5A89B05C02F3F19F00196A11DB11DE9
:100A90003FBF6627782F892F9A2F620F711D811D06
:100AA000911D42E0660F771F881F991F4A95D1F765
:100AB00008958F929F92AF92BF92CF92DF92EF9262
:100AC000FF926B017C010E9436054B015C01C11451
:100AD000D104E104F104F1F00E9493080E9436056C
:100AE000681979098A099B09683E73408105910557
:100AF00070F321E0C21AD108E108F10888EE880EEF
:100B000083E0981EA11CB11CC114D104E104F104BE
:100B100029F7DDCFFF90EF90DF90CF90BF90AF909F
:100B20009F908F9008958230910538F0880F991F1B
:100B3000880F991F05970197F1F70895789484B568
:100B4000826084BD84B5816084BD85B5826085BDC9
:100B500085B5816085BDEEE6F0E0808181608083AF
:100B6000E1E8F0E010828081826080838081816092
:100B70008083E0E8F0E0808181608083E1EBF0E059
:100B8000808184608083E0EBF0E0808181608083FD
:100B9000EAE7F0E0808184608083808182608083E6
:100BA0008081816080838081806880831092C10011
:100BB0000895833081F028F4813099F08230A1F0DB
:100BC00008958730A9F08830B9F08430D1F480914D
:100BD00080008F7D03C0809180008F77809380009C
:100BE000089584B58F7702C084B58F7D84BD089544
:100BF0008091B0008F7703C08091B0008F7D80938B
:100C0000B0000895CF93DF9390E0FC01E15CFD4FCD
:100C10002491FC01ED5AFD4F8491882349F190E025
:100C2000880F991FFC01EF58FD4FA591B491895988
:100C30009D4FFC01C591D4919FB7611108C0F894F4
:100C40008C91209582238C93888182230AC0623004
:100C500051F4F8948C91322F309583238C938881B2
:100C6000822B888304C0F8948C91822B8C939FBF35
:100C7000DF91CF9108950F931F93CF93DF931F922E
:100C8000CDB7DEB7282F30E0F901E55DFD4F849147
:100C9000F901E15CFD4F1491F901ED5AFD4F04910A
:100CA0000023C9F0882321F069830E94D905698156
:100CB000E02FF0E0EE0FFF1FE959FD4FA591B49131
:100CC0009FB7F8948C91611103C01095812301C0E6
:100CD000812B8C939FBF0F90DF91CF911F910F912C
:100CE0000895FC01818D228D90E0805C9F4F821BD6
:100CF00091098F7399270895FC01918D828D981722
:100D000031F0828DE80FF11D858D90E008958FEF11
:100D10009FEF0895FC01918D828D981761F0828D6F
:100D2000DF01A80FB11D5D968C91928D9F5F9F731F
:100D3000928F90E008958FEF9FEF08958EE098E0F6
:100D4000892B49F080E090E0892B29F00E940E0861
:100D500081110C9400000895FC01848DDF01A80F1F
:100D6000B11DA35ABF4F2C91848D90E001968F73D3
:100D70009927848FA689B7892C93A089B1898C91F2
:100D800080648C93938D848D981306C00288F389B8
:100D9000E02D80818F7D80830895CF93DF93EC01D8
:100DA000888D8823C9F0EA89FB89808185FD05C08B
:100DB000A889B9898C9186FD0FC00FB607FCF5CFC5
:100DC000808185FFF2CFA889B9898C9185FFEDCF0D
:100DD000CE010E94AC06E7CFDF91CF910895CF926C
:100DE000DF92FF920F931F93CF93DF931F92CDB7A4
:100DF000DEB76C0181E0D60158968C9358975B96CC
:100E00009C915B975C968C915C97981307C0509669
:100E1000ED91FC915197808185FD2EC0F601038DE7
:100E200010E00F5F1F4F0F731127F02EF601848D16
:100E3000F81211C00FB607FCF9CFD6015096ED910C
:100E4000FC915197808185FFF1CFC60169830E9493
:100E5000AC066981EBCF838DE80FF11DE35AFF4F9C
:100E60006083D6015B960C935B975296ED91FC9153
:100E70005397808180620CC0D6015696ED91FC910B
:100E8000579760835096ED91FC91519780818064D3
:100E9000808381E090E00F90DF91CF911F910F91BF
:100EA000FF90DF90CF900895BF92CF92DF92EF92A4
:100EB000FF92CF93DF93EC016A017B01B22EE889A8
:100EC000F98982E08083411581EE5807610571053B
:100ED000A1F060E079E08DE390E0A70196010E9427
:100EE0009408215031094109510956954795379584
:100EF0002795211580E1380798F0E889F989108253
:100F000060E874E88EE190E0A70196010E949408E1
:100F10002150310941095109569547953795279533
:100F2000EC85FD853083EE85FF852083188EEC8966
:100F3000FD89B082EA89FB89808180618083EA89AA
:100F4000FB89808188608083EA89FB898081806851
:100F50008083EA89FB8980818F7D8083DF91CF91B7
:100F6000FF90EF90DF90CF90BF9008951F920F9267
:100F70000FB60F9211242F938F939F93EF93FF93AC
:100F8000E0913E01F0913F018081E0914401F091B8
:100F9000450182FD12C09081809147018F5F8F7360
:100FA00020914801821751F0E0914701F0E0E25DA5
:100FB000FE4F958F8093470101C08081FF91EF9193
:100FC0009F918F912F910F900FBE0F901F901895AA
:100FD0001F920F920FB60F9211242F933F934F93AE
:100FE0005F936F937F938F939F93AF93BF93EF9391
:100FF000FF938EE291E00E94AC06FF91EF91BF91CA
:10100000AF919F918F917F916F915F914F913F91A0
:101010002F910F900FBE0F901F9018958EE291E0C8
:101020000E94710621E0892B09F420E0822F0895A7
:10103000109231011092300188EE93E0A0E0B0E010
:101040008093320190933301A0933401B093350122
:1010500086E091E090932F0180932E0185EC90E043
:1010600090933B0180933A0184EC90E090933D0192
:1010700080933C0180EC90E090933F0180933E018F
:1010800081EC90E0909341018093400182EC90E0EC
:10109000909343018093420186EC90E09093450148
:1010A0008093440110924701109248011092490127
:1010B00010924A01089508950E949E050E945B08BF
:1010C0000E946A01CEE9D6E00E94A0012097E1F3D8
:1010D0000E949E06F9CFCF92DF92EF92FF920F937C
:1010E0001F93CF93DF937C016A01EB0100E010E0D6
:1010F0000C151D0571F06991D701ED91FC910190DE
:10110000F081E02DC7010995892B19F00F5F1F4F62
:10111000EFCFC801DF91CF911F910F91FF90EF901A
:10112000DF90CF9008950895A1E21A2EAA1BBB1B51
:10113000FD010DC0AA1FBB1FEE1FFF1FA217B307A3
:10114000E407F50720F0A21BB30BE40BF50B661FB9
:10115000771F881F991F1A9469F76095709580957D
:1011600090959B01AC01BD01CF0108950024A7FD1E
:1011700000942A173005400550056005700580056C
:1011800090050895EE0FFF1F0590F491E02D09944E
:04119000F894FFCF01
:10119400020000000000EF066B0871068A067C0658
:0211A400CD0676
:00000001FF
