:100000000C9463000C948B000C948B000C94F50200
:100010000C94F5020C94F5020C948B000C948B005C
:100020000C948B000C948B000C948B000C948B0024
:100030000C948B000C948B000C948B000C948B0014
:100040000C94AB020C948B000C948B000C948B00E2
:100050000C948B000C948B000C948B000C948B00F4
:100060000C948B000C948B000000000024002700EF
:100070002A0000000000250028002B0000000008D6
:10008000000201000003040700000000000000005F
:1000900000000000230026002900040404040404D6
:1000A0000404020202020202030303030303010227
:1000B00004081020408001020408102001020408F6
:1000C00010201F058C0511241FBECFEFD8E0DEBF26
:1000D000CDBF11E0A0E0B1E0ECE5FEE002C005908C
:1000E0000D92A431B107D9F721E0A4E1B1E001C03C
:1000F0001D92A038B207E1F710E0C2E6D0E004C0DC
:100100002197FE010E94E005C136D107C9F70E9480
:10011000B4030C9421070C940000CF92DF92EF926D
:10012000FF920F931F93CF93DF936C017A018B01A2
:10013000C0E0D0E0CE15DF0589F0D8016D918D01CA
:10014000D601ED91FC910190F081E02DC601099559
:10015000892B11F47E0102C02196ECCFC701DF91FB
:10016000CF911F910F91FF90EF90DF90CF90089566
:1001700090E0FC01E458FF4F3491FC01E255FF4F41
:100180002491FC01E656FF4FE491EE2309F43BC0B5
:10019000332339F1333091F038F43130A9F0323073
:1001A00001F584B58F7D12C0373091F03830A1F061
:1001B0003430B9F4809180008F7D03C0809180003D
:1001C0008F77809380000DC084B58F7784BD09C080
:1001D0008091B0008F7703C08091B0008F7D8093B5
:1001E000B000F0E0EE0FFF1FEE58FF4FA591B49165
:1001F0008FB7F894EC91611103C020952E2301C0B4
:100200002E2B2C938FBF0895CF93DF9390E0FC01AA
:10021000E255FF4F2491FC01E656FF4F849188235D
:1002200061F190E0880F991FFC01E859FF4FC591DB
:10023000D491FC01EE58FF4FA591B491611109C012
:100240009FB7F8948881209582238883EC912E2390
:100250000BC0623061F49FB7F8943881822F80958B
:1002600083238883EC912E2B2C939FBF06C08FB7DE
:10027000F894E8812E2B28838FBFDF91CF910895CA
:100280003FB7F8948091590190915A01A0915B0178
:10029000B0915C0126B5A89B05C02F3F19F00196CF
:1002A000A11DB11D3FBFBA2FA92F982F8827820FFC
:1002B000911DA11DB11DBC01CD0142E0660F771F4C
:1002C000881F991F4A95D1F708958F929F92AF92F8
:1002D000BF92CF92DF92EF92FF920E9440014B01BA
:1002E0005C0182E3C82ED12CE12CF12C0E9440014C
:1002F000DC01CB0188199909AA09BB09883E934002
:10030000A105B10558F021E0C21AD108E108F108B1
:1003100088EE880E83E0981EA11CB11CC114D10484
:10032000E104F10419F7FF90EF90DF90CF90BF90B8
:10033000AF909F908F90089520915F013091600160
:100340002817390771F490915D0180915E0198172B
:1003500041F0E0915D01F0E0EC5EFE4F808190E0C5
:1003600008958FEF9FEF089508951F93CF93DF9324
:10037000DC015C962D913C915D972115310539F496
:1003800081E090E013969C938E9312973DC0519616
:10039000ED91FC91529750969C915097892F8095A2
:1003A0001FB75E964C915E9741FB772770F941FD30
:1003B0006095F8944081772311F0492B01C04823C0
:1003C0004083E9012197F1F748E0508160FF02C0C6
:1003D000592B01C058235083E9012197F1F7669505
:1003E000415099F7772321F090818923808303C0BE
:1003F0008081982B90831FBF5C968D919C915D9717
:100400000197F1F721E030E0C901DF91CF911F9111
:10041000089520915F01309160012817390771F428
:1004200080915E0120915D0190E0805C9F4F821B76
:10043000910960E470E00E949605089580E090E0E4
:10044000089520915F013091600128173907B9F4B0
:1004500090915D0180915E01981789F0E0915D01B6
:10046000F0E0EC5EFE4F808120915D0130E02F5F77
:100470003F4F2F73332720935D0190E008958FEF56
:100480009FEF0895E0915F01F0916001E817F9078F
:1004900069F4A389B4899C918589809589238C937B
:1004A0001092600110925F0181E0089580E008954C
:1004B0008F929F92AF92BF920F931F93CF93DF9330
:1004C000CDB7DEB7A1970FB6F894DEBF0FBECDBF94
:1004D00019A2423008F44AE08E010F5D1F4F842EAE
:1004E000912CA12CB12CA50194010E94AA05E62F04
:1004F000B901CA0101501109EA3014F4E05D01C0EC
:10050000E95CD801EC93232B242B252B61F70115F3
:10051000110571F0F80101900020E9F73197AF0162
:10052000401B510BB80181E691E00E948D0002C092
:1005300080E090E0A1960FB6F894DEBF0FBECDBF6D
:10054000DF91CF911F910F91BF90AF909F908F90AF
:1005500008950E941C071F920F920FB60F9211244C
:100560002F933F938F939F93AF93BF9380915501A8
:1005700090915601A0915701B091580130915401CA
:1005800023E0230F2D3720F40196A11DB11D05C0D6
:1005900026E8230F0296A11DB11D209354018093DC
:1005A000550190935601A0935701B0935801809143
:1005B000590190915A01A0915B01B0915C010196A3
:1005C000A11DB11D8093590190935A01A0935B0125
:1005D000B0935C01BF91AF919F918F913F912F910B
:1005E0000F900FBE0F901F9018951F920F920FB68D
:1005F0000F9211242F933F934F935F936F937F93A9
:100600008F939F93AF93BF93EF93FF93E0915F011D
:10061000F0916001309709F451C0968DA685B78599
:10062000858591FF04C09C91892329F447C09C9142
:10063000892309F043C0A389B4899C918589809559
:1006400089238C93868997890197F1F7608D718D45
:10065000A685B785558538E020E0CB010197F1F7F5
:10066000822F90E095958795282F4C91452309F08E
:100670002068315091F7868D81FD209580915E0133
:1006800090E001968F73992730915D01381749F0FA
:10069000A0915E01B0E0AC5EBE4F2C9380935E01F2
:1006A00003C0868D8160868F828D938D0197F1F7CF
:1006B000A389B4899C918589892B8C93FF91EF91B3
:1006C000BF91AF919F918F917F916F915F914F916A
:1006D0003F912F910F900FBE0F901F901895CF92C2
:1006E000DF92EF92FF920F931F93E82FF92F05C02F
:1006F000015011092109310961F190819623941764
:10070000B9F305C0015011092109310911F1908196
:1007100096239413F7CFC12CD12CE12CF12C0AC0D5
:100720008FEFC81AD80AE80AF80A0C151D052E051D
:100730003F0579F080818623841791F36C2D7D2D00
:100740008E2D9F2D1F910F91FF90EF90DF90CF90F6
:10075000089560E070E080E090E01F910F91FF90BD
:10076000EF90DF90CF900895789484B5826084BD37
:1007700084B5816084BD85B5826085BD85B58160A5
:1007800085BD80916E00816080936E001092810023
:1007900080918100826080938100809181008160DE
:1007A000809381008091800081608093800080919F
:1007B000B10084608093B1008091B000816080932B
:1007C000B00080917A00846080937A0080917A00F2
:1007D000826080937A0080917A00816080937A00B1
:1007E00080917A00806880937A001092C100109204
:1007F0007C0110927B0110927A0110927901109283
:100800007801109277018DE991E090937E018093B9
:100810007D0190916D01963108F057C02DEB30E0CD
:1008200030937801209377012BE931E030937A01FE
:10083000209379012CE231E030937C0120937B01FD
:1008400020916800983050F031E09E3008F430E09C
:1008500081E001C0880F3A95EAF701C084E0822B5D
:1008600080936800983038F09E3040F0963148F020
:1008700020E030E008C02DE630E005C02BE630E097
:1008800002C02CE630E0309375012093740198305B
:1008900030F481E001C0880F9A95EAF70EC0292F45
:1008A00030E09E3018F42850310902C02E50310932
:1008B00081E001C0880F2A95EAF780937601809144
:1008C0007D0190917E010197F1F780917B019091DC
:1008D0007C01892B21F180915F019091600121E0E1
:1008E00081369207E1F0009711F00E944202809158
:1008F0007F018E7F80937F0110925E0110925D01D7
:1009000081E691E09093600180935F01E091740132
:10091000F0917501908180917601892B80830E94EE
:10092000650161E086E00E94040160E085E00E94CC
:100930000401C3E0D0E043E2E42EF12C53EBC52EDA
:1009400050E0D52E6FE9A62E60E0B62E70E0872E1F
:1009500070E0972E60E086E00E94B800CE0101971B
:10096000F1F761E086E00E94B800C7010197F1F756
:1009700060E086E00E94B800F6016491F501849180
:10098000E82FF0E0EE0FFF1FE057FF4F85919491A5
:1009900000E412E42FE030E0462F0E946F0361155F
:1009A00071058105910539F0DC01CB010196A11D8E
:1009B000B11DBF7003C080E090E0DC01BC01CD013F
:1009C00095958795779567950E9490062DEC3CEC60
:1009D00048EE51E40E94E6050E9458062B013C01B6
:1009E00063367105810591050CF597FF14C0E09100
:1009F0006101F09162010190F081E02D6DE281E6EC
:100A000091E0099566277727CB0164197509860956
:100A100097094AE001C04AE00E94580242E050E0D3
:100A200060E171E081E691E00E948D000E94650125
:100A30008114910409F48ECF0E9400008BCF109294
:100A400064011092630188EE93E0A0E0B0E080932F
:100A5000650190936601A0936701B093680184E0FB
:100A600091E090936201809361011092780110925D
:100A7000770110927A011092790110927C01109204
:100A80007B0110927E0110927D0160917F016E7F4B
:100A90006D7F60937F016695617081E068278BE0D0
:100AA0000E94B80061E08BE00E940401E9EBF0E0F5
:100AB000E491E0937101E5EAF0E0E491F0E0EE0FFB
:100AC000FF1FEE58FF4F859194919093730180938F
:100AD000720160E08AE00E94040180917F0181FD43
:100AE00004C061E08AE00E94B8008AE080936D0152
:100AF000E8EBF0E0E491E0936E01E4EAF0E0E491E9
:100B0000F0E0EE0FFF1FE057FF4F85919491909317
:100B1000700180936F01089584E091E090936201E9
:100B20008093610181E691E00C94420297FB072ECD
:100B300016F4009407D077FD09D00E94CC0507FC7D
:100B400005D03EF4909581959F4F089570956195DD
:100B50007F4F0895A1E21A2EAA1BBB1BFD010DC0F9
:100B6000AA1FBB1FEE1FFF1FA217B307E407F5075D
:100B700020F0A21BB30BE40BF50B661F771F881F39
:100B8000991F1A9469F760957095809590959B01CF
:100B9000AC01BD01CF010895AA1BBB1B51E107C0E9
:100BA000AA1FBB1FA617B70710F0A61BB70B881FFD
:100BB000991F5A95A9F780959095BC01CD0108958C
:100BC000EE0FFF1F0590F491E02D09940E94FA05A5
:100BD0000C94E2060E94DB0658F00E94D40640F016
:100BE00029F45F3F29F00C94CB0651110C941607A1
:100BF0000C94D1060E94F30668F39923B1F35523B0
:100C000091F3951B550BBB27AA276217730784071F
:100C100038F09F5F5F4F220F331F441FAA1FA9F3B5
:100C200035D00E2E3AF0E0E832D091505040E695A3
:100C3000001CCAF72BD0FE2F29D0660F771F881F04
:100C4000BB1F261737074807AB07B0E809F0BB0BF7
:100C5000802DBF01FF2793585F4F3AF09E3F51050B
:100C600078F00C94CB060C9416075F3FE4F3983EA3
:100C7000D4F3869577956795B795F7959F5FC9F7F4
:100C8000880F911D9695879597F90895E1E0660F75
:100C9000771F881FBB1F621773078407BA0720F0EE
:100CA000621B730B840BBA0BEE1F88F7E095089557
:100CB0000E945F066894B1110C94160708950E9473
:100CC000FB0688F09F5798F0B92F9927B751B0F0DD
:100CD000E1F0660F771F881F991F1AF0BA95C9F7C0
:100CE00014C0B13091F00E941507B1E008950C9442
:100CF0001507672F782F8827B85F39F0B93FCCF3F5
:100D0000869577956795B395D9F73EF4909580953C
:100D1000709561957F4F8F4F9F4F0895E89409C05C
:100D200097FB3EF490958095709561957F4F8F4F1E
:100D30009F4F9923A9F0F92F96E9BB279395F69534
:100D4000879577956795B795F111F8CFFAF4BB0FB2
:100D500011F460FF1BC06F5F7F4F8F4F9F4F16C016
:100D6000882311F096E911C0772321F09EE8872FA0
:100D7000762F05C0662371F096E8862F70E060E05C
:100D80002AF09A95660F771F881FDAF7880F9695D5
:100D9000879597F9089597F99F6780E870E060E07C
:100DA00008959FEF80EC089500240A941616170604
:100DB00018060906089500240A941216130614064C
:100DC00005060895092E0394000C11F4882352F0AF
:100DD000BB0F40F4BF2B11F460FF04C06F5F7F4F67
:100DE0008F4F9F4F089557FD9058440F551F59F04E
:100DF0005F3F71F04795880F97FB991F61F09F3F08
:100E000079F087950895121613061406551FF2CF30
:100E10004695F1DF08C0161617061806991FF1CF80
:100E200086957105610508940895E894BB276627A7
:100E30007727CB0197F9089581E090E0F8940C941E
:100E4000210710E0C2E6D0E004C0FE010E94E005E8
:0C0E50002196C336D107C9F7F894FFCFF4
:100E5C0000000000B5018D00090221029C01B401C3
:040E6C000D0A00006B
:00000001FF
