:100000000C945E000C9486000C9486000C94860080
:100010000C9486000C9486000C9486000C94860048
:100020000C9486000C9486000C9486000C94860038
:100030000C9486000C9486000C9486000C94860028
:100040000C94CB030C9486000C94BE060C94F00622
:100050000C9486000C9486000C9486000C94860008
:100060000C9486000C948600000000080002010039
:100070000003040700000000000000000102040863
:100080001020408001020408102001020408102002
:10009000040404040404040402020202020203032E
:1000A0000303030300000000250028002B000000CC
:1000B0000000240027002A007A01200711241FBE17
:1000C000CFEFD8E0DEBFCDBF11E0A0E0B1E0ECE3C0
:1000D000F7E102C005900D92AE3AB107D9F722E0E0
:1000E000AEEAB1E001C01D92AB3AB207E1F710E011
:1000F000CCEBD0E004C02297FE010E94980BC83BD5
:10010000D107C9F70E9464070C949C0B0C94000063
:1001100040ED57E060E070E08EEC91E00E94320329
:1001200020E032EC41E050E06EE072E08EEC91E0D5
:100130000E9445038EEC91E00E942F0361E071E084
:100140008091FF01909100020E94B1076AE070E087
:1001500080E090E00E94440441E060E08EEC91E099
:100160000E94B00320E042E060E18EEA91E00C944E
:100170004302CF92DF92EF92FF920F931F930E9460
:100180001504672B682B692B41F40E94150462301B
:1001900071058105910508F476C00E9415046093ED
:1001A000C6017093C7018093C8019093C901009163
:1001B000CA011091CB012091CC013091CD01601783
:1001C00071078207930740F46093CA017093CB01D3
:1001D0008093CC019093CD010091CA011091CB0185
:1001E0002091CC013091CD016B017C01C01AD10A64
:1001F000E20AF30A970186010A3F1105210531053C
:1002000008F441C06093CA017093CB018093CC0184
:100210009093CD018EEC91E00E942F0363E171E099
:100220008091FF01909100020E94B1076BE171E0A3
:100230008091FF01909100020E94B1070E94150475
:10024000AB01BC012AE030E08091FF0190910002F7
:100250000E9453086DE171E08091FF0190910002CE
:100260000E94B10762E070E080E090E00E944404E8
:100270006AE070E080E090E00E94440461E08EEC6F
:1002800091E00E94720340E060E08EEA91E00E94FB
:10029000290281E00E94C4048C0166E271E08EEACA
:1002A00091E00E94B107B801882777FD8095982FCB
:1002B0000E94590A20E030E04AEF5EE30E940D0BF5
:1002C000AB01BC0122E030E08EEA91E00E945209CD
:1002D0006DE271E08EEA91E00E94B10768EE73E092
:1002E00080E090E01F910F91FF90EF90DF90CF9012
:1002F0000C944404CF92EF920F9387E0C82E96E0BF
:10030000E92E05E024E049E068E08EEA91E00E94F1
:10031000E1020F91EF90CF900895CF93DF93EC011E
:1003200060E08E810E94430581E090E00E947E049F
:1003300061E08E810E94430581E090E00E947E048E
:1003400060E08E810E94430584E690E0DF91CF91CA
:100350000C947E04EF92FF920F931F93CF93DF9341
:100360008C01C0E0D0E0E62EF12CB7010C2E02C0CB
:10037000759567950A94E2F76170F801EC0FFD1F1F
:1003800087810E9443052196C430D10571F7C801C9
:10039000DF91CF911F910F91FF90EF900C948D0101
:1003A000EF92FF920F931F93CF93DF938C01C0E0E6
:1003B000D0E0E62EF12CB7010C2E02C075956795A2
:1003C0000A94E2F76170F801EC0FFD1F87810E942B
:1003D00043052196C830D10571F7C801DF91CF914F
:1003E0001F910F91FF90EF900C948D011F93CF936D
:1003F000DF93EC01162F642F8C810E9443058D81C1
:100400008F3F19F060E00E9443058F85612F84FFC4
:1004100006C0CE01DF91CF911F910C94D00170E006
:1004200084E0759567958A95E1F7CE010E94AA014F
:10043000612FCE01DF91CF911F910C94AA0140E072
:100440000C94F60161E00E941F0280ED97E00C948D
:100450007E04443008F043E0FC012389421710F089
:100460004FEF420FFC01E40FF11D2489260F206895
:10047000622F0C941F02FC016089262F2460208BC0
:100480006C600C941F020F931F93CF93DF93EC01CA
:10049000423018F08F8588608F874B8B1C8A80E4F0
:1004A0008D8B6E8B70E0605C7F4F6F8B222329F009
:1004B000413019F48F8584608F8761E08C810E94C0
:1004C0000A058D818F3F19F061E00E940A0561E005
:1004D0008E810E940A0500E010E08F8584FF03C032
:1004E00088E090E002C084E090E00817190754F417
:1004F000FE01E00FF11F61E087810E940A050F5F96
:100500001F4FEBCF80E593EC0E947E0460E08C816E
:100510000E94430560E08E810E9443058D818F3FDC
:1005200019F060E00E9443056F8564FD1DC063E023
:10053000CE010E94AA0184E991E10E947E0463E059
:10054000CE010E94AA0184E991E10E947E0463E049
:10055000CE010E94AA0186E990E00E947E0462E03A
:10056000CE010E94AA0116C06062CE010E941F0245
:1005700084E991E10E947E046F856062CE010E9451
:100580001F0286E990E00E947E046F856062CE01C2
:100590000E941F026F856062CE010E941F0284E0EC
:1005A000888BCE010E943B02CE010E94220282E093
:1005B000898B66E0CE01DF91CF911F910F910C9452
:1005C0001F02CF92EF920F93FC011382128284E3F9
:1005D00091E09183808364838FEF858346832783B3
:1005E0000087E186C28613861486158616861786CE
:1005F00020E041E060E1CF010F91EF90CF900C94AB
:10060000430241E00E94F60181E090E008950F93DB
:100610001F93CF93DF93EC01662359F00E941504DA
:1006200069837A838B839C83DF91CF911F910F9194
:1006300008950E94150409811A812B813C81601B59
:10064000710B820B930B693171058105910530F7B0
:1006500063E070E080E090E00E944404EACF60E054
:100660000C940703FC0113AA14AA15AA16AA118256
:10067000128213821482411551056105710521F022
:10068000CB01BA010C9444040895FB01BA01A901FD
:10069000DC01D296FC93EE93D19726E0CF010C9427
:1006A0005C061F93CF93DF93EC01162F68E371E094
:1006B00089A99AA90E94B1074AE050E0612F89A94F
:1006C0009AA90E9460086FE371E089A99AA90E9423
:1006D000B10762E370E080E090E0DF91CF911F917D
:1006E0000C9444041F93CF93DF93EC01162F8D815C
:1006F000882389F189A99AA9DC01ED91FC910480F4
:10070000F581E02D0995892BA9F307C0263731051E
:1007100019F12835310509F41D8289A99AA9DC014E
:10072000ED91FC910480F581E02D099518161906CC
:1007300094F489A99AA9DC01ED91FC910680F781D6
:10074000E02D09959C01332723363105F9F6612FF9
:10075000CE010E94510383E6DF91CF911F9108954E
:100760000F931F93CF93DF931F92CDB7DEB78C010A
:10077000662349F081E0F801858360E0C801498380
:100780000E9472034981F80145830F90DF91CF9158
:100790001F910F9108951F920F920FB60F9211247F
:1007A0002F933F938F939F93AF93BF9380910602B4
:1007B00090910702A0910802B091090230910502C0
:1007C00023E0230F2D3720F40196A11DB11D05C094
:1007D00026E8230F0296A11DB11D209305028093E8
:1007E000060290930702A0930802B0930902809139
:1007F0000A0290910B02A0910C02B0910D02019699
:10080000A11DB11D80930A0290930B02A0930C02CC
:10081000B0930D02BF91AF919F918F913F912F9116
:100820000F900FBE0F901F9018952FB7F8946091FE
:1008300006027091070280910802909109022FBF71
:1008400008953FB7F89480910A0290910B02A0910D
:100850000C02B0910D0226B5A89B05C02F3F19F0E0
:100860000196A11DB11D3FBF6627782F892F9A2FB2
:10087000620F711D811D911D42E0660F771F881F59
:10088000991F4A95D1F708958F929F92AF92BF9288
:10089000CF92DF92EF92FF926B017C010E942104C4
:1008A0004B015C01C114D104E104F104F1F00E9498
:1008B00054090E942104681979098A099B09683E34
:1008C00073408105910570F321E0C21AD108E10857
:1008D000F10888EE880E83E0981EA11CB11CC1149B
:1008E000D104E104F10429F7DDCFFF90EF90DF9010
:1008F000CF90BF90AF909F908F90089582309105D8
:1009000038F0880F991F880F991F05970197F1F705
:100910000895789484B5826084BD84B5816084BD77
:1009200085B5826085BD85B5816085BDEEE6F0E068
:10093000808181608083E1E8F0E0108280818260C4
:100940008083808181608083E0E8F0E08081816045
:100950008083E1EBF0E0808184608083E0EBF0E075
:10096000808181608083EAE7F0E080818460808319
:1009700080818260808380818160808380818068C3
:1009800080831092C10008958E3008F08E508770D9
:100990002091000190E4299F90011124822B8093E3
:1009A0007C0080917A00806480937A0080917A0044
:1009B00086FDFCCF809178002091790090E0922B09
:1009C0000895833081F028F4813099F08230A1F0CD
:1009D00008958730A9F08830B9F08430D1F480913F
:1009E00080008F7D03C0809180008F77809380008E
:1009F000089584B58F7702C084B58F7D84BD089536
:100A00008091B0008F7703C08091B0008F7D80937C
:100A1000B0000895CF93DF9390E0FC01E458FF4FBE
:100A20002491FC01E057FF4F8491882349F190E025
:100A3000880F991FFC01E255FF4FA591B4918C5589
:100A40009F4FFC01C591D4919FB7611108C0F894E4
:100A50008C91209582238C93888182230AC06230F6
:100A600051F4F8948C91322F309583238C938881A4
:100A7000822B888304C0F8948C91822B8C939FBF27
:100A8000DF91CF9108950F931F93CF93DF931F9220
:100A9000CDB7DEB7282F30E0F901E859FF4F849138
:100AA000F901E458FF4F1491F901E057FF4F049109
:100AB0000023C9F0882321F069830E94E104698141
:100AC000E02FF0E0EE0FFF1FEC55FF4FA591B49122
:100AD0009FB7F8948C91611103C01095812301C0D8
:100AE000812B8C939FBF0F90DF91CF911F910F911E
:100AF0000895FC01818D228D90E0805C9F4F821BC8
:100B000091098F7399270895FC01918D828D981713
:100B100031F0828DE80FF11D858D90E008958FEF03
:100B20009FEF0895FC01918D828D981761F0828D61
:100B3000DF01A80FB11D5D968C91928D9F5F9F7311
:100B4000928F90E008958FEF9FEF089586E197E0F0
:100B5000892B49F080E090E0892B29F00E9416074C
:100B600081110C9400000895FC01848DDF01A80F11
:100B7000B11DA35ABF4F2C91848D90E001968F73C5
:100B80009927848FA689B7892C93A089B1898C91E4
:100B900080648C93938D848D981306C00288F389AA
:100BA000E02D80818F7D80830895CF93DF93EC01CA
:100BB000888D8823C9F0EA89FB89808185FD05C07D
:100BC000A889B9898C9186FD0FC00FB607FCF5CFB7
:100BD000808185FFF2CFA889B9898C9185FFEDCFFF
:100BE000CE010E94B405E7CFDF91CF910895CF9257
:100BF000DF92FF920F931F93CF93DF931F92CDB796
:100C0000DEB76C0181E0D60158968C9358975B96BD
:100C10009C915B975C968C915C97981307C050965B
:100C2000ED91FC915197808185FD2EC0F601038DD9
:100C300010E00F5F1F4F0F731127F02EF601848D08
:100C4000F81211C00FB607FCF9CFD6015096ED91FE
:100C5000FC915197808185FFF1CFC60169830E9485
:100C6000B4056981EBCF838DE80FF11DE35AFF4F87
:100C70006083D6015B960C935B975296ED91FC9145
:100C80005397808180620CC0D6015696ED91FC91FD
:100C9000579760835096ED91FC91519780818064C5
:100CA000808381E090E00F90DF91CF911F910F91B1
:100CB000FF90DF90CF900895BF92CF92DF92EF9296
:100CC000FF92CF93DF93EC016A017B01B22EE8899A
:100CD000F98982E08083411581EE5807610571052D
:100CE000A1F060E079E08DE390E0A70196010E9419
:100CF000740B215031094109510956954795379593
:100D00002795211580E1380798F0E889F989108244
:100D100060E874E88EE190E0A70196010E94740BF0
:100D20002150310941095109569547953795279525
:100D3000EC85FD853083EE85FF852083188EEC8958
:100D4000FD89B082EA89FB89808180618083EA899C
:100D5000FB89808188608083EA89FB898081806843
:100D60008083EA89FB8980818F7D8083DF91CF91A9
:100D7000FF90EF90DF90CF90BF9008951F920F9259
:100D80000FB60F9211242F938F939F93EF93FF939E
:100D9000E0911E02F0911F028081E0912402F09107
:100DA000250282FD12C09081809127028F5F8F7390
:100DB00020912802821751F0E0912702F0E0E25FD3
:100DC000FD4F958F8093270201C08081FF91EF91A5
:100DD0009F918F912F910F900FBE0F901F9018959C
:100DE0001F920F920FB60F9211242F933F934F93A0
:100DF0005F936F937F938F939F93AF93BF93EF9383
:100E0000FF938EE092E00E94B405FF91EF91BF91B5
:100E1000AF919F918F917F916F915F914F913F9192
:100E20002F910F900FBE0F901F9018958EE092E0BB
:100E30000E94790521E0892B09F420E0822F089592
:100E4000109211021092100288EE93E0A0E0B0E040
:100E50008093120290931302A0931402B093150290
:100E600084E991E090930F0280930E0285EC90E06C
:100E700090931B0280931A0284EC90E090931D02E1
:100E800080931C0280EC90E090931F0280931E02DE
:100E900081EC90E0909321028093200282EC90E01C
:100EA000909323028093220286EC90E09093250297
:100EB0008093240210922702109228021092290295
:100EC00010922A02089508950E9489040E946307DF
:100ED0000E948800C6EAD5E00E94B9002097E1F39D
:100EE0000E94A605F9CFCF92DF92EF92FF920F9367
:100EF0001F93CF93DF937C016A01EB0100E010E0C8
:100F00000C151D0571F06991D701ED91FC910190CF
:100F1000F081E02DC7010995892B19F00F5F1F4F54
:100F2000EFCFC801DF91CF911F910F91FF90EF900C
:100F3000DF90CF9008956115710581F0DB010D9070
:100F40000020E9F7AD0141505109461B570BDC0168
:100F5000ED91FC910280F381E02D099480E090E016
:100F600008950C949B07DC01ED91FC910190F081B8
:100F7000E02D09948F929F92AF92BF92DF92EF92F1
:100F8000FF920F931F93CF93DF93CDB7DEB7A19757
:100F90000FB6F894DEBF0FBECDBF7C01F42FD52E67
:100FA000CB0119A2223008F42AE08E010F5D1F4FF9
:100FB000822E912CA12CB12C6F2F7D2DA501940197
:100FC0000E94740BF22FD32ECA01015011096A300E
:100FD00014F4E0E301C0E7E3E60FD801EC93232B20
:100FE000242B252B49F7B801C7010E949B07A19626
:100FF0000FB6F894DEBF0FBECDBFDF91CF911F912A
:101000000F91FF90EF90DF90BF90AF909F908F90E7
:101010000895CF92DF92EF92FF920F931F93CF9399
:10102000DF93EC016A017B012115310579F4E88138
:10103000F9810190F081E02D642FDF91CF911F9114
:101040000F91FF90EF90DF90CF9009942A303105F7
:10105000E9F477FF1AC06DE20E94B3078C014427C0
:101060005527BA014C195D096E097F092AE0CE01A6
:101070000E94BA07800F911FDF91CF911F910F91AE
:10108000FF90EF90DF90CF9008952AE0B701A6017E
:10109000CE01DF91CF911F910F91FF90EF90DF90E4
:1010A000CF900C94BA072115310541F4DC01ED9184
:1010B000FC910190F081E02D642F09940C94BA0703
:1010C0009A01462F50E060E070E00C9453084F9274
:1010D0005F926F927F928F929F92AF92BF92CF92C8
:1010E000DF92EF92FF920F931F93CF93DF93EC0168
:1010F0006A017B01B22E9A01AB01C701B6010E94C1
:10110000700B882319F060EA71E027C026013701CF
:10111000E89477F82FEF3FEF4FE75FE7C301B201A5
:101120000E94700B81110DC02FEF3FEF4FE75FE77B
:10113000C301B2010E94BA0918161CF464EA71E0F6
:101140000CC02FEF3FEF4FE75FE4C701B6010E94ED
:10115000090B1816ACF468EA71E0CE01DF91CF916B
:101160001F910F91FF90EF90DF90CF90BF90AF90C5
:101170009F908F907F906F905F904F900C949B0703
:101180002FEF3FEF4FE75FECC701B6010E94BA09AE
:1011900087FDE1CF20E030E0A901C701B6010E9440
:1011A000BA0987FF0AC06DE2CE010E94B3078C0125
:1011B000F7FAF094F7F8F09402C000E010E0A12CE8
:1011C00060E070E080E09FE3AB1441F020E030E0AD
:1011D00040E251E40E94BE09A394F6CF9B01AC010A
:1011E000C701B6010E9456096B017C010E942B0ABF
:1011F0002B013C010E94570A9B01AC01C701B601BB
:101200000E9455096B017C012AE0B301A201CE01C5
:101210000E94BA07080F191FBB2039F06CEA71E071
:10122000CE010E949B07080F191F7B2C772041F1EC
:1012300020E030E040E251E4C701B6010E940D0B0E
:101240006B017C010E94260A4B01AA2497FCA09402
:10125000BA2C2AE030E0B501A401CE010E940908B1
:10126000080F191FC501B4010E94590A9B01AC0166
:10127000C701B6010E9455096B017C017A94D6CF53
:10128000C801DF91CF911F910F91FF90EF90DF90F8
:10129000CF90BF90AF909F908F907F906F905F9016
:1012A0004F9008950C94670808955058BB27AA27BB
:1012B0000ED075C166D130F06BD120F031F49F3F74
:1012C00011F41EF45BC10EF4E095E7FB51C1E92F68
:1012D00077D180F3BA17620773078407950718F070
:1012E00071F49EF58FC10EF4E0950B2EBA2FA02D50
:1012F0000B01B90190010C01CA01A0011124FF27C3
:10130000591B99F0593F50F4503E68F11A16F040BD
:10131000A22F232F342F4427585FF3CF46953795BC
:101320002795A795F0405395C9F77EF41F16BA0B81
:10133000620B730B840BBAF09150A1F0FF0FBB1F2F
:10134000661F771F881FC2F70EC0BA0F621F731F78
:10135000841F48F4879577956795B795F7959E3FD5
:1013600008F0B3CF9395880F08F09927EE0F979563
:1013700087950895D9D008F481E008950CD00FC165
:1013800007D140F0FED030F021F45F3F19F0F0C0FB
:10139000511139C1F3C014D198F39923C9F35523DE
:1013A000B1F3951B550BBB27AA2762177307840758
:1013B00038F09F5F5F4F220F331F441FAA1FA9F30E
:1013C00033D00E2E3AF0E0E830D091505040E69500
:1013D000001CCAF729D0FE2F27D0660F771F881F61
:1013E000BB1F261737074807AB07B0E809F0BB0B50
:1013F000802DBF01FF2793585F4F2AF09E3F510574
:1014000068F0B6C000C15F3FECF3983EDCF3869510
:1014100077956795B795F7959F5FC9F7880F911DE9
:101420009695879597F90895E1E0660F771F881FD5
:10143000BB1F621773078407BA0720F0621B730B88
:10144000840BBA0BEE1F88F7E095089504D06894DA
:10145000B111D9C00895BCD088F09F5790F0B92F32
:101460009927B751A0F0D1F0660F771F881F991FF9
:101470001AF0BA95C9F712C0B13081F0C3D0B1E00B
:101480000895C0C0672F782F8827B85F39F0B93F1B
:10149000CCF3869577956795B395D9F73EF49095FB
:1014A0008095709561957F4F8F4F9F4F0895E89479
:1014B00009C097FB3EF490958095709561957F4F9C
:1014C0008F4F9F4F9923A9F0F92F96E9BB2793954A
:1014D000F695879577956795B795F111F8CFFAF45A
:1014E000BB0F11F460FF1BC06F5F7F4F8F4F9F4F8B
:1014F00016C0882311F096E911C0772321F09EE8E9
:10150000872F762F05C0662371F096E8862F70E04E
:1015100060E02AF09A95660F771F881FDAF7880F28
:101520009695879597F90895990F0008550FAA0B7E
:10153000E0E8FEEF16161706E807F907C0F01216E6
:101540001306E407F50798F0621B730B840B950BE9
:1015500039F40A2661F0232B242B252B21F408953E
:101560000A2609F4A140A6958FEF811D811D0895DB
:1015700097F99F6780E870E060E008959FEF80EC46
:10158000089500240A9416161706180609060895E9
:1015900000240A9412161306140605060895092E4F
:1015A0000394000C11F4882352F0BB0F40F4BF2BBE
:1015B00011F460FF04C06F5F7F4F8F4F9F4F0895FE
:1015C00057FD9058440F551F59F05F3F71F04795F4
:1015D000880F97FB991F61F09F3F79F087950895D9
:1015E000121613061406551FF2CF4695F1DF08C0F8
:1015F000161617061806991FF1CF86957105610515
:1016000008940895E894BB2766277727CB0197F9BC
:1016100008958ADF08F48FEF08950BD0C0CFB1DFB3
:1016200028F0B6DF18F0952309F0A2CFA7CF112438
:10163000EACFC6DFA0F3959FD1F3950F50E0551F79
:10164000629FF001729FBB27F00DB11D639FAA2717
:10165000F00DB11DAA1F649F6627B00DA11D661F66
:10166000829F2227B00DA11D621F739FB00DA11D87
:10167000621F839FA00D611D221F749F3327A00D41
:10168000611D231F849F600D211D822F762F6A2FDD
:1016900011249F5750408AF0E1F088234AF0EE0F62
:1016A000FF1FBB1F661F771F881F91505040A9F76F
:1016B0009E3F510570F05CCFA6CF5F3FECF3983EA4
:1016C000DCF3869577956795B795F795E7959F5FD6
:1016D000C1F7FE2B880F911D9695879597F9089570
:1016E00023DF880B990B0895A1E21A2EAA1BBB1BBE
:1016F000FD010DC0AA1FBB1FEE1FFF1FA217B307DE
:10170000E407F50720F0A21BB30BE40BF50B661FF3
:10171000771F881F991F1A9469F7609570958095B7
:1017200090959B01AC01BD01CF010895EE0FFF1F05
:0C1730000590F491E02D0994F894FFCF8F
:10173C0001564D4450565F317C315F564D445056E6
:10174C000D0A00564D4450455F31007C005F564DEC
:10175C004450450D0A0054656D703A20002043003A
:10176C000000000001037307564D4450435F005FB7
:10177C00564D4450430D0A004572726F723A204127
:10178C007474656D707420746F207365742061209F
:10179C00726561642D6F6E6C79207661726961621D
:1017AC006C65206F7220646174612074797065209F
:1017BC006E6F7420737570706F727465640D0A00AF
:1017CC0000000000F7057307790592058405D5051F
:0E17DC006E616E00696E66006F7666002E000C
:00000001FF
