:100000000C9463000C948B000C948B000C943602BF
:100010000C9436020C9436020C948B000C948B00DA
:100020000C948B000C948B000C948B000C948B0024
:100030000C948B000C948B000C948B000C948B0014
:100040000C94EC010C948B000C948B000C948B00A2
:100050000C948B000C948B000C948B000C948B00F4
:100060000C948B000C948B000000000024002700EF
:100070002A000000000023002600290000000000E4
:10008000250028002B0004040404040404040202D4
:100090000202020203030303030301020408102007
:1000A0004080010204081020010204081020000012
:1000B0000008000201000003040700000000000027
:1000C0000000FA02C50311241FBECFEFD8E0DEBF47
:1000D000CDBF11E0A0E0B1E0E6EDFCE002C005908C
:1000E0000D92A632B107D9F721E0A6E2B1E001C036
:1000F0001D92A23AB207E1F710E0C2E6D0E004C0D8
:100100002197FE010E941504C136D107C9F70E944C
:10011000B0020C945E060C940000CF92DF92EF9236
:10012000FF920F931F93CF93DF936C017A018B01A2
:10013000C0E0D0E0CE15DF0589F0D8016D918D01CA
:10014000D601ED91FC910190F081E02DC601099559
:10015000892B11F47E0102C02196ECCFC701DF91FB
:10016000CF911F910F91FF90EF90DF90CF90089566
:1001700090E0FC01E255FF4F3491FC01E656FF4F41
:100180002491FC01EA57FF4FE491EE2309F43BC0B0
:10019000332339F1333091F038F43130A9F0323073
:1001A00001F584B58F7D12C0373091F03830A1F061
:1001B0003430B9F4809180008F7D03C0809180003D
:1001C0008F77809380000DC084B58F7784BD09C080
:1001D0008091B0008F7703C08091B0008F7D8093B5
:1001E000B000F0E0EE0FFF1FE458FF4FA591B4916F
:1001F0008FB7F894EC91611103C020952E2301C0B4
:100200002E2B2C938FBF0895209193013091940150
:100210002817390771F490919201809191019817F4
:1002200041F0E0919201F0E0EF5AFE4F808190E0C2
:1002300008958FEF9FEF089508951F93CF93DF9355
:10024000DC015C962D913C915D972115310539F4C7
:1002500081E090E013969C938E9312973DC0519647
:10026000ED91FC91529750969C915097892F8095D3
:100270001FB75E964C915E9741FB772770F941FD61
:100280006095F8944081772311F0492B01C04823F1
:100290004083E9012197F1F748E0508160FF02C0F7
:1002A000592B01C058235083E9012197F1F7669536
:1002B000415099F7772321F090818923808303C0EF
:1002C0008081982B90831FBF5C968D919C915D9748
:1002D0000197F1F721E030E0C901DF91CF911F9143
:1002E000089520919301309194012817390771F4F2
:1002F000809191012091920190E0805C9F4F821B40
:10030000910960E470E00E94ED03089580E090E0C0
:100310000895209193013091940128173907B9F479
:100320009091920180919101981789F0E09192014A
:10033000F0E0EF5AFE4F80812091920130E02F5F74
:100340003F4F2F7333272093920190E008958FEF52
:100350009FEF0895EF92FF920F931F93CF93DF9338
:10036000EC017B018A0188819981009729F02A811B
:100370003B8124173507F8F4B8016F5F7F4F0E9467
:100380004805009759F0998388831B830A832C8141
:100390003D81232B81F4FC0110820DC0888199815D
:1003A000009711F00E94B004198218821D821C82ED
:1003B0001B821A8207C01D830C83B7018881998133
:1003C0000E942006CE01DF91CF911F910F91FF90E7
:1003D000EF9008950E9412061F920F920FB60F928F
:1003E00011242F933F938F939F93AF93BF9380914B
:1003F0009A0190919B01A0919C01B0919D01309137
:10040000990123E0230F2D3720F40196A11DB11D82
:1004100005C026E8230F0296A11DB11D2093990166
:1004200080939A0190939B01A0939C01B0939D01AE
:100430008091950190919601A0919701B0919801BA
:100440000196A11DB11D8093950190939601A093F3
:100450009701B0939801BF91AF919F918F913F9178
:100460002F910F900FBE0F901F9018951F920F9213
:100470000FB60F9211242F933F934F935F936F9377
:100480007F938F939F93AF93BF93EF93FF93E091ED
:100490009301F0919401309709F451C0968DA6858F
:1004A000B785858591FF04C09C91892329F447C0B5
:1004B0009C91892309F043C0A389B4899C918589C3
:1004C000809589238C93868997890197F1F7608DB0
:1004D000718DA685B785558538E020E0CB01019761
:1004E000F1F7822F90E095958795282F4C91452321
:1004F00009F02068315091F7868D81FD209580911B
:10050000910190E001968F739927309192013817ED
:1005100049F0A0919101B0E0AF5ABE4F2C93809367
:10052000910103C0868D8160868F828D938D0197A6
:10053000F1F7A389B4899C918589892B8C93FF91CC
:10054000EF91BF91AF919F918F917F916F915F914B
:100550004F913F912F910F900FBE0F901F901895C4
:10056000789484B5826084BD84B5816084BD85B58E
:10057000826085BD85B5816085BD80916E0081609A
:1005800080936E0010928100809181008260809340
:100590008100809181008160809381008091800042
:1005A0008160809380008091B10084608093B1006D
:1005B0008091B00081608093B00080917A00846067
:1005C00080937A0080917A00826080937A00809193
:1005D0007A00816080937A0080917A0080688093AD
:1005E0007A001092C100C0E0D0E02097F1F30E94A1
:1005F0000000FBCFCF93DF931092350110923401AE
:1006000088EE93E0A0E0B0E080933601909337014C
:10061000A0933801B09339018AE091E090933301BF
:1006200080933201109249011092480110924B01BF
:1006300010924A0110924D0110924C0110924F01FC
:1006400010924E01609150016E7F6D7F609350015A
:100650006695617081E068278BE00E94B800E5EA4A
:10066000F0E02491E1E9F0E08491882399F090E0B2
:10067000880F991FFC01E859FF4FA591B491FC0127
:10068000E458FF4F859194918FB7F894EC91E22B49
:10069000EC938FBFE5EAF0E0E491E0934201E1E9F9
:1006A000F0E0E491F0E0EE0FFF1FE458FF4F85917A
:1006B00094919093440180934301E4EAF0E0249103
:1006C000E0E9F0E084918823C1F090E0880F991F61
:1006D000FC01E859FF4FC591D491FC01E458FF4F4C
:1006E000A591B4919FB7F8948881E22FE0958E236D
:1006F00088838C91E823EC939FBF8091500181FD0A
:1007000004C061E08AE00E94B8008AE080933E0164
:10071000E4EAF0E0E491E0933F01E0E9F0E0E49105
:10072000F0E0EE0FFF1FEE58FF4F859194919093EC
:1007300041018093400110922D0110922C011092E2
:100740002F0110922E01109231011092300145E0DC
:1007500050E066E171E08CE291E00E94AA01109203
:10076000270110922601109229011092280110925F
:100770002B0110922A0148E050E06CE171E086E222
:1007800091E0DF91CF910C94AA0180912601909184
:1007900027010E94B00480912C0190912D010E94AC
:1007A000B0048AE091E0909333018093320180910C
:1007B0009301909194018253914071F4E09145012D
:1007C000F091460190818091470180958923808333
:1007D0001092940110929301089597FB072E16F43E
:1007E000009407D077FD09D00E94010407FC05D0D2
:1007F0003EF4909581959F4F0895709561957F4F38
:100800000895AA1BBB1B51E107C0AA1FBB1FA61757
:10081000B70710F0A61BB70B881F991F5A95A9F7A9
:1008200080959095BC01CD010895EE0FFF1F0590B6
:10083000F491E02D0994CF93DF938230910510F469
:1008400082E090E0E091A001F091A10120E030E091
:10085000C0E0D0E0309711F140815181481759072D
:10086000C0F04817590761F482819381209719F0ED
:100870009B838A832BC09093A1018093A00126C003
:100880002115310519F04217530718F49A01BE01DA
:10089000DF01EF010280F381E02DDCCF211531056E
:1008A00009F1281B390B2430310590F412968D91F3
:1008B0009C9113976115710521F0FB01938382834D
:1008C00004C09093A1018093A001FD01329644C021
:1008D000FD01E20FF31F81939193225031092D9373
:1008E0003C933AC020919E0130919F01232B41F40B
:1008F000209102013091030130939F0120939E01CA
:1009000020910001309101012115310541F42DB7ED
:100910003EB74091040150910501241B350BE09135
:100920009E01F0919F01E217F307A0F42E1B3F0BED
:100930002817390778F0AC014E5F5F4F2417350751
:1009400048F04E0F5F1F50939F0140939E0181938B
:10095000919302C0E0E0F0E0CF01DF91CF910895E4
:100960000F931F93CF93DF93009709F48CC0FC0182
:100970003297138212820091A0011091A1010115FA
:10098000110581F420813181820F931F20919E01F6
:1009900030919F012817390779F5F0939F01E09373
:1009A0009E0171C0D80140E050E0AE17BF0750F47F
:1009B00012962D913C911397AD012115310509F146
:1009C000D901F3CF9D01DA013383228360817181E4
:1009D000860F971F8217930769F4EC0128813981EC
:1009E000260F371F2E5F3F4F318320838A819B81E3
:1009F00093838283452B29F4F093A101E093A00116
:100A000042C01396FC93EE931297ED0149915991D0
:100A10009E01240F351FE217F30771F48081918145
:100A2000840F951F029611969C938E9382819381D9
:100A300013969C938E931297E0E0F0E0D801129603
:100A40008D919C911397009719F0F8018C01F6CFC6
:100A50008D919C9198012E5F3F4F820F931F2091A3
:100A60009E0130919F012817390769F4309729F4C6
:100A70001092A1011092A00102C013821282109361
:100A80009F0100939E01DF91CF911F910F910895D7
:100A9000A0E0B0E0EEE4F5E00C942B06EC0100974A
:100AA00021F4CB010E941B04B8C0FC01E60FF71F24
:100AB0009C0122503109E217F30708F4ACC0D901B8
:100AC0000D911C91119706171707B0F0053011050D
:100AD00008F49FC0C80104978617970708F499C0C7
:100AE00002501109061B170B019311936D937C9310
:100AF000CF010E94B0048DC05B01A01AB10A4C0165
:100B0000800E911EA091A001B091A10140E050E0A3
:100B1000E12CF12C109709F44AC0A815B905D1F5BC
:100B20006D907C901197630182E0C80ED11CCA14AD
:100B3000DB0480F1A3014A195B096A0182E0C80E57
:100B4000D11C1296BC9012971396AC91B5E0CB16BF
:100B5000D10440F0B282A38351834083D9016D93C5
:100B60007C930AC00E5F1F4FC301800F911FF901D4
:100B700091838083EB2DFA2FE114F10431F0D7013A
:100B80001396FC93EE93129744C0F093A101E09367
:100B9000A0013FC08D919C9111974817590708F407
:100BA000AC017D0112960D90BC91A02DB3CF809128
:100BB0009E0190919F0188159905E1F4461757070A
:100BC000C8F48091000190910101009741F48DB724
:100BD0009EB74091040150910501841B950BE817C5
:100BE000F907C8F4F0939F01E0939E01F901718326
:100BF00060830FC0CB010E941B047C01009759F059
:100C0000A801BE010E941706CE010E94B004C701D0
:100C100004C0CE0102C080E090E0CDB7DEB7EEE0C8
:100C20000C94470681E090E0F8940C945E06FB017A
:100C3000DC0102C001900D9241505040D8F7089558
:100C4000FB01DC0101900D920020E1F708952F9245
:100C50003F924F925F926F927F928F929F92AF924C
:100C6000BF92CF92DF92EF92FF920F931F93CF9399
:100C7000DF93CDB7DEB7CA1BDB0B0FB6F894DEBF30
:100C80000FBECDBF09942A88398848885F846E8456
:100C90007D848C849B84AA84B984C884DF80EE80A0
:100CA000FD800C811B81AA81B981CE0FD11D0FB6A9
:100CB000F894DEBF0FBECDBFED01089510E0C2E68F
:100CC000D0E004C0FE010E9415042196C336D1076E
:060CD000C9F7F894FFCF04
:100CD6000000A2018000000000001D018D007101CE
:100CE600890104011C0148432D3035003936303066
:060CF6002C302C30000040
:00000001FF
