:100000000C9464000C948C000C948C000C940B02E7
:100010000C940B020C940B020C948C000C948C002E
:100020000C948C000C948C000C948C000C948C0020
:100030000C948C000C948C000C948C000C948C0010
:100040000C9460040C948C000C9454070C94860758
:100050000C948C000C948C000C948C000C948C00F0
:100060000C948C000C948C0000000008000201002D
:100070000003040700000000000000000102040863
:100080001020408001020408102001020408102002
:10009000040404040404040402020202020203032E
:1000A00003030303000000002300260029000000D2
:1000B0000000250028002B0000000000240027007D
:1000C0002A001D01B607240111241FBECFEFD8E07E
:1000D000DEBFCDBF12E0A0E0B1E0EEE7F2E102C08A
:1000E00005900D92AE38B107D9F723E0AEE8B2E043
:1000F00001C01D92A03DB207E1F710E0C6ECD0E0D0
:1001000004C02297FE010E942E09C23CD107C9F704
:100110000E94FA070C9432090C94000040ED57E05D
:1001200060E070E083EF92E00E94C70320E032ECD1
:1001300041E050E063E373E083EF92E00E94DA0372
:1001400083EF92E00E94C4036AE071E0809124038F
:10015000909125030E9447086AE070E080E090E0FB
:100160000E94D90441E060E083EF92E00E944504E0
:1001700061E0809108010E94770561E080910601AD
:100180000E94770561E0809104010E94770561E09B
:10019000809102010E94770560E0809100010E9439
:1001A000770561E08DE00E94770560E08CE00E94B9
:1001B000770540E855E260E070E080E992E00E9457
:1001C0000E036CE171E080E992E00C944D0880919F
:1001D00000010E94E60590938F0280938E020097A3
:1001E00061F462E771E083E393E00E944D0860E010
:1001F000809102010E94B00513C0019789F46CE759
:1002000071E083E393E00E944D0861E08091020178
:100210000E94B00568EB7BE080E090E00E94D9048A
:1002200060E0809102010E94B00564E670E080E029
:1002300090E00C94D9040C94E70020E04BE06AE0D5
:1002400080E992E00C94DE0280E992E00C94850251
:100250002091F1023091F20228173907B9F49091F8
:10026000AF028091B002981789F0E091AF02F0E000
:10027000EF54FD4F80812091AF0230E02F5F3F4F60
:100280002F7333272093AF0290E008958FEF9FEFF5
:1002900008951F93CF93DF93DC015C968D919C9121
:1002A0005D97009749F481E090E013969C938E93BC
:1002B000129780E090E03BC05196ED91FC915297EF
:1002C00050962C915097322F30951FB75E964C91D7
:1002D0005E9741FB772770F941FD6095F894408166
:1002E000772311F0422B01C043234083EC01219777
:1002F000F1F748E0508160FF02C0522B01C0532348
:100300005083EC012197F1F76695415099F7808170
:10031000772311F0832301C0822B80831FBF5C965B
:100320008D919C915D970197F1F781E090E0DF91CD
:10033000CF911F91089508952091F1023091F2021A
:100340002817390771F49091AF028091B002981785
:1003500041F0E091AF02F0E0EF54FD4F808190E07A
:1003600008958FEF9FEF08952091F1023091F202EE
:100370002817390771F48091B0022091AF0290E004
:10038000805C9F4F821B910960E470E00E94C3086B
:10039000089580E090E00895E091F102F091F2027A
:1003A000E817F90769F4A389B4899C918589809538
:1003B00089238C931092F2021092F10281E0089549
:1003C00080E00895CF93DF93EC018A8D9B8D892B7C
:1003D000F1F08091F1029091F2028C179D07B9F033
:1003E000009711F00E94CC018E8D8E7F8E8F10921F
:1003F000B0021092AF02D093F202C093F102EB89E7
:10040000FC8980819D89892B808381E001C080E007
:10041000DF91CF9108951F920F920FB60F92112482
:100420002F933F934F935F936F937F938F939F93FC
:10043000AF93BF93EF93FF93E091F102F091F2023B
:10044000309709F451C0868DA685B785958581FFC3
:1004500004C08C91892329F447C08C91892309F029
:1004600043C0A389B4899C918589809589238C9305
:10047000868997890197F1F7208D318DA685B785FB
:10048000758558E040E0C9010197F1F7842F90E0AD
:1004900095958795482F6C91672309F040685150D6
:1004A00091F7868D81FD40958091B00290E0019694
:1004B0008F7399272091AF02281749F0A091B002BD
:1004C000B0E0AF54BD4F4C938093B00203C0868D13
:1004D0008160868F828D938D0197F1F7A389B4890E
:1004E0008C919589892B8C93FF91EF91BF91AF915E
:1004F0009F918F917F916F915F914F913F912F913C
:100500000F900FBE0F901F9018952CE032E0FC0169
:10051000318320830C94CC011F93CF93DF93EC01A4
:10052000162F6E8D6695617081E06827812F0E947D
:10053000B00561E0812F0E947705812F90E0FC01DA
:10054000E458FF4FE491E88BFC01E057FF4FE49142
:10055000F0E0EE0FFF1FE255FF4F859194919A8BCB
:10056000898BDF91CF911F9108951F93CF93DF93D4
:10057000EC01162F60E0812F0E9477058E8D81FDA2
:1005800004C061E0812F0E94B0051C87812F90E09C
:10059000FC01E458FF4FE491ED87FC01E057FF4F69
:1005A000E491F0E0EE0FFF1FEC55FF4F8591949121
:1005B0009F878E87DF91CF911F910895FF920F93B0
:1005C0001F93CF93DF93EC01F62E522F1B821A82DA
:1005D00008EE13E020E030E00C831D832E833F8380
:1005E0008CE092E0998388831F8A1E8A198E188E68
:1005F0001B8E1A8E1D8E1C8E8E8D8E7F50FB81F968
:100600008E8F642FCE010E948C026F2DCE01DF9160
:10061000CF911F910F91FF900C94B502CF93DF9370
:10062000EC019A01AB011B8E1A8E198E188E1F8A4F
:100630001E8A60E079E08DE390E00E94F908C9012C
:100640002430310520F0B9016350710902C061E026
:1006500070E07D8F6C8FEC85E63108F068C0B901E1
:10066000769567956431710518F06351710902C080
:1006700061E070E07F8B6E8B069718F0C9010597DB
:1006800002C081E090E0998F888FC901880F991F7F
:10069000820F931F96958795969587958D30910536
:1006A00010F00C9702C081E090E09B8F8A8F209120
:1006B0006800E83050F091E0EE3008F490E081E01E
:1006C00001C0880F9A95EAF701C084E0822B8093DD
:1006D00068002C85283038F02E3040F0263148F460
:1006E0008CE690E008C08DE690E005C08BE690E0D7
:1006F00002C080E090E09C8B8B8B283030F481E04E
:1007000001C0880F2A95EAF70DC0822F90E02E30A5
:1007100010F4089701C00E9791E001C0990F8A95D7
:10072000EAF7892F8D8B8C8D9D8D0197F1F7CE0186
:10073000DF91CF910C94E2010F931F93CF93DF933E
:10074000EC01662359F00E94AA0469837A838B83A3
:100750009C83DF91CF911F910F9108950E94AA046D
:1007600009811A812B813C81601B710B820B930BD9
:10077000693171058105910530F763E070E080E033
:1007800090E00E94D904EACF60E00C949C03FC0145
:1007900013AA14AA15AA16AA11821282138214820D
:1007A000411551056105710521F0CB01BA010C9489
:1007B000D9040895FB01BA01A901DC01D296FC938A
:1007C000EE93D19726E0CF010C94F2061F93CF93BE
:1007D000DF93EC01162F68E172E089A99AA90E94C3
:1007E00047084AE050E0612F89A99AA90E94BB08F6
:1007F0006FE172E089A99AA90E94470862E370E05C
:1008000080E090E0DF91CF911F910C94D9041F9369
:10081000CF93DF93EC01162F8D81882389F189A96D
:100820009AA9DC01ED91FC910480F581E02D0995F8
:10083000892BA9F307C02637310519F12835310571
:1008400009F41D8289A99AA9DC01ED91FC9104802B
:10085000F581E02D09951816190694F489A99AA92D
:10086000DC01ED91FC910680F781E02D09959C015A
:10087000332723363105F9F6612FCE010E94E603B6
:1008800083E6DF91CF911F9108950F931F93CF932C
:10089000DF931F92CDB7DEB78C01662349F081E06C
:1008A000F801858360E0C80149830E9407044981FB
:1008B000F80145830F90DF91CF911F910F9108951B
:1008C0001F920F920FB60F9211242F933F938F9385
:1008D0009F93AF93BF9380912B0390912C03A09192
:1008E0002D03B0912E0330912A0323E0230F2D37DF
:1008F00020F40196A11DB11D05C026E8230F029624
:10090000A11DB11D20932A0380932B0390932C03E8
:10091000A0932D03B0932E0380912F039091300369
:10092000A0913103B09132030196A11DB11D8093B6
:100930002F0390933003A0933103B0933203BF9100
:10094000AF919F918F913F912F910F900FBE0F907C
:100950001F9018952FB7F89460912B0370912C037A
:1009600080912D0390912E032FBF08953FB7F894E7
:1009700080912F0390913003A0913103B091320305
:1009800026B5A89B05C02F3F19F00196A11DB11DEA
:100990003FBF6627782F892F9A2F620F711D811D07
:1009A000911D42E0660F771F881F991F4A95D1F766
:1009B00008958F929F92AF92BF92CF92DF92EF9263
:1009C000FF926B017C010E94B6044B015C01C114D3
:1009D000D104E104F104F1F00E94C2080E94B604BF
:1009E000681979098A099B09683E73408105910558
:1009F00070F321E0C21AD108E108F10888EE880EF0
:100A000083E0981EA11CB11CC114D104E104F104BF
:100A100029F7DDCFFF90EF90DF90CF90BF90AF90A0
:100A20009F908F900895789484B5826084BD84B53A
:100A3000816084BD85B5826085BD85B5816085BDD9
:100A4000EEE6F0E0808181608083E1E8F0E01082F2
:100A5000808182608083808181608083E0E8F0E033
:100A6000808181608083E1EBF0E08081846080831D
:100A7000E0EBF0E0808181608083EAE7F0E0808154
:100A800084608083808182608083808181608083B4
:100A90008081806880831092C1000895833081F046
:100AA00028F4813099F08230A1F008958730A9F0C0
:100AB0008830B9F08430D1F4809180008F7D03C0FC
:100AC000809180008F7780938000089584B58F7720
:100AD00002C084B58F7D84BD08958091B0008F776A
:100AE00003C08091B0008F7D8093B0000895CF93B4
:100AF000DF9390E0FC01E458FF4F2491FC01E057A4
:100B0000FF4F8491882349F190E0880F991FFC01E1
:100B1000E854FF4FA591B49182559F4FFC01C591B8
:100B2000D4919FB7611108C0F8948C9120958223CD
:100B30008C93888182230AC0623051F4F8948C919E
:100B4000322F309583238C938881822B888304C035
:100B5000F8948C91822B8C939FBFDF91CF91089555
:100B60000F931F93CF93DF931F92CDB7DEB7282F3C
:100B700030E0F901E859FF4F8491F901E458FF4F43
:100B80001491F901E057FF4F04910023C9F0882325
:100B900021F069830E944E056981E02FF0E0EE0F9D
:100BA000FF1FE255FF4FA591B4919FB7F8948C9128
:100BB000611103C01095812301C0812B8C939FBFCD
:100BC0000F90DF91CF911F910F910895CF93DF93F5
:100BD000282F30E0F901E859FF4F8491F901E458DA
:100BE000FF4FD491F901E057FF4FC491CC2391F00E
:100BF00081110E944E05EC2FF0E0EE0FFF1FEC5527
:100C0000FF4FA591B4912C912D2381E090E021F428
:100C100080E002C080E090E0DF91CF910895FC0178
:100C2000818D228D90E0805C9F4F821B91098F7394
:100C300099270895FC01918D828D981731F0828D4E
:100C4000E80FF11D858D90E008958FEF9FEF0895D7
:100C5000FC01918D828D981761F0828DDF01A80FC4
:100C6000B11D5D968C91928D9F5F9F73928F90E0E6
:100C700008958FEF9FEF08958CEA97E0892B49F054
:100C800080E090E0892B29F00E94AC0781110C9440
:100C900000000895FC01848DDF01A80FB11DA35A47
:100CA000BF4F2C91848D90E001968F739927848F8C
:100CB000A689B7892C93A089B1898C9180648C9383
:100CC000938D848D981306C00288F389E02D80816E
:100CD0008F7D80830895CF93DF93EC01888D8823E7
:100CE000C9F0EA89FB89808185FD05C0A889B98999
:100CF0008C9186FD0FC00FB607FCF5CF808185FF74
:100D0000F2CFA889B9898C9185FFEDCFCE010E94E1
:100D10004A06E7CFDF91CF910895CF92DF92FF92FD
:100D20000F931F93CF93DF931F92CDB7DEB76C0164
:100D300081E0D60158968C9358975B969C915B976F
:100D40005C968C915C97981307C05096ED91FC913E
:100D50005197808185FD2EC0F601038D10E00F5F55
:100D60001F4F0F731127F02EF601848DF81211C05A
:100D70000FB607FCF9CFD6015096ED91FC91519733
:100D8000808185FFF1CFC60169830E944A0669818F
:100D9000EBCF838DE80FF11DE35AFF4F6083D6013F
:100DA0005B960C935B975296ED91FC9153978081E3
:100DB00080620CC0D6015696ED91FC9157976083E6
:100DC0005096ED91FC91519780818064808381E001
:100DD00090E00F90DF91CF911F910F91FF90DF90E6
:100DE000CF900895BF92CF92DF92EF92FF92CF9370
:100DF000DF93EC016A017B01B22EE889F98982E078
:100E00008083411581EE580761057105A1F060E00E
:100E100079E08DE390E0A70196010E94D708215068
:100E2000310941095109569547953795279521155F
:100E300080E1380798F0E889F989108260E874E861
:100E40008EE190E0A70196010E94D7082150310958
:100E5000410951095695479537952795EC85FD85AC
:100E60003083EE85FF852083188EEC89FD89B08262
:100E7000EA89FB89808180618083EA89FB8980819E
:100E800088608083EA89FB89808180688083EA8921
:100E9000FB8980818F7D8083DF91CF91FF90EF90E0
:100EA000DF90CF90BF9008951F920F920FB60F92D0
:100EB00011242F938F939F93EF93FF93E09143031C
:100EC000F09144038081E0914903F0914A0382FD4F
:100ED00012C0908180914C038F5F8F7320914D03DE
:100EE000821751F0E0914C03F0E0ED5CFC4F958FE0
:100EF00080934C0301C08081FF91EF919F918F916E
:100F00002F910F900FBE0F901F9018951F920F9268
:100F10000FB60F9211242F933F934F935F936F93CC
:100F20007F938F939F93AF93BF93EF93FF9383E34D
:100F300093E00E944A06FF91EF91BF91AF919F917C
:100F40008F917F916F915F914F913F912F910F9072
:100F50000FBE0F901F90189583E393E00E940F0639
:100F600021E0892B09F420E0822F089510923603A6
:100F70001092350388EE93E0A0E0B0E08093370351
:100F800090933803A0933903B0933A0384E792E037
:100F9000909334038093330385EC90E09093400367
:100FA00080933F0384EC90E090934203809341034D
:100FB00080EC90E0909344038093430381EC90E0B5
:100FC000909346038093450382EC90E0909348030E
:100FD0008093470386EC90E090934A038093490303
:100FE00010924C0310924D0310924E0310924F0337
:100FF000089508950E9413050E94F9070E948E002B
:10100000CCE3D6E00E941B012097E1F30E943C064E
:10101000F9CFCF92DF92EF92FF920F931F93CF936E
:10102000DF937C016A01EB0100E010E00C151D0567
:1010300071F06991D701ED91FC910190F081E02D63
:10104000C7010995892B19F00F5F1F4FEFCFC8011A
:10105000DF91CF911F910F91FF90EF90DF90CF9094
:1010600008956115710581F0DB010D900020E9F70D
:10107000AD0141505109461B570BDC01ED91FC912C
:101080000280F381E02D099480E090E008950C94B3
:10109000310865E272E00C9431080F931F93CF93EF
:1010A000DF93EC010E9431088C01CE010E944908B7
:1010B000800F911FDF91CF911F910F9108958F9213
:1010C0009F92AF92BF92DF92EF92FF920F931F9386
:1010D000CF93DF93CDB7DEB7A1970FB6F894DEBFFD
:1010E0000FBECDBF7C01F42FD52ECB0119A222302B
:1010F00008F42AE08E010F5D1F4F822E912CA12C47
:10110000B12C6F2F7D2DA50194010E94D708F22FDD
:10111000D32ECA01015011096A3014F4E0E301C072
:10112000E7E3E60FD801EC93232B242B252B49F77B
:10113000B801C7010E943108A1960FB6F894DEBF2E
:101140000FBECDBFDF91CF911F910F91FF90EF9018
:10115000DF90BF90AF909F908F900895211531053B
:1011600041F4DC01ED91FC910190F081E02D642FC0
:1011700009940C945F089A01462F50E060E070E0FB
:101180000C94AE08089597FB072E16F4009407D030
:1011900077FD09D00E94180907FC05D03EF4909510
:1011A00081959F4F0895709561957F4F0895A1E2B5
:1011B0001A2EAA1BBB1BFD010DC0AA1FBB1FEE1FD1
:1011C000FF1FA217B307E407F50720F0A21BB30B1C
:1011D000E40BF50B661F771F881F991F1A9469F798
:1011E00060957095809590959B01AC01BD01CF01F4
:1011F0000895052E97FB1EF400940E94100957FDD8
:1012000007D00E94D70807FC03D04EF40C941009B5
:1012100050954095309521953F4F4F4F5F4F089522
:1012200090958095709561957F4F8F4F9F4F089552
:10123000AA1BBB1B51E107C0AA1FBB1FA617B707FC
:1012400010F0A61BB70B881F991F5A95A9F7809518
:101250009095BC01CD010895EE0FFF1F0590F4910C
:10126000E02D099410E0C6ECD0E004C0FE010E941D
:0E1270002E092296C83CD107C9F7F894FFCF8B
:10127E0008000400050006000700564D4450565F56
:10128E00317C315F564D4450560D0A0055796775C5
:10129E006C616D61204261736C6174696C6469008C
:1012AE004E656D202825293A2000536963616B6CC9
:1012BE00696B203A200020430044657720506F6907
:1012CE006E743A20005F5F5F5F5F5F5F5F5F5F5FBF
:1012DE005F5F5F5F5F5F5F5F5F5F5F5F5F5F5F5F10
:1012EE005F004E6F206D6F74696F6E004D6F746985
:1012FE006F6E21004C454420312079616E64690087
:10130E004C4544203120736F6E6475004C4544206B
:10131E00322079616E6469004C4544203220736F2F
:10132E006E6475004C454420332079616E6469000B
:10133E004C4544203320736F6E6475004C45442039
:10134E00342079616E6469004C4544203420736FFB
:10135E006E64750054756D204C4544276C65722083
:10136E00736F6E64750054756D204C4544276C6523
:10137E00722079616E64690000000000490109085D
:10138E00B40128019C019B01564D4450435F005F00
:10139E00564D4450430D0A004572726F723A204109
:1013AE007474656D707420746F2073657420612081
:1013BE00726561642D6F6E6C7920766172696162FF
:1013CE006C65206F72206461746120747970652081
:1013DE006E6F7420737570706F727465640D0A0091
:1013EE00000000008D0609080F0628061A066B0677
:0E13FE006E616E00696E66006F7666002E00EE
:00000001FF
