:100000000C945E000C9486000C9486000C94860080
:100010000C9486000C9486000C9486000C94560177
:100020000C9486000C9486000C9486000C94860038
:100030000C9486000C9486000C9486000C94860028
:100040000C94B2010C9486000C9486000C948600EB
:100050000C9486000C9486000C9486000C94860008
:100060000C9486000C9486000000000024002700F9
:100070002A0000000000250028002B0004040404CE
:100080000404040402020202020203030303030342
:10009000010204081020408001020408102001021F
:1000A00004081020000000080002010000030407FB
:1000B00000000000000000000200860411241FBEA2
:1000C000CFEFD8E0DEBFCDBF11E0A0E0B1E0E4EEBD
:1000D000F9E002C005900D92A230B107D9F721E0F6
:1000E000A2E0B1E001C01D92A033B207E1F710E039
:1000F000CEE5D0E004C02197FE010E94EA04CD3590
:10010000D107C9F70E94FC010C94F0040C94000084
:1001100090910001981324C0E8EBF0E0E4919FEF88
:1001200090930001E130B9F098F0E230C9F4909179
:1001300070009D7F9093700091E09093B00090913B
:10014000B100987F94609093B1001092B30008C002
:1001500010926E0005C090916F009D7F90936F008C
:1001600090E0FC01EC55FF4F2491FC01E057FF4F5C
:100170003491FC01E458FF4FE491EE23B9F12223BE
:1001800039F1233091F038F42130A9F0223001F513
:1001900084B58F7D12C0273091F02830A1F0243033
:1001A000B9F4809180008F7D03C0809180008F77AB
:1001B000809380000DC084B58F7784BD09C0809185
:1001C000B0008F7703C08091B0008F7D8093B00026
:1001D000F0E0EE0FFF1FEE58FF4FA591B4918FB7DF
:1001E000F894EC9130953E233C938FBF08953FB730
:1001F000F8948091070190910801A0910901B091B4
:100200000A0126B5A89B05C02F3F19F00196A11D34
:10021000B11D3FBFBA2FA92F982F8827820F911D9C
:10022000A11DB11DBC01CD0142E0660F771F881FE3
:10023000991F4A95D1F708958F929F92AF92BF92DE
:10024000CF92DF92EF92FF926B017C010E94F70048
:100250004B015C01C114D104E104F104F1F00E94EE
:10026000F700DC01CB0188199909AA09BB09883E6E
:100270009340A105B10570F321E0C21AD108E1084D
:10028000F10888EE880E83E0981EA11CB11CC114F1
:10029000D104E104F10419F7DDCFFF90EF90DF9076
:1002A000CF90BF90AF909F908F9008951F920F9224
:1002B0000FB60F9211242F933F934F935F936F9339
:1002C0007F938F939F93AF93BF93EF93FF9380910F
:1002D0002C0190912D01A0912E01B0912F01892B1D
:1002E0008A2B8B2B51F180912B01E0912901F09108
:1002F0002A0190818927808380912C0190912D0182
:10030000A0912E01B0912F01181619061A061B068E
:10031000C4F480912C0190912D01A0912E01B091F7
:100320002F010197A109B10980932C0190932D0110
:10033000A0932E01B0932F0104C0809100010E9470
:100340008800FF91EF91BF91AF919F918F917F9125
:100350006F915F914F913F912F910F900FBE0F9032
:100360001F9018951F920F920FB60F9211242F9382
:100370003F938F939F93AF93BF938091030190918D
:100380000401A0910501B09106013091020123E022
:10039000230F2D3720F40196A11DB11D05C026E8BD
:1003A000230F0296A11DB11D20930201809303012A
:1003B00090930401A0930501B09306018091070179
:1003C00090910801A0910901B0910A010196A11D27
:1003D000B11D8093070190930801A0930901B09388
:1003E0000A01BF91AF919F918F913F912F910F90F3
:1003F0000FBE0F901F901895CF93DF9300D000D0C1
:100400001F92CDB7DEB7789484B5826084BD84B581
:10041000816084BD85B5826085BD85B5816085BDFF
:1004200080916E00816080936E00109281008091B7
:10043000810082608093810080918100816080933F
:100440008100809180008160809380008091B10064
:1004500084608093B1008091B00081608093B0008F
:1004600080917A00846080937A0080917A00826023
:1004700080937A0080917A00816080937A008091E5
:100480007A00806880937A001092C10009E111E03F
:10049000B8E82B2EB0E03B2E88248A94982C540187
:1004A00098E4492E98EE592E66246394712CF80135
:1004B000C190D1908F01809100018C3029F4E8EB3C
:1004C000F0E0F491FD8378C08F3F09F0A8C18CE083
:1004D00080930001E8EBF0E084918F3F09F49FC125
:1004E000813011F1823009F442C0811164C014BC22
:1004F00015BC84B5826084BD85B5816085BDF10180
:100500008491E82FF0E0EE0FFF1FEE58FF4F85912A
:1005100094919093100180930F01ECE9F0E08491A5
:1005200080930E011D824BC01092800010928100BA
:10053000809181008860809381008091810081603A
:1005400080938100F1018491E82FF0E0EE0FFF1F0E
:10055000EE58FF4F8591949190930D0180930C017B
:10056000ECE9F0E0849180930B01F1E022C010925D
:10057000B0001092B1008091B00082608093B00012
:100580008091B10081608093B100F1018491E82FE6
:10059000F0E0EE0FFF1FEE58FF4F8591949190937E
:1005A0002A0180932901ECE9F0E0849180932B01EA
:1005B000F2E0FD8304C08D838D8187FD30C1ECE9BD
:1005C000F0E04491F1018491882399F090E0880F44
:1005D000991FFC01E859FF4FA591B491FC01EE5819
:1005E000FF4F259134918FB7F8949C91492B4C93F0
:1005F0008FBFE12CF12C8D818D7F09F0ACC060E0C4
:1006000072E18AE790E0A70196010E94A90429837C
:100610003A834B835C83BA01A901415051096109B6
:1006200071094F3F51056105710509F008F445C096
:1006300060E472E48FE090E0A70196010E94A904B3
:10064000BA01A9014150510961097109FD81F230D6
:10065000E9F44F3F51056105710509F008F454C1F3
:1006600060E970ED83E090E0A70196010E94A90483
:10067000BA01A90141505109610971094F3F510562
:100680006105710509F0B8F583E05EC04F3F510583
:1006900061057105A1F098F0C301B201A7019601AF
:1006A0000E94A904BA01A9014150510961097109C7
:1006B0008D81882309F4D4C01FC181E001C082E08C
:1006C000ED81E11141C012C089819A81AB81BC8169
:1006D0002AE0B595A795979587952A95D1F7AC010E
:1006E000BD01415051096109710985E095B5987FB7
:1006F000892B85BD64C0C301B201A70196010E9488
:10070000A904BA01A90141505109610971094F3F7A
:1007100051056105710509F008F4A0C064E274EFA9
:1007200080E090E0A70196010E94A904BA01A90106
:1007300041505109610971094F3F5105610571052A
:1007400011F008F0ACC085E09091B100987F892B42
:100750008093B1002DC060E072E18AE790E0A701CC
:1007600096010E94A904BA01A901415051096109E9
:10077000710941155105F1E06F07710570F0C30172
:10078000B201A70196010E94A904BA01A901415032
:1007900051096109710993E001C091E08D818130B7
:1007A00039F480918100887F892B8093810016C065
:1007B0009D81913099F0923019F1911130C047BD6F
:1007C0008092150190921601A0921701B092180123
:1007D00080916E00826080936E0021C050938900EA
:1007E000409388008092110190921201A09213010F
:1007F000B092140180916F00826080936F000FC0EF
:100800004093B30080922C0190922D01A0922E0172
:10081000B0922F018091700082608093700064EF2D
:1008200071E080E090E00E941C018CE00E94880052
:1008300064E170E080E090E00E941C01E1E0093298
:100840001E0709F034CE8CE00E94880000E010E022
:1008500001151105E9F30E940000FACF84E074CF7E
:100860004F3F510561057105C1F0B8F062E17AE7CB
:1008700080E090E0A70196010E94A904BA01A901B5
:1008800041505109610971094F3F510561057105D9
:1008900011F008F019CF84E029CF83E027CF62E17F
:1008A0007AE780E090E0A70196010E94A904BA01CE
:1008B000A90141505109610971094F3F5105610575
:1008C0007105C1F0B8F089819A81AB81BC813AE0B1
:1008D000B595A795979587953A95D1F7AC01BD0148
:1008E00041505109610971099D81992309F4FDCE97
:1008F00087E02ACF86E0E4CE4F3F510561057105C0
:1009000009F068F684E0DCCE82E01ECFE9E1F1E098
:1009100086E091E09183808386E291E093838283F5
:100920008AE491E0958384838DE591E097838683C3
:1009300088E891E09187808788EB91E093878287B0
:100940008EEE91E0958784878BE092E0978786878B
:100950000895052E97FB1EF400940E94C00457FDD5
:1009600007D00E94C80407FC03D04EF40C94C004C6
:1009700050954095309521953F4F4F4F5F4F0895CB
:1009800090958095709561957F4F8F4F9F4F0895FB
:10099000A1E21A2EAA1BBB1BFD010DC0AA1FBB1F83
:1009A000EE1FFF1FA217B307E407F50720F0A21BF5
:1009B000B30BE40BF50B661F771F881F991F1A9462
:1009C00069F760957095809590959B01AC01BD018C
:1009D000CF010895EE0FFF1F0590F491E02D0994CB
:0409E000F894FFCFB9
:0209E400FF0012
:00000001FF
