:100000000C945D000C9485000C9485000C94850084
:100010000C9485000C9485000C9485000C9485004C
:100020000C9485000C9485000C9485000C9485003C
:100030000C9485000C9485000C9485000C9485002C
:100040000C94D6020C9485000C94A4020C947E02AD
:100050000C9485000C9485000C9485000C9485000C
:100060000C9485000C9485000000000024002700FB
:100070002A0000000000250028002B0004040404CE
:100080000404040402020202020203030303030342
:10009000010204081020408001020408102001021F
:1000A00004081020000000080002010000030407FB
:1000B0000000000000000000830411241FBECFEFE9
:1000C000D8E0DEBFCDBF21E0A8E1B1E001C01D92C4
:1000D000A03CB207E1F711E0A0E0B1E0E8E2FAE00D
:1000E00002C005900D92A831B107D9F710E0CDE517
:1000F000D0E004C02197FE010E94B704CC35D1079F
:10010000C9F70E9420030C9412050C940000CF92B2
:10011000DF92EF92FF920F931F93CF93DF936C01C7
:100120007A018B01C0E0D0E0CE15DF0589F0D8015F
:100130006D918D01D601ED91FC910190F081E02D42
:10014000C6010995892B11F47E0102C02196ECCFDE
:10015000C701DF91CF911F910F91FF90EF90DF903A
:10016000CF900895FC01918D828D981761F0828D5A
:10017000DF01A80FB11D5D968C91928D9F5F9F73DB
:10018000928F90E008958FEF9FEF0895FC01918D7D
:10019000828D981731F0828DE80FF11D858D90E0EA
:1001A00008958FEF9FEF0895FC01918D228D892F87
:1001B00090E0805C9F4F821B91098F73992708956F
:1001C00083E291E00E94D40021E0892B09F420E031
:1001D000822F0895FC01848DDF01A80FB11DA35A61
:1001E000BF4F2C91848D90E001968F739927848F57
:1001F000A689B7892C93A089B1898C9180648C934E
:10020000938D848D981306C00288F389E02D808138
:100210008F7D80830895EF92FF920F931F93CF936A
:10022000DF93EC0181E0888F9B8D8C8D981305C046
:10023000E889F989808185FD24C0F62E0B8D10E0B8
:100240000F5F1F4F0F731127E02E8C8DE8120CC02B
:100250000FB607FCFACFE889F989808185FFF5CFD1
:10026000CE010E94EA00F1CF8B8DFE01E80FF11D57
:10027000E35AFF4FF0820B8FEA89FB89808180620D
:1002800007C0EE89FF896083E889F98980818064ED
:10029000808381E090E0DF91CF911F910F91FF90DB
:1002A000EF900895CF93DF93EC01888D8823C9F0F8
:1002B000EA89FB89808185FD05C0A889B9898C916F
:1002C00086FD0FC00FB607FCF5CF808185FFF2CF0A
:1002D000A889B9898C9185FFEDCFCE010E94EA00F3
:1002E000E7CFDF91CF91089580E090E0892B29F04E
:1002F0000E94E00081110C940000089590E0FC0140
:10030000EC55FF4F3491FC01E057FF4F2491FC0165
:10031000E458FF4FE491EE2309F43BC0332339F155
:10032000333091F038F43130A9F0323001F584B532
:100330008F7D12C0373091F03830A1F03430B9F4ED
:10034000809180008F7D03C0809180008F778093A3
:1003500080000DC084B58F7784BD09C08091B00046
:100360008F7703C08091B0008F7D8093B000F0E064
:10037000EE0FFF1FEE58FF4FA591B4918FB7F89481
:10038000EC91611103C020952E2301C02E2B2C93DC
:100390008FBF0895CF93DF9390E0FC01E057FF4FAC
:1003A0002491FC01E458FF4F8491882361F190E08F
:1003B000880F991FFC01E859FF4FC591D491FC01AA
:1003C000EE58FF4FA591B491611109C09FB7F89401
:1003D0008881209582238883EC912E230BC0623084
:1003E00061F49FB7F8943881822F809583238883A6
:1003F000EC912E2B2C939FBF06C08FB7F894E88109
:100400002E2B28838FBFDF91CF9108953FB7F894AB
:1004100080911D0190911E01A0911F01B0912001BA
:1004200026B5A89B05C02F3F19F00196A11DB11D4F
:100430003FBFBA2FA92F982F8827820F911DA11D8A
:10044000B11DBC01CD0142E0660F771F881F991FC7
:100450004A95D1F708958F929F92AF92BF920F93D2
:100460001F93CF93DF93CDB7DEB7A1970FB6F89464
:10047000DEBF0FBECDBF19A2423008F44AE08E01A4
:100480000F5D1F4F842E912CA12CB12CA50194013E
:100490000E94E104E62FB901CA0101501109EA30B6
:1004A00014F4E05D01C0E95CD801EC93232B242B0C
:1004B000252B61F70115110571F0F801019000205D
:1004C000E9F73197AF01401B510BB80183E291E08E
:1004D0000E94870002C080E090E0A1960FB6F894D9
:1004E000DEBF0FBECDBFDF91CF911F910F91BF90A7
:1004F000AF909F908F9008950E94BD041F920F921D
:100500000FB60F9211242F933F934F935F936F93E6
:100510007F938F939F93AF93BF93EF93FF9383E268
:1005200091E00E94EA00FF91EF91BF91AF919F91FE
:100530008F917F916F915F914F913F912F910F908C
:100540000FBE0F901F9018951F920F920FB60F922B
:1005500011242F938F939F93EF93FF93E091330197
:10056000F09134018081E0913901F0913A0182FDEE
:1005700012C0908180913C018F5F8F7320913D016B
:10058000821751F0E0913C01F0E0ED5DFE4F958F58
:1005900080933C0101C08081FF91EF919F918F91E9
:1005A0002F910F900FBE0F901F9018951F920F92D2
:1005B0000FB60F9211242F933F938F939F93AF9376
:1005C000BF938091190190911A01A0911B01B091E4
:1005D0001C013091180123E0230F2D3720F40196E0
:1005E000A11DB11D05C026E8230F0296A11DB11D56
:1005F000209318018093190190931A01A0931B0175
:10060000B0931C0180911D0190911E01A0911F01CA
:10061000B09120010196A11DB11D80931D01909301
:100620001E01A0931F01B0932001BF91AF919F9134
:100630008F913F912F910F900FBE0F901F901895A3
:10064000CF93DF9300D000D0CDB7DEB7789484B5D8
:10065000826084BD84B5816084BD85B5826085BDBE
:1006600085B5816085BD80916E00816080936E004C
:10067000109281008091810082608093810080913E
:1006800081008160809381008091800081608093EF
:1006900080008091B10084608093B1008091B000AF
:1006A00081608093B00080917A00846080937A00AA
:1006B00080917A00826080937A0080917A008160D4
:1006C00080937A0080917A00806880937A001092FB
:1006D000C100E0913301F091340182E08083E09128
:1006E0002F01F09130011082E0913101F09132013F
:1006F0008FEC808310923B01E0913701F09138013B
:1007000086E08083E0913501F0913601808180613F
:100710008083E0913501F09136018081886080838B
:10072000E0913501F0913601808180688083E0910D
:100730003501F091360180818F7D808361E083E017
:100740000E94CA0160E08EE00E94CA0110E4882481
:100750008A9493E0992EA12CB12C27EA222E20E036
:10076000322E10937C0080917A00806480937A000E
:1007700080917A0086FDFCCFA0917800809179006D
:10078000B0E0B82B2FEF30E00E94B004A501940137
:100790000E94C2047901309322012093210161E07B
:1007A00083E029833A834B835C830E94CA012981B9
:1007B0003A814B815C81211531054105510511F4C8
:1007C00060E006C02F3F31054105510529F461E085
:1007D00083E00E947E0143C0F10184918330F9F0EF
:1007E00048F48130B9F08230A1F584B5806284BDCF
:1007F00028BD35C08730E9F0883019F1843049F5DB
:100800008091800080628093800030938B002093E1
:100810008A0025C084B5806884BD27BD20C0809132
:100820008000806880938000309389002093880046
:1008300016C08091B00080688093B0002093B30010
:100840000EC08091B00080628093B0002093B4000D
:1008500006C0F0E8EF16F1040CF0B9CFB1CFC090AC
:100860002101D09022010D2C000CEE08FF08F7FEAC
:1008700014C0E0912301F09124010190F081E02D5A
:100880006DE283E291E0099566277727CB016C1929
:100890007D098E099F094AE003C04AE0C701B601FD
:1008A0000E942B0242E050E064E171E083E291E0BB
:1008B0000E9487000E9406022B013C0184E6C82E9C
:1008C000D12CE12CF12C0E940602DC01CB01841911
:1008D0009509A609B709883E9340A105B10558F0CE
:1008E00021E0C21AD108E108F10888EE480E83E041
:1008F000581E611C711CC114D104E104F10419F7E4
:100900000E9474012ECFE3E2F1E01382128288EE9E
:1009100093E0A0E0B0E084839583A683B78388E06A
:1009200091E09183808385EC90E09587848784ECC7
:1009300090E09787868780EC90E0918B808B81ECAC
:1009400090E0938B828B82EC90E0958B848B86EC8D
:1009500090E0978B868B118E128E138E148E0895D5
:100960000E940305B7FF0895821B930B0895EE0FB5
:10097000FF1F0590F491E02D099481E090E0F89438
:100980000C941205052E97FB1EF400940E94D904C6
:1009900057FD07D00E94E10407FC03D04EF40C94ED
:1009A000D90450954095309521953F4F4F4F5F4F5B
:1009B000089590958095709561957F4F8F4F9F4FCB
:1009C0000895A1E21A2EAA1BBB1BFD010DC0AA1F90
:1009D000BB1FEE1FFF1FA217B307E407F50720F0A8
:1009E000A21BB30BE40BF50B661F771F881F991F23
:1009F0001A9469F760957095809590959B01AC016C
:100A0000BD01CF010895A29FB001B39FC001A39F74
:100A1000700D811D1124911DB29F700D811D112437
:080A2000911D0895F894FFCF29
:100A280001000000000000000B018700D400B200A4
:080A3800C60052010D0A000086
:00000001FF
