:100000000C945D000C947A000C947A000C947A00A5
:100010000C947A000C947A000C947A000C94C6002C
:100020000C947A000C947A000C947A000C947A0068
:100030000C947A000C947A000C947A000C947A0058
:100040000C947C000C947A000C947A000C947A0046
:100050000C947A000C947A000C947A000C947A0038
:100060000C947A000C947A00000000002400270011
:100070002A0000000000250028002B0004040404CE
:100080000404040402020202020203030303030342
:10009000010204081020408001020408102001021F
:1000A00004081020000000080002010000030407FB
:1000B0000000000000000000020011241FBECFEF6E
:1000C000D8E0DEBFCDBF11E0A0E0B1E0EEE9F8E09E
:1000D00002C005900D92A230B107D9F721E0A2E04D
:1000E000B1E001C01D92A032B207E1F70E94830186
:1000F0000C944D040C9400001F920F920FB60F92B7
:1001000011242F933F938F939F93AF93BF9380912D
:100110001C0190911D01A0911E01B0911F01309111
:100120001B0123E0230F2D3720F40196A11DB11DE3
:1001300005C026E8230F0296A11DB11D20931B01C7
:1001400080931C0190931D01A0931E01B0931F0189
:100150008091170190911801A0911901B0911A0195
:100160000196A11DB11D8093170190931801A093D2
:100170001901B0931A01BF91AF919F918F913F9157
:100180002F910F900FBE0F901F9018951F920F92F6
:100190000FB60F9211242F933F938F939F93AF939A
:1001A000BF93EF93FF938091130190911401A0915D
:1001B0001501B0911601892B8A2B8B2B59F1809157
:1001C0001201E0911001F091110190818927808343
:1001D0008091130190911401A0911501B091160125
:1001E000181619061A061B060CF080C08091130120
:1001F00090911401A0911501B09116010197A109E8
:10020000B1098093130190931401A0931501B09349
:1002100016016CC080910001E8EBF0E0E4919FEFE3
:1002200090930001E130B9F098F0E230C9F4909178
:1002300070009D7F9093700091E09093B00090913A
:10024000B100987F94609093B1001092B30008C001
:1002500010926E0005C090916F009D7F90936F008B
:1002600090E0FC01EC55FF4F2491FC01E057FF4F5B
:100270003491FC01E458FF4FE491EE23B9F12223BD
:1002800039F1233091F038F42130A9F0223001F512
:1002900084B58F7D12C0273091F02830A1F0243032
:1002A000B9F4809180008F7D03C0809180008F77AA
:1002B000809380000DC084B58F7784BD09C0809184
:1002C000B0008F7703C08091B0008F7D8093B00025
:1002D000F0E0EE0FFF1FEE58FF4FA591B4918FB7DE
:1002E000F894EC9130953E233C938FBFFF91EF91B2
:1002F000BF91AF919F918F913F912F910F900FBE22
:100300000F901F901895CF93DF9300D000D01F92CD
:10031000CDB7DEB7789484B5826084BD84B5816042
:1003200084BD85B5826085BD85B5816085BD8091C0
:100330006E00816080936E00109281008091810038
:100340008260809381008091810081608093810030
:10035000809180008160809380008091B1008460F2
:100360008093B1008091B00081608093B000809153
:100370007A00846080937A0080917A008260809312
:100380007A0080917A00816080937A0080917A006F
:10039000806880937A001092C10008E4802E08EEF5
:1003A000902EAA24A394B12C44244A94542C3201B4
:1003B0001CE9212E10E0312E08E810E080E4809343
:1003C0007C0080917A00806480937A0080917A002A
:1003D00086FDFCCF2091780060917900809100012A
:1003E0008C3029F4E8EBF0E0F491FD8375C08F3F89
:1003F00009F0B2C18CE080930001E8EBF0E0849159
:100400008F3F09F4A9C1813009F1823009F440C05D
:10041000811161C014BC15BC84B5826084BD85B5F2
:10042000816085BDF8018491E82FF0E0EE0FFF1F99
:10043000EE58FF4F859194919093070180930601A8
:10044000F1018491809305011D8249C010928000C2
:10045000109281008091810088608093810080915A
:100460008100816080938100F8018491E82FF0E0A1
:10047000EE0FFF1FEE58FF4F85919491909304016A
:1004800080930301F101849180930201F1E021C086
:100490001092B0001092B1008091B0008260809301
:1004A000B0008091B10081608093B100F801849127
:1004B000E82FF0E0EE0FFF1FEE58FF4F859194916B
:1004C0009093110180931001F101849180931201A6
:1004D000F2E0FD8304C08D838D8187FD3DC1F10174
:1004E0003491F8018491882399F090E0880F991F46
:1004F000FC01E859FF4FA591B491FC01EE58FF4F64
:10050000459154918FB7F8949C91392B3C938FBFB0
:1005100030E0362B37FF02C02D5F3F4F35952795D2
:10052000359527956901F8ECCF0ED11CE12CF12C03
:100530008D818D7F09F0ACC060E072E18AE790E0C8
:10054000A70196010E940C0429833A834B835C83A4
:10055000BA01A90141505109610971094F3F510583
:100560006105710509F008F445C060E472E48FE0AC
:1005700090E0A70196010E940C04BA01A901415024
:100580005109610971098D818230E9F44F3F5105AC
:100590006105710509F008F43DC160E970ED83E083
:1005A00090E0A70196010E940C04BA01A9014150F4
:1005B0005109610971094F3F51056105710509F044
:1005C000B8F583E05EC04F3F510561057105A1F0AC
:1005D00098F0C501B401A70196010E940C04BA016C
:1005E000A90141505109610971099D81992309F4BB
:1005F000BDC008C181E001C082E0FD81FF2399F008
:1006000040C089819A81AB81BC812AE0B595A795CC
:10061000979587952A95D1F7AC01BD0141505109B5
:100620006109710985E095B5987F892B85BD64C006
:10063000C501B401A70196010E940C04BA01A901E9
:1006400041505109610971094F3F5105610571051B
:1006500009F008F489C064E274EF80E090E0A7013B
:1006600096010E940C04BA01A90141505109610987
:1006700071094F3F51056105710511F008F095C0F2
:1006800085E09091B100987F892B8093B1002DC0B7
:1006900060E072E18AE790E0A70196010E940C04F5
:1006A000BA01A9014150510961097109411551056A
:1006B00081E06807710570F0C501B401A7019601DA
:1006C0000E940C04BA01A901415051096109710944
:1006D00093E001C091E0ED81E13039F48091810037
:1006E000887F892B8093810016C0FD81F13099F0BD
:1006F000F23019F1F11130C047BD40920C01509217
:100700000D0160920E0170920F0180916E00826067
:1007100080936E0021C050938900409388004092DE
:1007200008015092090160920A0170920B018091B8
:100730006F00826080936F000FC04093B3004092BF
:10074000130150921401609215017092160180916C
:10075000700082608093700080E090E0892B09F443
:100760002DCE0E94000024CE84E08BCF4F3F510558
:1007700061057105C1F0B8F062E17AE780E090E0D0
:10078000A70196010E940C04BA01A9014150510928
:10079000610971094F3F51056105710511F008F0BC
:1007A00030CF84E040CF83E03ECF62E17AE780E063
:1007B00090E0A70196010E940C04BA01A9014150E2
:1007C0005109610971094F3F510561057105C1F07A
:1007D000B8F089819A81AB81BC813AE0B595A79543
:1007E000979587953A95D1F7AC01BD0141505109D4
:1007F00061097109ED81EE2309F414CF87E041CF3F
:1008000086E0FBCE4F3F51056105710509F068F6A2
:1008100084E0F3CE82E035CF052E97FB1EF40094E2
:100820000E94230457FD07D00E942B0407FC03D02D
:100830004EF40C94230450954095309521953F4FEC
:100840004F4F5F4F089590958095709561957F4FBC
:100850008F4F9F4F0895A1E21A2EAA1BBB1BFD01CB
:100860000DC0AA1FBB1FEE1FFF1FA217B307E4078F
:10087000F50720F0A21BB30BE40BF50B661F771FE7
:10088000881F991F1A9469F76095709580959095C7
:0E0890009B01AC01BD01CF010895F894FFCF8C
:02089E00FF0059
:00000001FF
