:100000000C9463000C948B000C948B000C94AC0249
:100010000C94AC020C94AC020C948B000C948B00EE
:100020000C948B000C948B000C948B000C948B0024
:100030000C948B000C948B000C948B000C948B0014
:100040000C943D040C948B000C948B000C948B004E
:100050000C948B000C948B000C948B000C948B00F4
:100060000C948B000C948B0000000008000201002F
:100070000003040700000000000000000102040863
:100080001020408001020408102001020408102002
:10009000040404040404040402020202020203032E
:1000A00003030303000000002300260029000000D2
:1000B0000000250028002B0000000000240027007D
:1000C0002A00AF00B60011241FBECFEFD8E0DEBF7C
:1000D000CDBF11E0A0E0B1E0E4E7F4E102C005909B
:1000E0000D92A63DB107D9F722E0A6EDB1E001C01F
:1000F0001D92AA34B207E1F710E0C4ECD0E004C0CE
:100100002297FE010E94290AC23CD107C9F70E942A
:10011000AD050C942D0A0C94000061E0809108015B
:100120000E94140561E0809106010E94140561E0BF
:10013000809104010E94140561E0809102010E94F7
:10014000140540E855E260E070E08EED91E00E9419
:10015000AF036BE071E08EED91E00C94070620E0B8
:100160004BE06AE08EED91E00C947F038EED91E020
:100170000C942603CF92DF92EF92FF920F931F937E
:100180000E9487040091D6011091D7012091D801D7
:100190003091D9016B017C01C01AD10AE20AF30A3D
:1001A00048EBC4164BE0D406E104F10408F43FC068
:1001B0006093D6017093D7018093D8019093D901B1
:1001C000809100010E94CE04BC01882777FD8095B4
:1001D000982F0E94A30820E030E04AEF5EE30E94DF
:1001E00057096093DA017093DB018093DC019093EF
:1001F000DD016FE171E08EED91E00E94FA05409122
:10020000DA015091DB016091DC017091DD0122E0A7
:1002100030E08EED91E00E949D076EE271E08EED80
:1002200091E00E94FA058EED91E00E9403068EEDAA
:1002300091E00E94C9018133C1F4809108010E94BC
:10024000830561E0892B09F060E0809108010E943C
:100250004D05809108010E948305019719F461E31F
:1002600071E01CC06DE371E019C08233E1F480914C
:1002700006010E94830561E0892B09F060E080910E
:1002800006010E944D05809106010E948305019799
:1002900019F469E471E002C065E571E08EED91E06A
:1002A0000E9407066FC08333C1F4809104010E944D
:1002B000830561E0892B09F060E0809104010E94D0
:1002C0004D05809104010E948305019719F461E6B0
:1002D00071E04EC06DE671E04BC08433C1F4809193
:1002E00002010E94830561E0892B09F060E08091A2
:1002F00002010E944D05809102010E948305019731
:1003000019F469E771E034C065E871E031C0853304
:10031000B9F460E0809108010E944D0560E0809191
:1003200006010E944D0560E0809104010E944D0588
:1003300060E0809102010E944D0561E971E018C002
:10034000863301F561E0809108010E944D0561E06E
:10035000809106010E944D0561E0809104010E9498
:100360004D0561E0809102010E944D0563EA71E054
:100370008EED91E01F910F91FF90EF90DF90CF9065
:100380000C9407061F910F91FF90EF90DF90CF9094
:10039000089520913F023091400228173907B9F49F
:1003A0009091FD018091FE01981789F0E091FD0187
:1003B000F0E0E150FE4F80812091FD0130E02F5FA1
:1003C0003F4F2F7333272093FD0190E008958FEF67
:1003D0009FEF08951F93CF93DF93DC015C968D917F
:1003E0009C915D97009749F481E090E013969C936F
:1003F0008E93129780E090E03BC05196ED91FC9176
:10040000529750962C915097322F30951FB75E9689
:100410004C915E9741FB772770F941FD6095F89408
:100420004081772311F0422B01C043234083EC012C
:100430002197F1F748E0508160FF02C0522B01C0C4
:1004400053235083EC012197F1F76695415099F7BA
:100450008081772311F0832301C0822B80831FBF0B
:100460005C968D919C915D970197F1F781E090E00A
:10047000DF91CF911F910895089520913F0230910F
:1004800040022817390771F49091FD018091FE0117
:10049000981741F0E091FD01F0E0E150FE4F8081BE
:1004A00090E008958FEF9FEF089520913F023091E3
:1004B00040022817390771F48091FE012091FD0157
:1004C00090E0805C9F4F821B910960E470E00E9485
:1004D000BE09089580E090E00895E0913F02F09118
:1004E0004002E817F90769F4A389B4899C918589CA
:1004F000809589238C931092400210923F0281E0F4
:10050000089580E00895CF93DF93EC018A8D9B8D51
:10051000892BF1F080913F02909140028C179D074A
:10052000B9F0009711F00E946D028E8D8E7F8E8F34
:100530001092FE011092FD01D0934002C0933F0241
:10054000EB89FC8980819D89892B808381E001C0B2
:1005500080E0DF91CF9108951F920F920FB60F9216
:1005600011242F933F934F935F936F937F938F93B8
:100570009F93AF93BF93EF93FF93E0913F02F0916E
:100580004002309709F451C0868DA685B7859585C0
:1005900081FF04C08C91892329F447C08C91892361
:1005A00009F043C0A389B4899C91858980958923EA
:1005B0008C93868997890197F1F7208D318DA685D7
:1005C000B785758558E040E0C9010197F1F7842FA0
:1005D00090E095958795482F6C91672309F04068C6
:1005E000515091F7868D81FD40958091FE0190E0FC
:1005F00001968F7399272091FD01281749F0A0914A
:10060000FE01B0E0A150BE4F4C938093FE0103C0A9
:10061000868D8160868F828D938D0197F1F7A389F6
:10062000B4898C919589892B8C93FF91EF91BF911F
:10063000AF919F918F917F916F915F914F913F917A
:100640002F910F900FBE0F901F90189529EB31E05E
:10065000FC01318320830C946D021F93CF93DF93B1
:10066000EC01162F6E8D6695617081E06827812FF1
:100670000E944D0561E0812F0E941405812F90E0BA
:10068000FC01E458FF4FE491E88BFC01E057FF4F79
:10069000E491F0E0EE0FFF1FE255FF4F859194913A
:1006A0009A8B898BDF91CF911F9108951F93CF93E0
:1006B000DF93EC01162F60E0812F0E9414058E8DD0
:1006C00081FD04C061E0812F0E944D051C87812FB0
:1006D00090E0FC01E458FF4FE491ED87FC01E05706
:1006E000FF4FE491F0E0EE0FFF1FEC55FF4F8591B7
:1006F00094919F878E87DF91CF911F910895FF92EC
:100700000F931F93CF93DF93EC01F62E522F1B8292
:100710001A8208EE13E020E030E00C831D832E8364
:100720003F8389EB91E0998388831F8A1E8A198E03
:10073000188E1B8E1A8E1D8E1C8E8E8D8E7F50FBFA
:1007400081F98E8F642FCE010E942D036F2DCE0173
:10075000DF91CF911F910F91FF900C945603CF938F
:10076000DF93EC019A01AB011B8E1A8E198E188E45
:100770001F8A1E8A60E079E08DE390E00E94F40910
:10078000C9012430310520F0B9016350710902C05C
:1007900061E070E07D8F6C8FEC85E63108F068C019
:1007A000B901769567956431710518F06351710947
:1007B00002C061E070E07F8B6E8B069718F0C90174
:1007C000059702C081E090E0998F888FC901880F5A
:1007D000991F820F931F96958795969587958D30D3
:1007E000910510F00C9702C081E090E09B8F8A8FFA
:1007F00020916800E83050F091E0EE3008F490E08D
:1008000081E001C0880F9A95EAF701C084E0822B4D
:10081000809368002C85283038F02E3040F0263147
:1008200048F48CE690E008C08DE690E005C08BE6C9
:1008300090E002C080E090E09C8B8B8B283030F4FD
:1008400081E001C0880F2A95EAF70DC0822F90E061
:100850002E3010F4089701C00E9791E001C0990F57
:100860008A95EAF7892F8D8B8C8D9D8D0197F1F7F5
:10087000CE01DF91CF910C9483021F920F920FB69D
:100880000F9211242F933F938F939F93AF93BF9316
:100890008091420290914302A0914402B09145029E
:1008A0003091410223E0230F2D3720F40196A11D42
:1008B000B11D05C026E8230F0296A11DB11D20938E
:1008C00041028093420290934302A0934402B0936A
:1008D00045028091460290914702A0914802B09152
:1008E00049020196A11DB11D8093460290934702D3
:1008F000A0934802B0934902BF91AF919F918F910D
:100900003F912F910F900FBE0F901F9018952FB70A
:10091000F894609142027091430280914402909158
:1009200045022FBF0895789484B5826084BD84B554
:10093000816084BD85B5826085BD85B5816085BDDA
:10094000EEE6F0E0808181608083E1E8F0E01082F3
:10095000808182608083808181608083E0E8F0E034
:10096000808181608083E1EBF0E08081846080831E
:10097000E0EBF0E0808181608083EAE7F0E0808155
:1009800084608083808182608083808181608083B5
:100990008081806880831092C10008958E3008F0B5
:1009A0008E50877020910A0190E4299F90011124B4
:1009B000822B80937C0080917A00806480937A00FF
:1009C00080917A0086FDFCCF80917800209179009B
:1009D00090E0922B0895833081F028F4813099F0D3
:1009E0008230A1F008958730A9F08830B9F08430C2
:1009F000D1F4809180008F7D03C0809180008F773B
:100A000080938000089584B58F7702C084B58F7D70
:100A100084BD08958091B0008F7703C08091B000AD
:100A20008F7D8093B0000895CF93DF9390E0FC0119
:100A3000E458FF4F2491FC01E057FF4F8491882335
:100A400049F190E0880F991FFC01E854FF4FA591F0
:100A5000B49182559F4FFC01C591D4919FB761110C
:100A600008C0F8948C91209582238C9388818223EE
:100A70000AC0623051F4F8948C91322F3095832360
:100A80008C938881822B888304C0F8948C91822B6C
:100A90008C939FBFDF91CF9108950F931F93CF93B6
:100AA000DF931F92CDB7DEB7282F30E0F901E85968
:100AB000FF4F8491F901E458FF4F1491F901E05779
:100AC000FF4F04910023C9F0882321F069830E941D
:100AD000EB046981E02FF0E0EE0FFF1FE255FF4FBE
:100AE000A591B4919FB7F8948C91611103C01095B2
:100AF000812301C0812B8C939FBF0F90DF91CF91F9
:100B00001F910F910895CF93DF93282F30E0F901C3
:100B1000E859FF4F8491F901E458FF4FD491F9014E
:100B2000E057FF4FC491CC2391F081110E94EB0458
:100B3000EC2FF0E0EE0FFF1FEC55FF4FA591B491A5
:100B40002C912D2381E090E021F480E002C080E030
:100B500090E0DF91CF91089508950E9493040E9440
:100B6000AC050E948D00C0E0D0E00E94BA00209742
:100B7000E1F30E940000F9CFCF92DF92EF92FF9253
:100B80000F931F93CF93DF937C016A01EB0100E089
:100B900010E00C151D0571F06991D701ED91FC91E4
:100BA0000190F081E02DC7010995892B19F00F5FA5
:100BB0001F4FEFCFC801DF91CF911F910F91FF9091
:100BC000EF90DF90CF9008956115710581F0DB0102
:100BD0000D900020E9F7AD0141505109461B570B1C
:100BE000DC01ED91FC910280F381E02D099480E01D
:100BF00090E008950C94E405DC01ED91FC910190E6
:100C0000F081E02D099465EC71E00C94E4050F93FC
:100C10001F93CF93DF93EC010E94E4058C01CE017A
:100C20000E940306800F911FDF91CF911F910F91BA
:100C300008958F929F92AF92BF92DF92EF92FF92B0
:100C40000F931F93CF93DF93CDB7DEB7A1970FB666
:100C5000F894DEBF0FBECDBF7C01F42FD52ECB01A3
:100C600019A2223008F42AE08E010F5D1F4F822E58
:100C7000912CA12CB12C6F2F7D2DA50194010E94E8
:100C8000D209F22FD32ECA01015011096A3014F48F
:100C9000E0E301C0E7E3E60FD801EC93232B242B1C
:100CA000252B49F7B801C7010E94E405A1960FB6AC
:100CB000F894DEBF0FBECDBFDF91CF911F910F9192
:100CC000FF90EF90DF90BF90AF909F908F9008952E
:100CD000CF92DF92EF92FF920F931F93CF93DF9308
:100CE000EC016A017B012115310579F4E881F98174
:100CF0000190F081E02D642FDF91CF911F910F9132
:100D0000FF90EF90DF90CF9009942A303105E9F4FD
:100D100077FF1AC06DE20E94FC058C01442755271D
:100D2000BA014C195D096E097F092AE0CE010E94C3
:100D30001906800F911FDF91CF911F910F91FF90A6
:100D4000EF90DF90CF9008952AE0B701A601CE0181
:100D5000DF91CF911F910F91FF90EF90DF90CF9097
:100D60000C9419064F925F926F927F928F929F928E
:100D7000AF92BF92CF92DF92EF92FF920F931F93A9
:100D8000CF93DF93EC016A017B01B22E9A01AB0194
:100D9000C701B6010E94BA09882319F068EC71E016
:100DA00027C026013701E89477F82FEF3FEF4FE790
:100DB0005FE7C301B2010E94BA0981110DC02FEF94
:100DC0003FEF4FE75FE7C301B2010E940408181626
:100DD0001CF46CEC71E00CC02FEF3FEF4FE75FE4C9
:100DE000C701B6010E9453091816ACF460ED71E01A
:100DF000CE01DF91CF911F910F91FF90EF90DF9087
:100E0000CF90BF90AF909F908F907F906F905F90AA
:100E10004F900C94E4052FEF3FEF4FE75FECC701D5
:100E2000B6010E94040887FDE1CF20E030E0A9016F
:100E3000C701B6010E94040887FF0AC06DE2CE0117
:100E40000E94FC058C01F7FAF094F7F8F09402C0C8
:100E500000E010E0A12C60E070E080E09FE3AB14C4
:100E600041F020E030E040E251E40E940808A39401
:100E7000F6CF9B01AC01C701B6010E94A0076B0130
:100E80007C010E9475082B013C010E94A1089B0176
:100E9000AC01C701B6010E949F076B017C012AE0EB
:100EA000B301A201CE010E941906080F191FBB2031
:100EB00039F064ED71E0CE010E94E405080F191FBE
:100EC0007B2C772041F120E030E040E251E4C70183
:100ED000B6010E9457096B017C010E9470084B010A
:100EE000AA2497FCA094BA2C2AE030E0B501A40112
:100EF000CE010E946806080F191FC501B4010E94A7
:100F0000A3089B01AC01C701B6010E949F076B01BA
:100F10007C017A94D6CFC801DF91CF911F910F91B8
:100F2000FF90EF90DF90CF90BF90AF909F908F9009
:100F30007F906F905F904F9008950C94B206505838
:100F4000BB27AA270ED075C166D130F06BD120F037
:100F500031F49F3F11F41EF45BC10EF4E095E7FB02
:100F600051C1E92F77D180F3BA176207730784075D
:100F7000950718F071F49EF58FC10EF4E0950B2ED5
:100F8000BA2FA02D0B01B90190010C01CA01A001DB
:100F90001124FF27591B99F0593F50F4503E68F136
:100FA0001A16F040A22F232F342F4427585FF3CF77
:100FB000469537952795A795F0405395C9F77EF448
:100FC0001F16BA0B620B730B840BBAF09150A1F091
:100FD000FF0FBB1F661F771F881FC2F70EC0BA0F17
:100FE000621F731F841F48F4879577956795B7959F
:100FF000F7959E3F08F0B3CF9395880F08F0992797
:10100000EE0F979587950895D9D008F481E008955B
:101010000CD00FC107D140F0FED030F021F45F3F7B
:1010200019F0F0C0511139C1F3C014D198F39923CC
:10103000C9F35523B1F3951B550BBB27AA2762179C
:101040007307840738F09F5F5F4F220F331F441FE1
:10105000AA1FA9F333D00E2E3AF0E0E830D0915019
:101060005040E695001CCAF729D0FE2F27D0660F06
:10107000771F881FBB1F261737074807AB07B0E845
:1010800009F0BB0B802DBF01FF2793585F4F2AF05B
:101090009E3F510568F0B6C000C15F3FECF3983E3B
:1010A000DCF3869577956795B795F7959F5FC9F7B8
:1010B000880F911D9695879597F90895E1E0660F41
:1010C000771F881FBB1F621773078407BA0720F0BA
:1010D000621B730B840BBA0BEE1F88F7E095089523
:1010E00004D06894B111D9C00895BCD088F09F573E
:1010F00090F0B92F9927B751A0F0D1F0660F771F64
:10110000881F991F1AF0BA95C9F712C0B13081F043
:10111000C3D0B1E00895C0C0672F782F8827B85F8B
:1011200039F0B93FCCF3869577956795B395D9F7A4
:101130003EF490958095709561957F4F8F4F9F4FAE
:101140000895E89409C097FB3EF4909580957095BA
:1011500061957F4F8F4F9F4F9923A9F0F92F96E903
:10116000BB279395F695879577956795B795F11178
:10117000F8CFFAF4BB0F11F460FF1BC06F5F7F4F15
:101180008F4F9F4F16C0882311F096E911C0772327
:1011900021F09EE8872F762F05C0662371F096E830
:1011A000862F70E060E02AF09A95660F771F881FFF
:1011B000DAF7880F9695879597F90895990F0008A3
:1011C000550FAA0BE0E8FEEF16161706E807F90719
:1011D000C0F012161306E407F50798F0621B730BB4
:1011E000840B950B39F40A2661F0232B242B252B35
:1011F00021F408950A2609F4A140A6958FEF811DD8
:10120000811D089597F99F6780E870E060E0089578
:101210009FEF80EC089500240A941616170618060E
:101220000906089500240A941216130614060506EA
:101230000895092E0394000C11F4882352F0BB0F7B
:1012400040F4BF2B11F460FF04C06F5F7F4F8F4FDE
:101250009F4F089557FD9058440F551F59F05F3F19
:1012600071F04795880F97FB991F61F09F3F79F0C8
:1012700087950895121613061406551FF2CF46954A
:10128000F1DF08C0161617061806991FF1CF8695CC
:101290007105610508940895E894BB2766277727B0
:1012A000CB0197F908958ADF08F48FEF08950BD0EA
:1012B000C0CFB1DF28F0B6DF18F0952309F0A2CF38
:1012C000A7CF1124EACFC6DFA0F3959FD1F3950FE6
:1012D00050E0551F629FF001729FBB27F00DB11DBA
:1012E000639FAA27F00DB11DAA1F649F6627B00D4A
:1012F000A11D661F829F2227B00DA11D621F739F33
:10130000B00DA11D621F839FA00D611D221F749F40
:101310003327A00D611D231F849F600D211D822F87
:10132000762F6A2F11249F5750408AF0E1F08823CE
:101330004AF0EE0FFF1FBB1F661F771F881F9150DB
:101340005040A9F79E3F510570F05CCFA6CF5F3F9C
:10135000ECF3983EDCF3869577956795B795F7950E
:10136000E7959F5FC1F7FE2B880F911D9695879596
:1013700097F9089523DF880B990B089597FB072EA3
:1013800016F4009407D077FD09D00E94130A07FCD9
:1013900005D03EF4909581959F4F08957095619585
:1013A0007F4F0895A1E21A2EAA1BBB1BFD010DC0A1
:1013B000AA1FBB1FEE1FFF1FA217B307E407F50705
:1013C00020F0A21BB30BE40BF50B661F771F881FE1
:1013D000991F1A9469F760957095809590959B0177
:1013E000AC01BD01CF010895052E97FB1EF40094BA
:1013F0000E940B0A57FD07D00E94D20907FC03D0B8
:101400004EF40C940B0A50954095309521953F4F22
:101410004F4F5F4F089590958095709561957F4FE0
:101420008F4F9F4F0895AA1BBB1B51E107C0AA1FF6
:10143000BB1FA617B70710F0A61BB70B881F991F75
:101440005A95A9F780959095BC01CD010895EE0FAE
:10145000FF1F0590F491E02D099410E0C4ECD0E05A
:1014600004C0FE010E94290A2296C63CD107C9F792
:04147000F894FFCF1E
:101474000100040005000600070001557967756C3A
:10148400616D61204261736C6174696C64690054BC
:10149400656D7065726174757265203D200020432E
:1014A400004C454420312079616E6469004C454408
:1014B400203120736F6E6475004C454420322079CE
:1014C400616E6469004C4544203220736F6E64750C
:1014D400004C454420332079616E6469004C4544D6
:1014E400203320736F6E6475004C4544203420799A
:1014F400616E6469004C4544203420736F6E6475DA
:101504000054756D204C4544276C657220736F6ED2
:1015140064750054756D204C4544276C65722079C0
:10152400616E64690000000000EA01BC055502C94F
:10153400013D023C020D0A006E616E00696E660098
:061544006F7666002E0028
:00000001FF
