:100000000C9435000C945D000C945D000C945D0024
:100010000C945D000C945D000C945D000C945D00EC
:100020000C945D000C945D000C945D000C945D00DC
:100030000C945D000C945D000C945D000C945D00CC
:100040000C940D020C945D000C94DB010C94B50132
:100050000C945D000C945D000C945D000C945D00AC
:100060000C945D000C945D00DE0211241FBECFEFE6
:10007000D8E0DEBFCDBF11E0A0E0B1E0E0E3F6E004
:1000800002C005900D92A231B107D9F721E0A2E19B
:10009000B1E001C01D92A83BB207E1F710E0C5E353
:1000A000D0E004C02197FE010E940B03C433D107A6
:1000B000C9F70E9457020C9416030C940000CF92CB
:1000C000DF92EF92FF920F931F93CF93DF936C0118
:1000D0007A018B01C0E0D0E0CE15DF0589F0D801B0
:1000E0006D918D01D601ED91FC910190F081E02D93
:1000F000C6010995892B11F47E0102C02196ECCF2F
:10010000C701DF91CF911F910F91FF90EF90DF908A
:10011000CF900895FC01918D828D981761F0828DAA
:10012000DF01A80FB11D5D968C91928D9F5F9F732B
:10013000928F90E008958FEF9FEF0895FC01918DCD
:10014000828D981731F0828DE80FF11D858D90E03A
:1001500008958FEF9FEF0895FC01918D228D892FD7
:1001600090E0805C9F4F821B91098F7399270895BF
:100170008BE191E00E94AC0021E0892B09F420E0A2
:10018000822F0895FC01848DDF01A80FB11DA35AB1
:10019000BF4F2C91848D90E001968F739927848FA7
:1001A000A689B7892C93A089B1898C9180648C939E
:1001B000938D848D981306C00288F389E02D808189
:1001C0008F7D80830895EF92FF920F931F93CF93BB
:1001D000DF93EC0181E0888F9B8D8C8D981305C097
:1001E000E889F989808185FD24C0F62E0B8D10E009
:1001F0000F5F1F4F0F731127E02E8C8DE8120CC07C
:100200000FB607FCFACFE889F989808185FFF5CF21
:10021000CE010E94C200F1CF8B8DFE01E80FF11DCF
:10022000E35AFF4FF0820B8FEA89FB89808180625D
:1002300007C0EE89FF896083E889F989808180643D
:10024000808381E090E0DF91CF911F910F91FF902B
:10025000EF900895CF93DF93EC01888D8823C9F048
:10026000EA89FB89808185FD05C0A889B9898C91BF
:1002700086FD0FC00FB607FCF5CF808185FFF2CF5A
:10028000A889B9898C9185FFEDCFCE010E94C2006B
:10029000E7CFDF91CF91089580E090E0892B29F09E
:1002A0000E94B80081110C94000008953FB7F894A3
:1002B0008091170190911801A0911901B0911A0134
:1002C00026B5A89B05C02F3F19F00196A11DB11DB1
:1002D0003FBFBA2FA92F982F8827820F911DA11DEC
:1002E000B11DBC01CD0142E0660F771F881F991F29
:1002F0004A95D1F708958F929F92AF92BF92CF9275
:10030000DF92EF92FF920E9456014B015C0184EF55
:10031000C82EDD24D394E12CF12C0E945601DC017F
:10032000CB0188199909AA09BB09883E9340A10508
:10033000B10558F021E0C21AD108E108F10888EEB1
:10034000880E83E0981EA11CB11CC114D104E104E5
:10035000F10419F7FF90EF90DF90CF90BF90AF902E
:100360009F908F9008950E9411031F920F920FB6D5
:100370000F9211242F933F934F935F936F937F932B
:100380008F939F93AF93BF93EF93FF938BE191E094
:100390000E94C200FF91EF91BF91AF919F918F9109
:1003A0007F916F915F914F913F912F910F900FBE71
:1003B0000F901F9018951F920F920FB60F92112455
:1003C0002F938F939F93EF93FF93E0912B01F091E5
:1003D0002C018081E0913101F091320182FD12C047
:1003E0009081809134018F5F8F7320913501821746
:1003F00051F0E0913401F0E0E55EFE4F958F80937F
:10040000340101C08081FF91EF919F918F912F91D5
:100410000F900FBE0F901F9018951F920F920FB65E
:100420000F9211242F933F938F939F93AF93BF937A
:100430008091130190911401A0911501B0911601C2
:100440003091120123E0230F2D3720F40196A11DD6
:10045000B11D05C026E8230F0296A11DB11D2093F2
:1004600012018093130190931401A0931501B0938E
:1004700016018091170190911801A0911901B09176
:100480001A010196A11DB11D8093170190931801C7
:10049000A0931901B0931A01BF91AF919F918F91D1
:1004A0003F912F910F900FBE0F901F901895789449
:1004B00084B5826084BD84B5816084BD85B5826069
:1004C00085BD85B5816085BD80916E00816080931A
:1004D0006E00109281008091810082608093810083
:1004E0008091810081608093810080918000816093
:1004F000809380008091B10084608093B1008091EE
:10050000B00081608093B00080917A008460809315
:100510007A0080917A00826080937A0080917A00DC
:10052000816080937A0080917A00806880937A005D
:100530001092C100E0912B01F0912C0182E08083A8
:10054000E0912701F09128011082E0912901F091BA
:100550002A018FEC808310923301E0912F01F091FA
:10056000300186E08083E0912D01F0912E018081A1
:1005700080618083E0912D01F0912E01808188605F
:100580008083E0912D01F0912E018081806880832D
:10059000E0912D01F0912E0180818F7D80830E945A
:1005A0007B0141E050E060E171E08BE191E00E946D
:1005B0005F000E947B010E944C01F1CFEBE1F1E072
:1005C0001382128288EE93E0A0E0B0E084839583EA
:1005D000A683B78384E091E09183808385EC90E0EB
:1005E0009587848784EC90E09787868780EC90E0FD
:1005F000918B808B81EC90E0938B828B82EC90E0EE
:10060000958B848B86EC90E0978B868B118E128E67
:10061000138E148E0895EE0FFF1F0590F491E02DB8
:10062000099481E090E0F8940C941603F894FFCFBD
:1006300000000000E3005F00AC008A009E002A0179
:02064000780040
:00000001FF
